{
	"data": {
		"bytecode": {
			"linkReferences": {},
			"object": "6102406040526000601260006101000a81548160ff0219169083151502179055506000601260016101000a81548160ff0219169083151502179055503480156200004857600080fd5b5060405162006c0d38038062006c0d83398181016040528101906200006e919062000c6e565b60016000819055503373ffffffffffffffffffffffffffffffffffffffff1660808173ffffffffffffffffffffffffffffffffffffffff16815250508873ffffffffffffffffffffffffffffffffffffffff1660a08173ffffffffffffffffffffffffffffffffffffffff16815250508973ffffffffffffffffffffffffffffffffffffffff1660c08173ffffffffffffffffffffffffffffffffffffffff16815250508173ffffffffffffffffffffffffffffffffffffffff1660e08173ffffffffffffffffffffffffffffffffffffffff168152505081600b60006101000a81548173ffffffffffffffffffffffffffffffffffffffff021916908373ffffffffffffffffffffffffffffffffffffffff1602179055508773ffffffffffffffffffffffffffffffffffffffff166101208173ffffffffffffffffffffffffffffffffffffffff168152505060a05173ffffffffffffffffffffffffffffffffffffffff16631698ee8288888461012001516040518463ffffffff1660e01b8152600401620002029392919062000d86565b602060405180830381865afa15801562000220573d6000803e3d6000fd5b505050506040513d601f19601f8201168201806040525081019062000246919062000dc3565b73ffffffffffffffffffffffffffffffffffffffff166101808173ffffffffffffffffffffffffffffffffffffffff16815250506101805173ffffffffffffffffffffffffffffffffffffffff1663d0c93a7c6040518163ffffffff1660e01b8152600401602060405180830381865afa158015620002c9573d6000803e3d6000fd5b505050506040513d601f19601f82011682018060405250810190620002ef919062000df5565b600c60046101000a81548162ffffff021916908360020b62ffffff1602179055508673ffffffffffffffffffffffffffffffffffffffff166101408173ffffffffffffffffffffffffffffffffffffffff16815250508573ffffffffffffffffffffffffffffffffffffffff166101608173ffffffffffffffffffffffffffffffffffffffff16815250508060600151600b60146101000a81548160ff021916908360ff1602179055508060800151600b60156101000a81548160ff021916908360ff16021790555080610120015162ffffff166101e08162ffffff1681525050806101600151600b601c6101000a81548163ffffffff021916908363ffffffff160217905550806101400151600c600d6101000a81548162ffffff021916908360020b62ffffff16021790555080604001516fffffffffffffffffffffffffffffffff166101c0816fffffffffffffffffffffffffffffffff168152505060648160c001518260a0015162000466919062000e56565b60ff161115620004ad576040517f08c379a0000000000000000000000000000000000000000000000000000000008152600401620004a49062000ef5565b60405180910390fd5b8060a00151600b60166101000a81548160ff021916908360ff1602179055508060c00151600b60176101000a81548160ff021916908360ff1602179055506101205173ffffffffffffffffffffffffffffffffffffffff166102008173ffffffffffffffffffffffffffffffffffffffff16815250508273ffffffffffffffffffffffffffffffffffffffff166102208173ffffffffffffffffffffffffffffffffffffffff168152505084600d60008973ffffffffffffffffffffffffffffffffffffffff1673ffffffffffffffffffffffffffffffffffffffff16815260200190815260200160002060006101000a81548173ffffffffffffffffffffffffffffffffffffffff021916908373ffffffffffffffffffffffffffffffffffffffff16021790555083600d60008873ffffffffffffffffffffffffffffffffffffffff1673ffffffffffffffffffffffffffffffffffffffff16815260200190815260200160002060006101000a81548173ffffffffffffffffffffffffffffffffffffffff021916908373ffffffffffffffffffffffffffffffffffffffff1602179055506101205173ffffffffffffffffffffffffffffffffffffffff168473ffffffffffffffffffffffffffffffffffffffff161415620006c9576040517f08c379a0000000000000000000000000000000000000000000000000000000008152600401620006c09062000f67565b60405180910390fd5b8060e00151600b60186101000a81548160ff021916908360ff160217905550806101000151600b60196101000a81548160ff021916908360ff160217905550806101800151600c60006101000a81548163ffffffff021916908363ffffffff16021790555060c05173ffffffffffffffffffffffffffffffffffffffff166310bdba0f6080518989856000015186602001516040518663ffffffff1660e01b81526004016200077d95949392919062000f9a565b6020604051808303816000875af11580156200079d573d6000803e3d6000fd5b505050506040513d601f19601f82011682018060405250810190620007c3919062000dc3565b73ffffffffffffffffffffffffffffffffffffffff166101008173ffffffffffffffffffffffffffffffffffffffff16815250506101005173ffffffffffffffffffffffffffffffffffffffff166101a08173ffffffffffffffffffffffffffffffffffffffff16815250505050505050505050505062000ff7565b6000604051905090565b600080fd5b600073ffffffffffffffffffffffffffffffffffffffff82169050919050565b60006200087b826200084e565b9050919050565b6200088d816200086e565b81146200089957600080fd5b50565b600081519050620008ad8162000882565b92915050565b6000620008c0826200084e565b9050919050565b620008d281620008b3565b8114620008de57600080fd5b50565b600081519050620008f281620008c7565b92915050565b600080fd5b6000601f19601f8301169050919050565b7f4e487b7100000000000000000000000000000000000000000000000000000000600052604160045260246000fd5b6200094882620008fd565b810181811067ffffffffffffffff821117156200096a57620009696200090e565b5b80604052505050565b60006200097f6200083f565b90506200098d82826200093d565b919050565b6000819050919050565b620009a78162000992565b8114620009b357600080fd5b50565b600081519050620009c7816200099c565b92915050565b60006fffffffffffffffffffffffffffffffff82169050919050565b620009f481620009cd565b811462000a0057600080fd5b50565b60008151905062000a1481620009e9565b92915050565b600060ff82169050919050565b62000a328162000a1a565b811462000a3e57600080fd5b50565b60008151905062000a528162000a27565b92915050565b600062ffffff82169050919050565b62000a728162000a58565b811462000a7e57600080fd5b50565b60008151905062000a928162000a67565b92915050565b60008160020b9050919050565b62000ab08162000a98565b811462000abc57600080fd5b50565b60008151905062000ad08162000aa5565b92915050565b600063ffffffff82169050919050565b62000af18162000ad6565b811462000afd57600080fd5b50565b60008151905062000b118162000ae6565b92915050565b60006101a0828403121562000b315762000b30620008f8565b5b62000b3e6101a062000973565b9050600062000b5084828501620009b6565b600083015250602062000b6684828501620009b6565b602083015250604062000b7c8482850162000a03565b604083015250606062000b928482850162000a41565b606083015250608062000ba88482850162000a41565b60808301525060a062000bbe8482850162000a41565b60a08301525060c062000bd48482850162000a41565b60c08301525060e062000bea8482850162000a41565b60e08301525061010062000c018482850162000a41565b6101008301525061012062000c198482850162000a81565b6101208301525061014062000c318482850162000abf565b6101408301525061016062000c498482850162000b00565b6101608301525061018062000c618482850162000b00565b6101808301525092915050565b6000806000806000806000806000806102c08b8d03121562000c955762000c9462000849565b5b600062000ca58d828e016200089c565b9a5050602062000cb88d828e016200089c565b995050604062000ccb8d828e01620008e1565b985050606062000cde8d828e016200089c565b975050608062000cf18d828e016200089c565b96505060a062000d048d828e016200089c565b95505060c062000d178d828e016200089c565b94505060e062000d2a8d828e016200089c565b93505061010062000d3e8d828e016200089c565b92505061012062000d528d828e0162000b17565b9150509295989b9194979a5092959850565b62000d6f816200086e565b82525050565b62000d808162000a58565b82525050565b600060608201905062000d9d600083018662000d64565b62000dac602083018562000d64565b62000dbb604083018462000d75565b949350505050565b60006020828403121562000ddc5762000ddb62000849565b5b600062000dec848285016200089c565b91505092915050565b60006020828403121562000e0e5762000e0d62000849565b5b600062000e1e8482850162000abf565b91505092915050565b7f4e487b7100000000000000000000000000000000000000000000000000000000600052601160045260246000fd5b600062000e638262000a1a565b915062000e708362000a1a565b92508260ff0382111562000e895762000e8862000e27565b5b828201905092915050565b600082825260208201905092915050565b7f506f7274696f6e00000000000000000000000000000000000000000000000000600082015250565b600062000edd60078362000e94565b915062000eea8262000ea5565b602082019050919050565b6000602082019050818103600083015262000f108162000ece565b9050919050565b7f54312d5765746800000000000000000000000000000000000000000000000000600082015250565b600062000f4f60078362000e94565b915062000f5c8262000f17565b602082019050919050565b6000602082019050818103600083015262000f828162000f40565b9050919050565b62000f948162000992565b82525050565b600060a08201905062000fb1600083018862000d64565b62000fc0602083018762000d64565b62000fcf604083018662000d64565b62000fde606083018562000f89565b62000fed608083018462000f89565b9695505050505050565b60805160a05160c05160e05161010051610120516101405161016051610180516101a0516101c0516101e0516102005161022051615a3a620011d360003960008181611a3701528181612c8c0152818161313901526131ef015260008181611969015281816135bd01526136950152600061179e0152600081816108f0015261180701526000611e5901526000818161095c01528181610b0c01528181610bc401528181611047015281816113a80152818161144901528181611bb901528181611d2f01528181612afd01528181612bb101528181613896015261393e0152600081816112870152818161153f015281816116900152818161172a0152818161184901528181611b7101528181611c9701528181611e0d015281816126f601528181612f66015281816135870152613b2e0152600081816109140152818161123c0152818161150a0152818161158c015281816116260152818161182801528181611c4c01528181611dc20152818161265c01528181612e690152818161355b0152613a3301526000818161194501528181611aa0015261285601526000818161156b0152818161166f0152611b950152600081816109d301526112ff015260006117d5015260006112db015260006109380152615a3a6000f3fe608060405234801561001057600080fd5b50600436106102bb5760003560e01c80638ed0d6a611610182578063cf8d7e25116100e9578063d3487997116100a2578063e88958dc1161007c578063e88958dc1461085f578063f68371571461087d578063fa461e331461089b578063fbfa77cf146108b7576102bb565b8063d348799714610807578063d368867f14610823578063e7c7cb9114610841576102bb565b8063cf8d7e2514610755578063cffb51cd14610773578063d0c93a7c14610791578063d1890677146107af578063d21220a7146107cb578063d27567f2146107e9576102bb565b8063b0e21e8a1161013b578063b0e21e8a1461068d578063b6c06d3f146106ab578063bbc001c3146106dd578063bef95a64146106fb578063c8a746a614610719578063ccac7d8b14610737576102bb565b80638ed0d6a6146105c657806398d5fdca146105e45780639d371c3014610602578063a0be06f914610633578063abdc380814610651578063ad5c46481461066f576102bb565b8063400de37d1161022657806371c851dd116101df57806371c851dd146105015780637535536a146105325780637a0ddeef1461055057806385f2aef21461056c5780638a1c4ce71461058a5780638e843c6c146105a8576102bb565b8063400de37d1461042b57806342cde4e81461044757806343c57a27146104655780634bff5e2314610495578063559681ef146104b35780635d752a9a146104e3576102bb565b806326d895451161027857806326d895451461037457806331dc5b95146103925780633aaa36e6146103b05780633b05bc37146103d35780633b7ba25f146103f15780633c1bda091461040d576102bb565b80630276650b146102c05780630435a745146102de5780630d40886d146102fc5780630dfe16811461031a578063165523931461033857806316f0115b14610356575b600080fd5b6102c86108d5565b6040516102d59190613dde565b60405180910390f35b6102e66108db565b6040516102f39190613e14565b60405180910390f35b6103046108ee565b6040516103119190613e5a565b60405180910390f35b610322610912565b60405161032f9190613eb6565b60405180910390f35b610340610936565b60405161034d9190613eb6565b60405180910390f35b61035e61095a565b60405161036b9190613f30565b60405180910390f35b61037c61097e565b6040516103899190613f6a565b60405180910390f35b61039a610994565b6040516103a79190613fa1565b60405180910390f35b6103b86109a7565b6040516103ca96959493929190613fbc565b60405180910390f35b6103db6109d1565b6040516103e89190613eb6565b60405180910390f35b61040b60048036038101906104069190614089565b6109f5565b005b610415610b02565b6040516104229190613dde565b60405180910390f35b61044560048036038101906104409190614115565b610b08565b005b61044f610cbf565b60405161045c9190613f6a565b60405180910390f35b61047f600480360381019061047a91906141a8565b610cd5565b60405161048c9190613dde565b60405180910390f35b61049d610ee1565b6040516104aa9190613fa1565b60405180910390f35b6104cd60048036038101906104c8919061420f565b610ef4565b6040516104da9190613eb6565b60405180910390f35b6104eb610f27565b6040516104f8919061424b565b60405180910390f35b61051b60048036038101906105169190614266565b6111a1565b6040516105299291906142b9565b60405180910390f35b61053a6112d9565b6040516105479190613eb6565b60405180910390f35b61056a6004803603810190610565919061430e565b6112fd565b005b610574611776565b6040516105819190613eb6565b60405180910390f35b61059261179c565b60405161059f91906143b9565b60405180910390f35b6105b06117c0565b6040516105bd919061424b565b60405180910390f35b6105ce6117d3565b6040516105db9190613eb6565b60405180910390f35b6105ec6117f7565b6040516105f99190613dde565b60405180910390f35b61061c600480360381019061061791906143d4565b6118b9565b60405161062a9291906142b9565b60405180910390f35b61063b611930565b6040516106489190613fa1565b60405180910390f35b610659611943565b6040516106669190614435565b60405180910390f35b610677611967565b6040516106849190614471565b60405180910390f35b61069561198b565b6040516106a29190613fa1565b60405180910390f35b6106c560048036038101906106c0919061448c565b61199e565b6040516106d4939291906144df565b60405180910390f35b6106e5611a24565b6040516106f29190613e14565b60405180910390f35b610703611a35565b6040516107109190614537565b60405180910390f35b610721611a59565b60405161072e9190613dde565b60405180910390f35b61073f611a5f565b60405161074c9190613dde565b60405180910390f35b61075d611a65565b60405161076a9190613fa1565b60405180910390f35b61077b611a78565b6040516107889190613fa1565b60405180910390f35b610799611a8b565b6040516107a6919061424b565b60405180910390f35b6107c960048036038101906107c49190614552565b611a9e565b005b6107d3611b6f565b6040516107e09190613eb6565b60405180910390f35b6107f1611b93565b6040516107fe9190614435565b60405180910390f35b610821600480360381019061081c91906145f7565b611bb7565b005b61082b611ce1565b604051610838919061424b565b60405180910390f35b610849611cf4565b604051610856919061424b565b60405180910390f35b610867611d07565b6040516108749190613fa1565b60405180910390f35b610885611d1a565b6040516108929190613fa1565b60405180910390f35b6108b560048036038101906108b091906146a1565b611d2d565b005b6108bf611e57565b6040516108cc9190614748565b60405180910390f35b60115481565b601260009054906101000a900460ff1681565b7f000000000000000000000000000000000000000000000000000000000000000081565b7f000000000000000000000000000000000000000000000000000000000000000081565b7f000000000000000000000000000000000000000000000000000000000000000081565b7f000000000000000000000000000000000000000000000000000000000000000081565b600b601c9054906101000a900463ffffffff1681565b600b60169054906101000a900460ff1681565b60058060000154908060010154908060020154908060030154908060040154908060050154905086565b7f000000000000000000000000000000000000000000000000000000000000000081565b600083905060008390508173ffffffffffffffffffffffffffffffffffffffff1663095ea7b385856040518363ffffffff1660e01b8152600401610a3a929190614763565b6020604051808303816000875af1158015610a59573d6000803e3d6000fd5b505050506040513d601f19601f82011682018060405250810190610a7d91906147a1565b508073ffffffffffffffffffffffffffffffffffffffff1663a0712d68846040518263ffffffff1660e01b8152600401610ab79190613dde565b6020604051808303816000875af1158015610ad6573d6000803e3d6000fd5b505050506040513d601f19601f82011682018060405250810190610afa91906147e3565b505050505050565b60105481565b60007f000000000000000000000000000000000000000000000000000000000000000073ffffffffffffffffffffffffffffffffffffffff16633850c7bd6040518163ffffffff1660e01b815260040160e060405180830381865afa158015610b75573d6000803e3d6000fd5b505050506040513d601f19601f82011682018060405250810190610b9991906148b7565b50505050505090506000610bc082610bb088611e7b565b610bb988611e7b565b8787612349565b90507f000000000000000000000000000000000000000000000000000000000000000073ffffffffffffffffffffffffffffffffffffffff16633c8a7d8d308888856040518563ffffffff1660e01b8152600401610c219493929190614990565b60408051808303816000875af1158015610c3f573d6000803e3d6000fd5b505050506040513d601f19601f82011682018060405250810190610c6391906149e8565b50503073ffffffffffffffffffffffffffffffffffffffff167f9ded9120d438ac6b7c5f73c3d2b671b30af17af169a8adfb2f199d1c14881604878784604051610caf93929190614a28565b60405180910390a2505050505050565b600c60009054906101000a900463ffffffff1681565b600080610ce186611e7b565b90506fffffffffffffffffffffffffffffffff80168173ffffffffffffffffffffffffffffffffffffffff1611610dfb5760008173ffffffffffffffffffffffffffffffffffffffff168273ffffffffffffffffffffffffffffffffffffffff16610d4c9190614a8e565b90508373ffffffffffffffffffffffffffffffffffffffff168573ffffffffffffffffffffffffffffffffffffffff1610610dbc57610db77801000000000000000000000000000000000000000000000000876fffffffffffffffffffffffffffffffff1683612475565b610df3565b610df281876fffffffffffffffffffffffffffffffff167801000000000000000000000000000000000000000000000000612475565b5b925050610ed8565b6000610e3d8273ffffffffffffffffffffffffffffffffffffffff168373ffffffffffffffffffffffffffffffffffffffff1668010000000000000000612475565b90508373ffffffffffffffffffffffffffffffffffffffff168573ffffffffffffffffffffffffffffffffffffffff1610610ea557610ea0700100000000000000000000000000000000876fffffffffffffffffffffffffffffffff1683612475565b610ed4565b610ed381876fffffffffffffffffffffffffffffffff16700100000000000000000000000000000000612475565b5b9250505b50949350505050565b600b60149054906101000a900460ff1681565b600d6020528060005260406000206000915054906101000a900473ffffffffffffffffffffffffffffffffffffffff1681565b600080600b601c9054906101000a900463ffffffff1663ffffffff161415610f84576040517f08c379a0000000000000000000000000000000000000000000000000000000008152600401610f7b90614b45565b60405180910390fd5b6000600267ffffffffffffffff811115610fa157610fa0614b65565b5b604051908082528060200260200182016040528015610fcf5781602001602082028036833780820191505090505b509050600b601c9054906101000a900463ffffffff1681600081518110610ff957610ff8614b94565b5b602002602001019063ffffffff16908163ffffffff168152505060008160018151811061102957611028614b94565b5b602002602001019063ffffffff16908163ffffffff168152505060007f000000000000000000000000000000000000000000000000000000000000000073ffffffffffffffffffffffffffffffffffffffff1663883bdbfd836040518263ffffffff1660e01b815260040161109e9190614c81565b600060405180830381865afa1580156110bb573d6000803e3d6000fd5b505050506040513d6000823e3d601f19601f820116820180604052508101906110e49190614ebf565b5090506000816000815181106110fd576110fc614b94565b5b60200260200101518260018151811061111957611118614b94565b5b602002602001015161112b9190614f37565b9050600b601c9054906101000a900463ffffffff1660030b8161114e9190614fe1565b935060008160060b12801561118757506000600b601c9054906101000a900463ffffffff1660030b82611181919061504b565b60060b14155b1561119b5783806111979061507c565b9450505b50505090565b6000806000806111af612616565b915091506000600190506000600190506000826fffffffffffffffffffffffffffffffff16856111df9190614a8e565b90506000826fffffffffffffffffffffffffffffffff16856112019190614a8e565b9050888a836112109190614a8e565b61121a91906150c5565b9750888a826112299190614a8e565b61123391906150c5565b96506112808b897f000000000000000000000000000000000000000000000000000000000000000073ffffffffffffffffffffffffffffffffffffffff166127ce9092919063ffffffff16565b6112cb8b887f000000000000000000000000000000000000000000000000000000000000000073ffffffffffffffffffffffffffffffffffffffff166127ce9092919063ffffffff16565b505050505050935093915050565b7f000000000000000000000000000000000000000000000000000000000000000081565b7f000000000000000000000000000000000000000000000000000000000000000073ffffffffffffffffffffffffffffffffffffffff163373ffffffffffffffffffffffffffffffffffffffff161461138b576040517f08c379a000000000000000000000000000000000000000000000000000000000815260040161138290615142565b60405180910390fd5b6001601260016101000a81548160ff0219169083151502179055507f000000000000000000000000000000000000000000000000000000000000000073ffffffffffffffffffffffffffffffffffffffff1663a34123a78787876040518463ffffffff1660e01b815260040161140393929190614a28565b60408051808303816000875af1158015611421573d6000803e3d6000fd5b505050506040513d601f19601f8201168201806040525081019061144591906149e8565b50507f000000000000000000000000000000000000000000000000000000000000000073ffffffffffffffffffffffffffffffffffffffff16634f1eb3d83088886fffffffffffffffffffffffffffffffff806040518663ffffffff1660e01b81526004016114b8959493929190615162565b60408051808303816000875af11580156114d6573d6000803e3d6000fd5b505050506040513d601f19601f820116820180604052508101906114fa91906151ca565b50506000831115611531576115307f00000000000000000000000000000000000000000000000000000000000000008483612854565b5b6000821115611566576115657f00000000000000000000000000000000000000000000000000000000000000008383612854565b5b61166a7f00000000000000000000000000000000000000000000000000000000000000007f000000000000000000000000000000000000000000000000000000000000000073ffffffffffffffffffffffffffffffffffffffff166370a08231306040518263ffffffff1660e01b81526004016115e39190613eb6565b602060405180830381865afa158015611600573d6000803e3d6000fd5b505050506040513d601f19601f8201168201806040525081019061162491906147e3565b7f000000000000000000000000000000000000000000000000000000000000000073ffffffffffffffffffffffffffffffffffffffff166127ce9092919063ffffffff16565b61176e7f00000000000000000000000000000000000000000000000000000000000000007f000000000000000000000000000000000000000000000000000000000000000073ffffffffffffffffffffffffffffffffffffffff166370a08231306040518263ffffffff1660e01b81526004016116e79190613eb6565b602060405180830381865afa158015611704573d6000803e3d6000fd5b505050506040513d601f19601f8201168201806040525081019061172891906147e3565b7f000000000000000000000000000000000000000000000000000000000000000073ffffffffffffffffffffffffffffffffffffffff166127ce9092919063ffffffff16565b505050505050565b600b60009054906101000a900473ffffffffffffffffffffffffffffffffffffffff1681565b7f000000000000000000000000000000000000000000000000000000000000000081565b600c600a9054906101000a900460020b81565b7f000000000000000000000000000000000000000000000000000000000000000081565b60008061186d611805610f27565b7f00000000000000000000000000000000000000000000000000000000000000007f00000000000000000000000000000000000000000000000000000000000000007f0000000000000000000000000000000000000000000000000000000000000000610cd5565b9050600081116118b2576040517f08c379a00000000000000000000000000000000000000000000000000000000081526004016118a990615256565b60405180910390fd5b8091505090565b60008060008060006118cb8787612ae5565b94509450505092506118de878785612baa565b8095508196505050816fffffffffffffffffffffffffffffffff16856119049190615276565b9450806fffffffffffffffffffffffffffffffff16846119249190615276565b93505050509250929050565b600b60199054906101000a900460ff1681565b7f000000000000000000000000000000000000000000000000000000000000000081565b7f000000000000000000000000000000000000000000000000000000000000000081565b600b601b9054906101000a900460ff1681565b6000806000806119ac6117f7565b90506000806119b9612616565b91509150600083886119cb91906150c5565b896119d69190615276565b9050600084836119e691906150c5565b846119f19190615276565b9050808b83611a009190614a8e565b611a0a91906150c5565b975089898097508198505050505050505093509350939050565b6000611a2e612c6f565b6001905090565b7f000000000000000000000000000000000000000000000000000000000000000081565b600e5481565b600f5481565b600b60179054906101000a900460ff1681565b600b60159054906101000a900460ff1681565b600c60049054906101000a900460020b81565b7f000000000000000000000000000000000000000000000000000000000000000073ffffffffffffffffffffffffffffffffffffffff168273ffffffffffffffffffffffffffffffffffffffff161415611b0057611afb81612c81565b611b6b565b611b6a82600d60008573ffffffffffffffffffffffffffffffffffffffff1673ffffffffffffffffffffffffffffffffffffffff16815260200190815260200160002060009054906101000a900473ffffffffffffffffffffffffffffffffffffffff16836109f5565b5b5050565b7f000000000000000000000000000000000000000000000000000000000000000081565b7f000000000000000000000000000000000000000000000000000000000000000081565b7f000000000000000000000000000000000000000000000000000000000000000073ffffffffffffffffffffffffffffffffffffffff163373ffffffffffffffffffffffffffffffffffffffff1614611c45576040517f08c379a0000000000000000000000000000000000000000000000000000000008152600401611c3c90615318565b60405180910390fd5b611c9033857f000000000000000000000000000000000000000000000000000000000000000073ffffffffffffffffffffffffffffffffffffffff166127ce9092919063ffffffff16565b611cdb33847f000000000000000000000000000000000000000000000000000000000000000073ffffffffffffffffffffffffffffffffffffffff166127ce9092919063ffffffff16565b50505050565b600c60079054906101000a900460020b81565b600c600d9054906101000a900460020b81565b600b60189054906101000a900460ff1681565b600b601a9054906101000a900460ff1681565b7f000000000000000000000000000000000000000000000000000000000000000073ffffffffffffffffffffffffffffffffffffffff163373ffffffffffffffffffffffffffffffffffffffff1614611dbb576040517f08c379a0000000000000000000000000000000000000000000000000000000008152600401611db290615384565b60405180910390fd5b611e0633857f000000000000000000000000000000000000000000000000000000000000000073ffffffffffffffffffffffffffffffffffffffff166127ce9092919063ffffffff16565b611e5133847f000000000000000000000000000000000000000000000000000000000000000073ffffffffffffffffffffffffffffffffffffffff166127ce9092919063ffffffff16565b50505050565b7f000000000000000000000000000000000000000000000000000000000000000081565b60008060008360020b12611e92578260020b611ea0565b8260020b611e9f906153a4565b5b90507ffffffffffffffffffffffffffffffffffffffffffffffffffffffffffff27618611ecc906153ed565b62ffffff16811115611f13576040517f08c379a0000000000000000000000000000000000000000000000000000000008152600401611f0a90615482565b60405180910390fd5b600080600183161415611f3757700100000000000000000000000000000000611f49565b6ffffcb933bd6fad37aa2d162d1a5940015b70ffffffffffffffffffffffffffffffffff16905060006002831614611f8c5760806ffff97272373d413259a46990580e213a82611f879190614a8e565b901c90505b60006004831614611fba5760806ffff2e50f5f656932ef12357cf3c7fdcc82611fb59190614a8e565b901c90505b60006008831614611fe85760806fffe5caca7e10e4e61c3624eaa0941cd082611fe39190614a8e565b901c90505b600060108316146120165760806fffcb9843d60f6159c9db58835c926644826120119190614a8e565b901c90505b600060208316146120445760806fff973b41fa98c081472e6896dfb254c08261203f9190614a8e565b901c90505b600060408316146120725760806fff2ea16466c96a3843ec78b326b528618261206d9190614a8e565b901c90505b600060808316146120a05760806ffe5dee046a99a2a811c461f1969c30538261209b9190614a8e565b901c90505b60006101008316146120cf5760806ffcbe86c7900a88aedcffc83b479aa3a4826120ca9190614a8e565b901c90505b60006102008316146120fe5760806ff987a7253ac413176f2b074cf7815e54826120f99190614a8e565b901c90505b600061040083161461212d5760806ff3392b0822b70005940c7a398e4b70f3826121289190614a8e565b901c90505b600061080083161461215c5760806fe7159475a2c29b7443b29c7fa6e889d9826121579190614a8e565b901c90505b600061100083161461218b5760806fd097f3bdfd2022b8845ad8f792aa5825826121869190614a8e565b901c90505b60006120008316146121ba5760806fa9f746462d870fdf8a65dc1f90e061e5826121b59190614a8e565b901c90505b60006140008316146121e95760806f70d869a156d2a1b890bb3df62baf32f7826121e49190614a8e565b901c90505b60006180008316146122185760806f31be135f97d08fd981231505542fcfa6826122139190614a8e565b901c90505b6000620100008316146122485760806f09aa508b5b7a84e1c677de54f3e99bc9826122439190614a8e565b901c90505b6000620200008316146122775760806e5d6af8dedb81196699c329225ee604826122729190614a8e565b901c90505b6000620400008316146122a55760806d2216e584f5fa1ea926041bedfe98826122a09190614a8e565b901c90505b6000620800008316146122d15760806b048a170391f7dc42444e8fa2826122cc9190614a8e565b901c90505b60008460020b131561230c57807fffffffffffffffffffffffffffffffffffffffffffffffffffffffffffffffff61230991906150c5565b90505b60006401000000008261231f91906154a2565b1461232b57600161232e565b60005b60ff16602082901c6123409190615276565b92505050919050565b60008373ffffffffffffffffffffffffffffffffffffffff168573ffffffffffffffffffffffffffffffffffffffff16111561238a57838580955081965050505b8473ffffffffffffffffffffffffffffffffffffffff168673ffffffffffffffffffffffffffffffffffffffff16116123cf576123c8858585612d0e565b905061246c565b8373ffffffffffffffffffffffffffffffffffffffff168673ffffffffffffffffffffffffffffffffffffffff16101561245d576000612410878686612d0e565b9050600061241f878986612dd5565b9050806fffffffffffffffffffffffffffffffff16826fffffffffffffffffffffffffffffffff16106124525780612454565b815b9250505061246b565b612468858584612dd5565b90505b5b95945050505050565b6000806000801985870985870292508281108382030391505060008114156124b057600084116124a457600080fd5b8382049250505061260f565b8084116124bc57600080fd5b60008486880990508281118203915080830392506000600186196124e09190615276565b8616905080860495508084049350600181826000030401905080836125059190614a8e565b841793506000600287600361251a9190614a8e565b18905080876125299190614a8e565b600261253591906154d3565b816125409190614a8e565b9050808761254e9190614a8e565b600261255a91906154d3565b816125659190614a8e565b905080876125739190614a8e565b600261257f91906154d3565b8161258a9190614a8e565b905080876125989190614a8e565b60026125a491906154d3565b816125af9190614a8e565b905080876125bd9190614a8e565b60026125c991906154d3565b816125d49190614a8e565b905080876125e29190614a8e565b60026125ee91906154d3565b816125f99190614a8e565b905080856126079190614a8e565b955050505050505b9392505050565b600080600080612644600c60079054906101000a900460020b600c600a9054906101000a900460020b6118b9565b91509150600080612653612e60565b915091506000807f000000000000000000000000000000000000000000000000000000000000000073ffffffffffffffffffffffffffffffffffffffff166370a08231306040518263ffffffff1660e01b81526004016126b39190613eb6565b602060405180830381865afa1580156126d0573d6000803e3d6000fd5b505050506040513d601f19601f820116820180604052508101906126f491906147e3565b7f000000000000000000000000000000000000000000000000000000000000000073ffffffffffffffffffffffffffffffffffffffff166370a08231306040518263ffffffff1660e01b815260040161274d9190613eb6565b602060405180830381865afa15801561276a573d6000803e3d6000fd5b505050506040513d601f19601f8201168201806040525081019061278e91906147e3565b9150915081848761279f9190615276565b6127a99190615276565b8184876127b69190615276565b6127c09190615276565b975097505050505050509091565b61284f8363a9059cbb60e01b84846040516024016127ed929190614763565b604051602081830303815290604052907bffffffffffffffffffffffffffffffffffffffffffffffffffffffff19166020820180517bffffffffffffffffffffffffffffffffffffffffffffffffffffffff8381831617835250505050613061565b505050565b7f000000000000000000000000000000000000000000000000000000000000000073ffffffffffffffffffffffffffffffffffffffff168373ffffffffffffffffffffffffffffffffffffffff1614156128b7576128b28282613128565b612ae0565b60006001151582151514156129a857600d60008573ffffffffffffffffffffffffffffffffffffffff1673ffffffffffffffffffffffffffffffffffffffff16815260200190815260200160002060009054906101000a900473ffffffffffffffffffffffffffffffffffffffff1673ffffffffffffffffffffffffffffffffffffffff1663db006a75846040518263ffffffff1660e01b815260040161295e9190613dde565b6020604051808303816000875af115801561297d573d6000803e3d6000fd5b505050506040513d601f19601f820116820180604052508101906129a191906147e3565b9050612a86565b600d60008573ffffffffffffffffffffffffffffffffffffffff1673ffffffffffffffffffffffffffffffffffffffff16815260200190815260200160002060009054906101000a900473ffffffffffffffffffffffffffffffffffffffff1673ffffffffffffffffffffffffffffffffffffffff1663852a12e3846040518263ffffffff1660e01b8152600401612a409190613dde565b6020604051808303816000875af1158015612a5f573d6000803e3d6000fd5b505050506040513d601f19601f82011682018060405250810190612a8391906147e3565b90505b60008114612ade57601260019054906101000a900460ff16612add576040517f08c379a0000000000000000000000000000000000000000000000000000000008152600401612ad490615553565b60405180910390fd5b5b505b505050565b600080600080600080612af93089896132fc565b90507f000000000000000000000000000000000000000000000000000000000000000073ffffffffffffffffffffffffffffffffffffffff1663514ea4bf826040518263ffffffff1660e01b8152600401612b54919061558c565b60a060405180830381865afa158015612b71573d6000803e3d6000fd5b505050506040513d601f19601f82011682018060405250810190612b9591906155a7565b95509550955095509550509295509295909350565b60008060007f000000000000000000000000000000000000000000000000000000000000000073ffffffffffffffffffffffffffffffffffffffff16633850c7bd6040518163ffffffff1660e01b815260040160e060405180830381865afa158015612c1a573d6000803e3d6000fd5b505050506040513d601f19601f82011682018060405250810190612c3e91906148b7565b5050505050509050612c6281612c5388611e7b565b612c5c88611e7b565b87613332565b9250925050935093915050565b612c77613424565b612c7f613547565b565b612c8a816135b2565b7f000000000000000000000000000000000000000000000000000000000000000073ffffffffffffffffffffffffffffffffffffffff16631249c58b826040518263ffffffff1660e01b81526004016000604051808303818588803b158015612cf257600080fd5b505af1158015612d06573d6000803e3d6000fd5b505050505050565b60008273ffffffffffffffffffffffffffffffffffffffff168473ffffffffffffffffffffffffffffffffffffffff161115612d4f57828480945081955050505b6000612d958573ffffffffffffffffffffffffffffffffffffffff168573ffffffffffffffffffffffffffffffffffffffff166c01000000000000000000000000612475565b9050612dcb612dc684838888612dab9190615622565b73ffffffffffffffffffffffffffffffffffffffff16612475565b61364a565b9150509392505050565b60008273ffffffffffffffffffffffffffffffffffffffff168473ffffffffffffffffffffffffffffffffffffffff161115612e1657828480945081955050505b612e57612e52836c010000000000000000000000008787612e379190615622565b73ffffffffffffffffffffffffffffffffffffffff16612475565b61364a565b90509392505050565b600080600d60007f000000000000000000000000000000000000000000000000000000000000000073ffffffffffffffffffffffffffffffffffffffff1673ffffffffffffffffffffffffffffffffffffffff16815260200190815260200160002060009054906101000a900473ffffffffffffffffffffffffffffffffffffffff1673ffffffffffffffffffffffffffffffffffffffff16633af9e669306040518263ffffffff1660e01b8152600401612f1b9190613eb6565b6020604051808303816000875af1158015612f3a573d6000803e3d6000fd5b505050506040513d601f19601f82011682018060405250810190612f5e91906147e3565b9150600d60007f000000000000000000000000000000000000000000000000000000000000000073ffffffffffffffffffffffffffffffffffffffff1673ffffffffffffffffffffffffffffffffffffffff16815260200190815260200160002060009054906101000a900473ffffffffffffffffffffffffffffffffffffffff1673ffffffffffffffffffffffffffffffffffffffff16633af9e669306040518263ffffffff1660e01b81526004016130189190613eb6565b6020604051808303816000875af1158015613037573d6000803e3d6000fd5b505050506040513d601f19601f8201168201806040525081019061305b91906147e3565b90509091565b60006130c3826040518060400160405280602081526020017f5361666545524332303a206c6f772d6c6576656c2063616c6c206661696c65648152508573ffffffffffffffffffffffffffffffffffffffff166136729092919063ffffffff16565b905060008151111561312357808060200190518101906130e391906147a1565b613122576040517f08c379a0000000000000000000000000000000000000000000000000000000008152600401613119906156c8565b60405180910390fd5b5b505050565b60006001151582151514156131ed577f000000000000000000000000000000000000000000000000000000000000000073ffffffffffffffffffffffffffffffffffffffff1663db006a75846040518263ffffffff1660e01b81526004016131909190613dde565b6020604051808303816000875af11580156131af573d6000803e3d6000fd5b505050506040513d601f19601f820116820180604052508101906131d391906147e3565b905060008114156131e8576131e74761368a565b5b61329f565b7f000000000000000000000000000000000000000000000000000000000000000073ffffffffffffffffffffffffffffffffffffffff1663852a12e3846040518263ffffffff1660e01b81526004016132469190613dde565b6020604051808303816000875af1158015613265573d6000803e3d6000fd5b505050506040513d601f19601f8201168201806040525081019061328991906147e3565b9050600081141561329e5761329d8361368a565b5b5b600081146132f757601260019054906101000a900460ff166132f6576040517f08c379a00000000000000000000000000000000000000000000000000000000081526004016132ed90615734565b60405180910390fd5b5b505050565b6000838383604051602001613313939291906157d2565b6040516020818303038152906040528051906020012090509392505050565b6000808373ffffffffffffffffffffffffffffffffffffffff168573ffffffffffffffffffffffffffffffffffffffff16111561337457838580955081965050505b8473ffffffffffffffffffffffffffffffffffffffff168673ffffffffffffffffffffffffffffffffffffffff16116133b9576133b2858585613718565b915061341b565b8373ffffffffffffffffffffffffffffffffffffffff168673ffffffffffffffffffffffffffffffffffffffff16101561340c576133f8868585613718565b91506134058587856137de565b905061341a565b6134178585856137de565b90505b5b94509492505050565b6000600c60079054906101000a900460020b60020b14801561345857506000600c600a9054906101000a900460020b60020b145b1561346257613545565b600061348c600c60079054906101000a900460020b600c600a9054906101000a900460020b612ae5565b5050505090506000806000806134c1600c60079054906101000a900460020b600c600a9054906101000a900460020b87613873565b93509350935093506000856fffffffffffffffffffffffffffffffff1611156135095783826134f091906154d3565b600181905550828161350291906154d3565b6002819055505b613531600c60079054906101000a900460020b600c600a9054906101000a900460020b612ae5565b909192509091509050508095505050505050505b565b600080613552613a2a565b915091506135827f0000000000000000000000000000000000000000000000000000000000000000836001612854565b6135ae7f0000000000000000000000000000000000000000000000000000000000000000826001612854565b5050565b6000811115613647577f000000000000000000000000000000000000000000000000000000000000000073ffffffffffffffffffffffffffffffffffffffff16632e1a7d4d826040518263ffffffff1660e01b81526004016136149190613dde565b600060405180830381600087803b15801561362e57600080fd5b505af1158015613642573d6000803e3d6000fd5b505050505b50565b600081829150816fffffffffffffffffffffffffffffffff161461366d57600080fd5b919050565b60606136818484600085613c27565b90509392505050565b6000811115613715577f000000000000000000000000000000000000000000000000000000000000000073ffffffffffffffffffffffffffffffffffffffff1663d0e30db0826040518263ffffffff1660e01b81526004016000604051808303818588803b1580156136fb57600080fd5b505af115801561370f573d6000803e3d6000fd5b50505050505b50565b60008273ffffffffffffffffffffffffffffffffffffffff168473ffffffffffffffffffffffffffffffffffffffff16111561375957828480945081955050505b8373ffffffffffffffffffffffffffffffffffffffff166137cb606060ff16846fffffffffffffffffffffffffffffffff16901b86866137999190615622565b73ffffffffffffffffffffffffffffffffffffffff168673ffffffffffffffffffffffffffffffffffffffff16612475565b6137d591906150c5565b90509392505050565b60008273ffffffffffffffffffffffffffffffffffffffff168473ffffffffffffffffffffffffffffffffffffffff16111561381f57828480945081955050505b61386a826fffffffffffffffffffffffffffffffff1685856138419190615622565b73ffffffffffffffffffffffffffffffffffffffff166c01000000000000000000000000612475565b90509392505050565b6000806000806000856fffffffffffffffffffffffffffffffff16111561393c577f000000000000000000000000000000000000000000000000000000000000000073ffffffffffffffffffffffffffffffffffffffff1663a34123a78888886040518463ffffffff1660e01b81526004016138f193929190614a28565b60408051808303816000875af115801561390f573d6000803e3d6000fd5b505050506040513d601f19601f8201168201806040525081019061393391906149e8565b80945081955050505b7f000000000000000000000000000000000000000000000000000000000000000073ffffffffffffffffffffffffffffffffffffffff16634f1eb3d83089896fffffffffffffffffffffffffffffffff806040518663ffffffff1660e01b81526004016139ad959493929190615162565b60408051808303816000875af11580156139cb573d6000803e3d6000fd5b505050506040513d601f19601f820116820180604052508101906139ef91906151ca565b816fffffffffffffffffffffffffffffffff169150806fffffffffffffffffffffffffffffffff169050809250819350505093509350935093565b600080600d60007f000000000000000000000000000000000000000000000000000000000000000073ffffffffffffffffffffffffffffffffffffffff1673ffffffffffffffffffffffffffffffffffffffff16815260200190815260200160002060009054906101000a900473ffffffffffffffffffffffffffffffffffffffff1673ffffffffffffffffffffffffffffffffffffffff166370a08231306040518263ffffffff1660e01b8152600401613ae59190613eb6565b602060405180830381865afa158015613b02573d6000803e3d6000fd5b505050506040513d601f19601f82011682018060405250810190613b2691906147e3565b9150600d60007f000000000000000000000000000000000000000000000000000000000000000073ffffffffffffffffffffffffffffffffffffffff1673ffffffffffffffffffffffffffffffffffffffff16815260200190815260200160002060009054906101000a900473ffffffffffffffffffffffffffffffffffffffff1673ffffffffffffffffffffffffffffffffffffffff166370a08231306040518263ffffffff1660e01b8152600401613be09190613eb6565b602060405180830381865afa158015613bfd573d6000803e3d6000fd5b505050506040513d601f19601f82011682018060405250810190613c2191906147e3565b90509091565b606082471015613c6c576040517f08c379a0000000000000000000000000000000000000000000000000000000008152600401613c6390615881565b60405180910390fd5b613c7585613d3b565b613cb4576040517f08c379a0000000000000000000000000000000000000000000000000000000008152600401613cab906158ed565b60405180910390fd5b6000808673ffffffffffffffffffffffffffffffffffffffff168587604051613cdd9190615987565b60006040518083038185875af1925050503d8060008114613d1a576040519150601f19603f3d011682016040523d82523d6000602084013e613d1f565b606091505b5091509150613d2f828286613d5e565b92505050949350505050565b6000808273ffffffffffffffffffffffffffffffffffffffff163b119050919050565b60608315613d6e57829050613dbe565b600083511115613d815782518084602001fd5b816040517f08c379a0000000000000000000000000000000000000000000000000000000008152600401613db591906159e2565b60405180910390fd5b9392505050565b6000819050919050565b613dd881613dc5565b82525050565b6000602082019050613df36000830184613dcf565b92915050565b60008115159050919050565b613e0e81613df9565b82525050565b6000602082019050613e296000830184613e05565b92915050565b60006fffffffffffffffffffffffffffffffff82169050919050565b613e5481613e2f565b82525050565b6000602082019050613e6f6000830184613e4b565b92915050565b600073ffffffffffffffffffffffffffffffffffffffff82169050919050565b6000613ea082613e75565b9050919050565b613eb081613e95565b82525050565b6000602082019050613ecb6000830184613ea7565b92915050565b6000819050919050565b6000613ef6613ef1613eec84613e75565b613ed1565b613e75565b9050919050565b6000613f0882613edb565b9050919050565b6000613f1a82613efd565b9050919050565b613f2a81613f0f565b82525050565b6000602082019050613f456000830184613f21565b92915050565b600063ffffffff82169050919050565b613f6481613f4b565b82525050565b6000602082019050613f7f6000830184613f5b565b92915050565b600060ff82169050919050565b613f9b81613f85565b82525050565b6000602082019050613fb66000830184613f92565b92915050565b600060c082019050613fd16000830189613dcf565b613fde6020830188613dcf565b613feb6040830187613dcf565b613ff86060830186613dcf565b6140056080830185613dcf565b61401260a0830184613dcf565b979650505050505050565b6000604051905090565b600080fd5b600080fd5b61403a81613e95565b811461404557600080fd5b50565b60008135905061405781614031565b92915050565b61406681613dc5565b811461407157600080fd5b50565b6000813590506140838161405d565b92915050565b6000806000606084860312156140a2576140a1614027565b5b60006140b086828701614048565b93505060206140c186828701614048565b92505060406140d286828701614074565b9150509250925092565b60008160020b9050919050565b6140f2816140dc565b81146140fd57600080fd5b50565b60008135905061410f816140e9565b92915050565b6000806000806080858703121561412f5761412e614027565b5b600061413d87828801614100565b945050602061414e87828801614100565b935050604061415f87828801614074565b925050606061417087828801614074565b91505092959194509250565b61418581613e2f565b811461419057600080fd5b50565b6000813590506141a28161417c565b92915050565b600080600080608085870312156141c2576141c1614027565b5b60006141d087828801614100565b94505060206141e187828801614193565b93505060406141f287828801614048565b925050606061420387828801614048565b91505092959194509250565b60006020828403121561422557614224614027565b5b600061423384828501614048565b91505092915050565b614245816140dc565b82525050565b6000602082019050614260600083018461423c565b92915050565b60008060006060848603121561427f5761427e614027565b5b600061428d86828701614048565b935050602061429e86828701614074565b92505060406142af86828701614074565b9150509250925092565b60006040820190506142ce6000830185613dcf565b6142db6020830184613dcf565b9392505050565b6142eb81613df9565b81146142f657600080fd5b50565b600081359050614308816142e2565b92915050565b60008060008060008060c0878903121561432b5761432a614027565b5b600061433989828a01614100565b965050602061434a89828a01614100565b955050604061435b89828a01614193565b945050606061436c89828a01614074565b935050608061437d89828a01614074565b92505060a061438e89828a016142f9565b9150509295509295509295565b600062ffffff82169050919050565b6143b38161439b565b82525050565b60006020820190506143ce60008301846143aa565b92915050565b600080604083850312156143eb576143ea614027565b5b60006143f985828601614100565b925050602061440a85828601614100565b9150509250929050565b600061441f82613e75565b9050919050565b61442f81614414565b82525050565b600060208201905061444a6000830184614426565b92915050565b600061445b82613efd565b9050919050565b61446b81614450565b82525050565b60006020820190506144866000830184614462565b92915050565b6000806000606084860312156144a5576144a4614027565b5b60006144b386828701614074565b93505060206144c486828701614074565b92505060406144d586828701614074565b9150509250925092565b60006060820190506144f46000830186613dcf565b6145016020830185613dcf565b61450e6040830184613dcf565b949350505050565b600061452182613efd565b9050919050565b61453181614516565b82525050565b600060208201905061454c6000830184614528565b92915050565b6000806040838503121561456957614568614027565b5b600061457785828601614048565b925050602061458885828601614074565b9150509250929050565b600080fd5b600080fd5b600080fd5b60008083601f8401126145b7576145b6614592565b5b8235905067ffffffffffffffff8111156145d4576145d3614597565b5b6020830191508360018202830111156145f0576145ef61459c565b5b9250929050565b6000806000806060858703121561461157614610614027565b5b600061461f87828801614074565b945050602061463087828801614074565b935050604085013567ffffffffffffffff8111156146515761465061402c565b5b61465d878288016145a1565b925092505092959194509250565b6000819050919050565b61467e8161466b565b811461468957600080fd5b50565b60008135905061469b81614675565b92915050565b600080600080606085870312156146bb576146ba614027565b5b60006146c98782880161468c565b94505060206146da8782880161468c565b935050604085013567ffffffffffffffff8111156146fb576146fa61402c565b5b614707878288016145a1565b925092505092959194509250565b600061472082613edb565b9050919050565b600061473282614715565b9050919050565b61474281614727565b82525050565b600060208201905061475d6000830184614739565b92915050565b60006040820190506147786000830185613ea7565b6147856020830184613dcf565b9392505050565b60008151905061479b816142e2565b92915050565b6000602082840312156147b7576147b6614027565b5b60006147c58482850161478c565b91505092915050565b6000815190506147dd8161405d565b92915050565b6000602082840312156147f9576147f8614027565b5b6000614807848285016147ce565b91505092915050565b61481981613e75565b811461482457600080fd5b50565b60008151905061483681614810565b92915050565b60008151905061484b816140e9565b92915050565b600061ffff82169050919050565b61486881614851565b811461487357600080fd5b50565b6000815190506148858161485f565b92915050565b61489481613f85565b811461489f57600080fd5b50565b6000815190506148b18161488b565b92915050565b600080600080600080600060e0888a0312156148d6576148d5614027565b5b60006148e48a828b01614827565b97505060206148f58a828b0161483c565b96505060406149068a828b01614876565b95505060606149178a828b01614876565b94505060806149288a828b01614876565b93505060a06149398a828b016148a2565b92505060c061494a8a828b0161478c565b91505092959891949750929550565b600082825260208201905092915050565b50565b600061497a600083614959565b91506149858261496a565b600082019050919050565b600060a0820190506149a56000830187613ea7565b6149b2602083018661423c565b6149bf604083018561423c565b6149cc6060830184613e4b565b81810360808301526149dd8161496d565b905095945050505050565b600080604083850312156149ff576149fe614027565b5b6000614a0d858286016147ce565b9250506020614a1e858286016147ce565b9150509250929050565b6000606082019050614a3d600083018661423c565b614a4a602083018561423c565b614a576040830184613e4b565b949350505050565b7f4e487b7100000000000000000000000000000000000000000000000000000000600052601160045260246000fd5b6000614a9982613dc5565b9150614aa483613dc5565b9250817fffffffffffffffffffffffffffffffffffffffffffffffffffffffffffffffff0483118215151615614add57614adc614a5f565b5b828202905092915050565b600082825260208201905092915050565b7f5457415000000000000000000000000000000000000000000000000000000000600082015250565b6000614b2f600483614ae8565b9150614b3a82614af9565b602082019050919050565b60006020820190508181036000830152614b5e81614b22565b9050919050565b7f4e487b7100000000000000000000000000000000000000000000000000000000600052604160045260246000fd5b7f4e487b7100000000000000000000000000000000000000000000000000000000600052603260045260246000fd5b600081519050919050565b600082825260208201905092915050565b6000819050602082019050919050565b614bf881613f4b565b82525050565b6000614c0a8383614bef565b60208301905092915050565b6000602082019050919050565b6000614c2e82614bc3565b614c388185614bce565b9350614c4383614bdf565b8060005b83811015614c74578151614c5b8882614bfe565b9750614c6683614c16565b925050600181019050614c47565b5085935050505092915050565b60006020820190508181036000830152614c9b8184614c23565b905092915050565b6000601f19601f8301169050919050565b614cbd82614ca3565b810181811067ffffffffffffffff82111715614cdc57614cdb614b65565b5b80604052505050565b6000614cef61401d565b9050614cfb8282614cb4565b919050565b600067ffffffffffffffff821115614d1b57614d1a614b65565b5b602082029050602081019050919050565b60008160060b9050919050565b614d4281614d2c565b8114614d4d57600080fd5b50565b600081519050614d5f81614d39565b92915050565b6000614d78614d7384614d00565b614ce5565b90508083825260208201905060208402830185811115614d9b57614d9a61459c565b5b835b81811015614dc45780614db08882614d50565b845260208401935050602081019050614d9d565b5050509392505050565b600082601f830112614de357614de2614592565b5b8151614df3848260208601614d65565b91505092915050565b600067ffffffffffffffff821115614e1757614e16614b65565b5b602082029050602081019050919050565b6000614e3b614e3684614dfc565b614ce5565b90508083825260208201905060208402830185811115614e5e57614e5d61459c565b5b835b81811015614e875780614e738882614827565b845260208401935050602081019050614e60565b5050509392505050565b600082601f830112614ea657614ea5614592565b5b8151614eb6848260208601614e28565b91505092915050565b60008060408385031215614ed657614ed5614027565b5b600083015167ffffffffffffffff811115614ef457614ef361402c565b5b614f0085828601614dce565b925050602083015167ffffffffffffffff811115614f2157614f2061402c565b5b614f2d85828601614e91565b9150509250929050565b6000614f4282614d2c565b9150614f4d83614d2c565b9250827fffffffffffffffffffffffffffffffffffffffffffffffffff8000000000000001821260008412151615614f8857614f87614a5f565b5b82667fffffffffffff018213600084121615614fa757614fa6614a5f565b5b828203905092915050565b7f4e487b7100000000000000000000000000000000000000000000000000000000600052601260045260246000fd5b6000614fec82614d2c565b9150614ff783614d2c565b92508261500757615006614fb2565b5b600160000383147fffffffffffffffffffffffffffffffffffffffffffffffffff80000000000000831416156150405761503f614a5f565b5b828205905092915050565b600061505682614d2c565b915061506183614d2c565b92508261507157615070614fb2565b5b828207905092915050565b6000615087826140dc565b91507fffffffffffffffffffffffffffffffffffffffffffffffffffffffffff8000008214156150ba576150b9614a5f565b5b600182039050919050565b60006150d082613dc5565b91506150db83613dc5565b9250826150eb576150ea614fb2565b5b828204905092915050565b7f61646d696e000000000000000000000000000000000000000000000000000000600082015250565b600061512c600583614ae8565b9150615137826150f6565b602082019050919050565b6000602082019050818103600083015261515b8161511f565b9050919050565b600060a0820190506151776000830188613ea7565b615184602083018761423c565b615191604083018661423c565b61519e6060830185613e4b565b6151ab6080830184613e4b565b9695505050505050565b6000815190506151c48161417c565b92915050565b600080604083850312156151e1576151e0614027565b5b60006151ef858286016151b5565b9250506020615200858286016151b5565b9150509250929050565b7f5000000000000000000000000000000000000000000000000000000000000000600082015250565b6000615240600183614ae8565b915061524b8261520a565b602082019050919050565b6000602082019050818103600083015261526f81615233565b9050919050565b600061528182613dc5565b915061528c83613dc5565b9250827fffffffffffffffffffffffffffffffffffffffffffffffffffffffffffffffff038211156152c1576152c0614a5f565b5b828201905092915050565b7f5053000000000000000000000000000000000000000000000000000000000000600082015250565b6000615302600283614ae8565b915061530d826152cc565b602082019050919050565b60006020820190508181036000830152615331816152f5565b9050919050565b7f5053320000000000000000000000000000000000000000000000000000000000600082015250565b600061536e600383614ae8565b915061537982615338565b602082019050919050565b6000602082019050818103600083015261539d81615361565b9050919050565b60006153af8261466b565b91507f80000000000000000000000000000000000000000000000000000000000000008214156153e2576153e1614a5f565b5b816000039050919050565b60006153f8826140dc565b91507fffffffffffffffffffffffffffffffffffffffffffffffffffffffffff80000082141561542b5761542a614a5f565b5b816000039050919050565b7f5400000000000000000000000000000000000000000000000000000000000000600082015250565b600061546c600183614ae8565b915061547782615436565b602082019050919050565b6000602082019050818103600083015261549b8161545f565b9050919050565b60006154ad82613dc5565b91506154b883613dc5565b9250826154c8576154c7614fb2565b5b828206905092915050565b60006154de82613dc5565b91506154e983613dc5565b9250828210156154fc576154fb614a5f565b5b828203905092915050565b7f4374000000000000000000000000000000000000000000000000000000000000600082015250565b600061553d600283614ae8565b915061554882615507565b602082019050919050565b6000602082019050818103600083015261556c81615530565b9050919050565b6000819050919050565b61558681615573565b82525050565b60006020820190506155a1600083018461557d565b92915050565b600080600080600060a086880312156155c3576155c2614027565b5b60006155d1888289016151b5565b95505060206155e2888289016147ce565b94505060406155f3888289016147ce565b9350506060615604888289016151b5565b9250506080615615888289016151b5565b9150509295509295909350565b600061562d82613e75565b915061563883613e75565b92508282101561564b5761564a614a5f565b5b828203905092915050565b7f5361666545524332303a204552433230206f7065726174696f6e20646964206e60008201527f6f74207375636365656400000000000000000000000000000000000000000000602082015250565b60006156b2602a83614ae8565b91506156bd82615656565b604082019050919050565b600060208201905081810360008301526156e1816156a5565b9050919050565b7f43657468206e6f74203000000000000000000000000000000000000000000000600082015250565b600061571e600a83614ae8565b9150615729826156e8565b602082019050919050565b6000602082019050818103600083015261574d81615711565b9050919050565b60008160601b9050919050565b600061576c82615754565b9050919050565b600061577e82615761565b9050919050565b61579661579182613e95565b615773565b82525050565b60008160e81b9050919050565b60006157b48261579c565b9050919050565b6157cc6157c7826140dc565b6157a9565b82525050565b60006157de8286615785565b6014820191506157ee82856157bb565b6003820191506157fe82846157bb565b600382019150819050949350505050565b7f416464726573733a20696e73756666696369656e742062616c616e636520666f60008201527f722063616c6c0000000000000000000000000000000000000000000000000000602082015250565b600061586b602683614ae8565b91506158768261580f565b604082019050919050565b6000602082019050818103600083015261589a8161585e565b9050919050565b7f416464726573733a2063616c6c20746f206e6f6e2d636f6e7472616374000000600082015250565b60006158d7601d83614ae8565b91506158e2826158a1565b602082019050919050565b60006020820190508181036000830152615906816158ca565b9050919050565b600081519050919050565b600081905092915050565b60005b83811015615941578082015181840152602081019050615926565b83811115615950576000848401525b50505050565b60006159618261590d565b61596b8185615918565b935061597b818560208601615923565b80840191505092915050565b60006159938284615956565b915081905092915050565b600081519050919050565b60006159b48261599e565b6159be8185614ae8565b93506159ce818560208601615923565b6159d781614ca3565b840191505092915050565b600060208201905081810360008301526159fc81846159a9565b90509291505056fea2646970667358221220c9e9beb4da9ccd59c0d368ad804097d3142a0fcf7ff710379b526171042c5f9764736f6c634300080a0033",
			"opcodes": "PUSH2 0x240 PUSH1 0x40 MSTORE PUSH1 0x0 PUSH1 0x12 PUSH1 0x0 PUSH2 0x100 EXP DUP2 SLOAD DUP2 PUSH1 0xFF MUL NOT AND SWAP1 DUP4 ISZERO ISZERO MUL OR SWAP1 SSTORE POP PUSH1 0x0 PUSH1 0x12 PUSH1 0x1 PUSH2 0x100 EXP DUP2 SLOAD DUP2 PUSH1 0xFF MUL NOT AND SWAP1 DUP4 ISZERO ISZERO MUL OR SWAP1 SSTORE POP CALLVALUE DUP1 ISZERO PUSH3 0x48 JUMPI PUSH1 0x0 DUP1 REVERT JUMPDEST POP PUSH1 0x40 MLOAD PUSH3 0x6C0D CODESIZE SUB DUP1 PUSH3 0x6C0D DUP4 CODECOPY DUP2 DUP2 ADD PUSH1 0x40 MSTORE DUP2 ADD SWAP1 PUSH3 0x6E SWAP2 SWAP1 PUSH3 0xC6E JUMP JUMPDEST PUSH1 0x1 PUSH1 0x0 DUP2 SWAP1 SSTORE POP CALLER PUSH20 0xFFFFFFFFFFFFFFFFFFFFFFFFFFFFFFFFFFFFFFFF AND PUSH1 0x80 DUP2 PUSH20 0xFFFFFFFFFFFFFFFFFFFFFFFFFFFFFFFFFFFFFFFF AND DUP2 MSTORE POP POP DUP9 PUSH20 0xFFFFFFFFFFFFFFFFFFFFFFFFFFFFFFFFFFFFFFFF AND PUSH1 0xA0 DUP2 PUSH20 0xFFFFFFFFFFFFFFFFFFFFFFFFFFFFFFFFFFFFFFFF AND DUP2 MSTORE POP POP DUP10 PUSH20 0xFFFFFFFFFFFFFFFFFFFFFFFFFFFFFFFFFFFFFFFF AND PUSH1 0xC0 DUP2 PUSH20 0xFFFFFFFFFFFFFFFFFFFFFFFFFFFFFFFFFFFFFFFF AND DUP2 MSTORE POP POP DUP2 PUSH20 0xFFFFFFFFFFFFFFFFFFFFFFFFFFFFFFFFFFFFFFFF AND PUSH1 0xE0 DUP2 PUSH20 0xFFFFFFFFFFFFFFFFFFFFFFFFFFFFFFFFFFFFFFFF AND DUP2 MSTORE POP POP DUP2 PUSH1 0xB PUSH1 0x0 PUSH2 0x100 EXP DUP2 SLOAD DUP2 PUSH20 0xFFFFFFFFFFFFFFFFFFFFFFFFFFFFFFFFFFFFFFFF MUL NOT AND SWAP1 DUP4 PUSH20 0xFFFFFFFFFFFFFFFFFFFFFFFFFFFFFFFFFFFFFFFF AND MUL OR SWAP1 SSTORE POP DUP8 PUSH20 0xFFFFFFFFFFFFFFFFFFFFFFFFFFFFFFFFFFFFFFFF AND PUSH2 0x120 DUP2 PUSH20 0xFFFFFFFFFFFFFFFFFFFFFFFFFFFFFFFFFFFFFFFF AND DUP2 MSTORE POP POP PUSH1 0xA0 MLOAD PUSH20 0xFFFFFFFFFFFFFFFFFFFFFFFFFFFFFFFFFFFFFFFF AND PUSH4 0x1698EE82 DUP9 DUP9 DUP5 PUSH2 0x120 ADD MLOAD PUSH1 0x40 MLOAD DUP5 PUSH4 0xFFFFFFFF AND PUSH1 0xE0 SHL DUP2 MSTORE PUSH1 0x4 ADD PUSH3 0x202 SWAP4 SWAP3 SWAP2 SWAP1 PUSH3 0xD86 JUMP JUMPDEST PUSH1 0x20 PUSH1 0x40 MLOAD DUP1 DUP4 SUB DUP2 DUP7 GAS STATICCALL ISZERO DUP1 ISZERO PUSH3 0x220 JUMPI RETURNDATASIZE PUSH1 0x0 DUP1 RETURNDATACOPY RETURNDATASIZE PUSH1 0x0 REVERT JUMPDEST POP POP POP POP PUSH1 0x40 MLOAD RETURNDATASIZE PUSH1 0x1F NOT PUSH1 0x1F DUP3 ADD AND DUP3 ADD DUP1 PUSH1 0x40 MSTORE POP DUP2 ADD SWAP1 PUSH3 0x246 SWAP2 SWAP1 PUSH3 0xDC3 JUMP JUMPDEST PUSH20 0xFFFFFFFFFFFFFFFFFFFFFFFFFFFFFFFFFFFFFFFF AND PUSH2 0x180 DUP2 PUSH20 0xFFFFFFFFFFFFFFFFFFFFFFFFFFFFFFFFFFFFFFFF AND DUP2 MSTORE POP POP PUSH2 0x180 MLOAD PUSH20 0xFFFFFFFFFFFFFFFFFFFFFFFFFFFFFFFFFFFFFFFF AND PUSH4 0xD0C93A7C PUSH1 0x40 MLOAD DUP2 PUSH4 0xFFFFFFFF AND PUSH1 0xE0 SHL DUP2 MSTORE PUSH1 0x4 ADD PUSH1 0x20 PUSH1 0x40 MLOAD DUP1 DUP4 SUB DUP2 DUP7 GAS STATICCALL ISZERO DUP1 ISZERO PUSH3 0x2C9 JUMPI RETURNDATASIZE PUSH1 0x0 DUP1 RETURNDATACOPY RETURNDATASIZE PUSH1 0x0 REVERT JUMPDEST POP POP POP POP PUSH1 0x40 MLOAD RETURNDATASIZE PUSH1 0x1F NOT PUSH1 0x1F DUP3 ADD AND DUP3 ADD DUP1 PUSH1 0x40 MSTORE POP DUP2 ADD SWAP1 PUSH3 0x2EF SWAP2 SWAP1 PUSH3 0xDF5 JUMP JUMPDEST PUSH1 0xC PUSH1 0x4 PUSH2 0x100 EXP DUP2 SLOAD DUP2 PUSH3 0xFFFFFF MUL NOT AND SWAP1 DUP4 PUSH1 0x2 SIGNEXTEND PUSH3 0xFFFFFF AND MUL OR SWAP1 SSTORE POP DUP7 PUSH20 0xFFFFFFFFFFFFFFFFFFFFFFFFFFFFFFFFFFFFFFFF AND PUSH2 0x140 DUP2 PUSH20 0xFFFFFFFFFFFFFFFFFFFFFFFFFFFFFFFFFFFFFFFF AND DUP2 MSTORE POP POP DUP6 PUSH20 0xFFFFFFFFFFFFFFFFFFFFFFFFFFFFFFFFFFFFFFFF AND PUSH2 0x160 DUP2 PUSH20 0xFFFFFFFFFFFFFFFFFFFFFFFFFFFFFFFFFFFFFFFF AND DUP2 MSTORE POP POP DUP1 PUSH1 0x60 ADD MLOAD PUSH1 0xB PUSH1 0x14 PUSH2 0x100 EXP DUP2 SLOAD DUP2 PUSH1 0xFF MUL NOT AND SWAP1 DUP4 PUSH1 0xFF AND MUL OR SWAP1 SSTORE POP DUP1 PUSH1 0x80 ADD MLOAD PUSH1 0xB PUSH1 0x15 PUSH2 0x100 EXP DUP2 SLOAD DUP2 PUSH1 0xFF MUL NOT AND SWAP1 DUP4 PUSH1 0xFF AND MUL OR SWAP1 SSTORE POP DUP1 PUSH2 0x120 ADD MLOAD PUSH3 0xFFFFFF AND PUSH2 0x1E0 DUP2 PUSH3 0xFFFFFF AND DUP2 MSTORE POP POP DUP1 PUSH2 0x160 ADD MLOAD PUSH1 0xB PUSH1 0x1C PUSH2 0x100 EXP DUP2 SLOAD DUP2 PUSH4 0xFFFFFFFF MUL NOT AND SWAP1 DUP4 PUSH4 0xFFFFFFFF AND MUL OR SWAP1 SSTORE POP DUP1 PUSH2 0x140 ADD MLOAD PUSH1 0xC PUSH1 0xD PUSH2 0x100 EXP DUP2 SLOAD DUP2 PUSH3 0xFFFFFF MUL NOT AND SWAP1 DUP4 PUSH1 0x2 SIGNEXTEND PUSH3 0xFFFFFF AND MUL OR SWAP1 SSTORE POP DUP1 PUSH1 0x40 ADD MLOAD PUSH16 0xFFFFFFFFFFFFFFFFFFFFFFFFFFFFFFFF AND PUSH2 0x1C0 DUP2 PUSH16 0xFFFFFFFFFFFFFFFFFFFFFFFFFFFFFFFF AND DUP2 MSTORE POP POP PUSH1 0x64 DUP2 PUSH1 0xC0 ADD MLOAD DUP3 PUSH1 0xA0 ADD MLOAD PUSH3 0x466 SWAP2 SWAP1 PUSH3 0xE56 JUMP JUMPDEST PUSH1 0xFF AND GT ISZERO PUSH3 0x4AD JUMPI PUSH1 0x40 MLOAD PUSH32 0x8C379A000000000000000000000000000000000000000000000000000000000 DUP2 MSTORE PUSH1 0x4 ADD PUSH3 0x4A4 SWAP1 PUSH3 0xEF5 JUMP JUMPDEST PUSH1 0x40 MLOAD DUP1 SWAP2 SUB SWAP1 REVERT JUMPDEST DUP1 PUSH1 0xA0 ADD MLOAD PUSH1 0xB PUSH1 0x16 PUSH2 0x100 EXP DUP2 SLOAD DUP2 PUSH1 0xFF MUL NOT AND SWAP1 DUP4 PUSH1 0xFF AND MUL OR SWAP1 SSTORE POP DUP1 PUSH1 0xC0 ADD MLOAD PUSH1 0xB PUSH1 0x17 PUSH2 0x100 EXP DUP2 SLOAD DUP2 PUSH1 0xFF MUL NOT AND SWAP1 DUP4 PUSH1 0xFF AND MUL OR SWAP1 SSTORE POP PUSH2 0x120 MLOAD PUSH20 0xFFFFFFFFFFFFFFFFFFFFFFFFFFFFFFFFFFFFFFFF AND PUSH2 0x200 DUP2 PUSH20 0xFFFFFFFFFFFFFFFFFFFFFFFFFFFFFFFFFFFFFFFF AND DUP2 MSTORE POP POP DUP3 PUSH20 0xFFFFFFFFFFFFFFFFFFFFFFFFFFFFFFFFFFFFFFFF AND PUSH2 0x220 DUP2 PUSH20 0xFFFFFFFFFFFFFFFFFFFFFFFFFFFFFFFFFFFFFFFF AND DUP2 MSTORE POP POP DUP5 PUSH1 0xD PUSH1 0x0 DUP10 PUSH20 0xFFFFFFFFFFFFFFFFFFFFFFFFFFFFFFFFFFFFFFFF AND PUSH20 0xFFFFFFFFFFFFFFFFFFFFFFFFFFFFFFFFFFFFFFFF AND DUP2 MSTORE PUSH1 0x20 ADD SWAP1 DUP2 MSTORE PUSH1 0x20 ADD PUSH1 0x0 KECCAK256 PUSH1 0x0 PUSH2 0x100 EXP DUP2 SLOAD DUP2 PUSH20 0xFFFFFFFFFFFFFFFFFFFFFFFFFFFFFFFFFFFFFFFF MUL NOT AND SWAP1 DUP4 PUSH20 0xFFFFFFFFFFFFFFFFFFFFFFFFFFFFFFFFFFFFFFFF AND MUL OR SWAP1 SSTORE POP DUP4 PUSH1 0xD PUSH1 0x0 DUP9 PUSH20 0xFFFFFFFFFFFFFFFFFFFFFFFFFFFFFFFFFFFFFFFF AND PUSH20 0xFFFFFFFFFFFFFFFFFFFFFFFFFFFFFFFFFFFFFFFF AND DUP2 MSTORE PUSH1 0x20 ADD SWAP1 DUP2 MSTORE PUSH1 0x20 ADD PUSH1 0x0 KECCAK256 PUSH1 0x0 PUSH2 0x100 EXP DUP2 SLOAD DUP2 PUSH20 0xFFFFFFFFFFFFFFFFFFFFFFFFFFFFFFFFFFFFFFFF MUL NOT AND SWAP1 DUP4 PUSH20 0xFFFFFFFFFFFFFFFFFFFFFFFFFFFFFFFFFFFFFFFF AND MUL OR SWAP1 SSTORE POP PUSH2 0x120 MLOAD PUSH20 0xFFFFFFFFFFFFFFFFFFFFFFFFFFFFFFFFFFFFFFFF AND DUP5 PUSH20 0xFFFFFFFFFFFFFFFFFFFFFFFFFFFFFFFFFFFFFFFF AND EQ ISZERO PUSH3 0x6C9 JUMPI PUSH1 0x40 MLOAD PUSH32 0x8C379A000000000000000000000000000000000000000000000000000000000 DUP2 MSTORE PUSH1 0x4 ADD PUSH3 0x6C0 SWAP1 PUSH3 0xF67 JUMP JUMPDEST PUSH1 0x40 MLOAD DUP1 SWAP2 SUB SWAP1 REVERT JUMPDEST DUP1 PUSH1 0xE0 ADD MLOAD PUSH1 0xB PUSH1 0x18 PUSH2 0x100 EXP DUP2 SLOAD DUP2 PUSH1 0xFF MUL NOT AND SWAP1 DUP4 PUSH1 0xFF AND MUL OR SWAP1 SSTORE POP DUP1 PUSH2 0x100 ADD MLOAD PUSH1 0xB PUSH1 0x19 PUSH2 0x100 EXP DUP2 SLOAD DUP2 PUSH1 0xFF MUL NOT AND SWAP1 DUP4 PUSH1 0xFF AND MUL OR SWAP1 SSTORE POP DUP1 PUSH2 0x180 ADD MLOAD PUSH1 0xC PUSH1 0x0 PUSH2 0x100 EXP DUP2 SLOAD DUP2 PUSH4 0xFFFFFFFF MUL NOT AND SWAP1 DUP4 PUSH4 0xFFFFFFFF AND MUL OR SWAP1 SSTORE POP PUSH1 0xC0 MLOAD PUSH20 0xFFFFFFFFFFFFFFFFFFFFFFFFFFFFFFFFFFFFFFFF AND PUSH4 0x10BDBA0F PUSH1 0x80 MLOAD DUP10 DUP10 DUP6 PUSH1 0x0 ADD MLOAD DUP7 PUSH1 0x20 ADD MLOAD PUSH1 0x40 MLOAD DUP7 PUSH4 0xFFFFFFFF AND PUSH1 0xE0 SHL DUP2 MSTORE PUSH1 0x4 ADD PUSH3 0x77D SWAP6 SWAP5 SWAP4 SWAP3 SWAP2 SWAP1 PUSH3 0xF9A JUMP JUMPDEST PUSH1 0x20 PUSH1 0x40 MLOAD DUP1 DUP4 SUB DUP2 PUSH1 0x0 DUP8 GAS CALL ISZERO DUP1 ISZERO PUSH3 0x79D JUMPI RETURNDATASIZE PUSH1 0x0 DUP1 RETURNDATACOPY RETURNDATASIZE PUSH1 0x0 REVERT JUMPDEST POP POP POP POP PUSH1 0x40 MLOAD RETURNDATASIZE PUSH1 0x1F NOT PUSH1 0x1F DUP3 ADD AND DUP3 ADD DUP1 PUSH1 0x40 MSTORE POP DUP2 ADD SWAP1 PUSH3 0x7C3 SWAP2 SWAP1 PUSH3 0xDC3 JUMP JUMPDEST PUSH20 0xFFFFFFFFFFFFFFFFFFFFFFFFFFFFFFFFFFFFFFFF AND PUSH2 0x100 DUP2 PUSH20 0xFFFFFFFFFFFFFFFFFFFFFFFFFFFFFFFFFFFFFFFF AND DUP2 MSTORE POP POP PUSH2 0x100 MLOAD PUSH20 0xFFFFFFFFFFFFFFFFFFFFFFFFFFFFFFFFFFFFFFFF AND PUSH2 0x1A0 DUP2 PUSH20 0xFFFFFFFFFFFFFFFFFFFFFFFFFFFFFFFFFFFFFFFF AND DUP2 MSTORE POP POP POP POP POP POP POP POP POP POP POP POP PUSH3 0xFF7 JUMP JUMPDEST PUSH1 0x0 PUSH1 0x40 MLOAD SWAP1 POP SWAP1 JUMP JUMPDEST PUSH1 0x0 DUP1 REVERT JUMPDEST PUSH1 0x0 PUSH20 0xFFFFFFFFFFFFFFFFFFFFFFFFFFFFFFFFFFFFFFFF DUP3 AND SWAP1 POP SWAP2 SWAP1 POP JUMP JUMPDEST PUSH1 0x0 PUSH3 0x87B DUP3 PUSH3 0x84E JUMP JUMPDEST SWAP1 POP SWAP2 SWAP1 POP JUMP JUMPDEST PUSH3 0x88D DUP2 PUSH3 0x86E JUMP JUMPDEST DUP2 EQ PUSH3 0x899 JUMPI PUSH1 0x0 DUP1 REVERT JUMPDEST POP JUMP JUMPDEST PUSH1 0x0 DUP2 MLOAD SWAP1 POP PUSH3 0x8AD DUP2 PUSH3 0x882 JUMP JUMPDEST SWAP3 SWAP2 POP POP JUMP JUMPDEST PUSH1 0x0 PUSH3 0x8C0 DUP3 PUSH3 0x84E JUMP JUMPDEST SWAP1 POP SWAP2 SWAP1 POP JUMP JUMPDEST PUSH3 0x8D2 DUP2 PUSH3 0x8B3 JUMP JUMPDEST DUP2 EQ PUSH3 0x8DE JUMPI PUSH1 0x0 DUP1 REVERT JUMPDEST POP JUMP JUMPDEST PUSH1 0x0 DUP2 MLOAD SWAP1 POP PUSH3 0x8F2 DUP2 PUSH3 0x8C7 JUMP JUMPDEST SWAP3 SWAP2 POP POP JUMP JUMPDEST PUSH1 0x0 DUP1 REVERT JUMPDEST PUSH1 0x0 PUSH1 0x1F NOT PUSH1 0x1F DUP4 ADD AND SWAP1 POP SWAP2 SWAP1 POP JUMP JUMPDEST PUSH32 0x4E487B7100000000000000000000000000000000000000000000000000000000 PUSH1 0x0 MSTORE PUSH1 0x41 PUSH1 0x4 MSTORE PUSH1 0x24 PUSH1 0x0 REVERT JUMPDEST PUSH3 0x948 DUP3 PUSH3 0x8FD JUMP JUMPDEST DUP2 ADD DUP2 DUP2 LT PUSH8 0xFFFFFFFFFFFFFFFF DUP3 GT OR ISZERO PUSH3 0x96A JUMPI PUSH3 0x969 PUSH3 0x90E JUMP JUMPDEST JUMPDEST DUP1 PUSH1 0x40 MSTORE POP POP POP JUMP JUMPDEST PUSH1 0x0 PUSH3 0x97F PUSH3 0x83F JUMP JUMPDEST SWAP1 POP PUSH3 0x98D DUP3 DUP3 PUSH3 0x93D JUMP JUMPDEST SWAP2 SWAP1 POP JUMP JUMPDEST PUSH1 0x0 DUP2 SWAP1 POP SWAP2 SWAP1 POP JUMP JUMPDEST PUSH3 0x9A7 DUP2 PUSH3 0x992 JUMP JUMPDEST DUP2 EQ PUSH3 0x9B3 JUMPI PUSH1 0x0 DUP1 REVERT JUMPDEST POP JUMP JUMPDEST PUSH1 0x0 DUP2 MLOAD SWAP1 POP PUSH3 0x9C7 DUP2 PUSH3 0x99C JUMP JUMPDEST SWAP3 SWAP2 POP POP JUMP JUMPDEST PUSH1 0x0 PUSH16 0xFFFFFFFFFFFFFFFFFFFFFFFFFFFFFFFF DUP3 AND SWAP1 POP SWAP2 SWAP1 POP JUMP JUMPDEST PUSH3 0x9F4 DUP2 PUSH3 0x9CD JUMP JUMPDEST DUP2 EQ PUSH3 0xA00 JUMPI PUSH1 0x0 DUP1 REVERT JUMPDEST POP JUMP JUMPDEST PUSH1 0x0 DUP2 MLOAD SWAP1 POP PUSH3 0xA14 DUP2 PUSH3 0x9E9 JUMP JUMPDEST SWAP3 SWAP2 POP POP JUMP JUMPDEST PUSH1 0x0 PUSH1 0xFF DUP3 AND SWAP1 POP SWAP2 SWAP1 POP JUMP JUMPDEST PUSH3 0xA32 DUP2 PUSH3 0xA1A JUMP JUMPDEST DUP2 EQ PUSH3 0xA3E JUMPI PUSH1 0x0 DUP1 REVERT JUMPDEST POP JUMP JUMPDEST PUSH1 0x0 DUP2 MLOAD SWAP1 POP PUSH3 0xA52 DUP2 PUSH3 0xA27 JUMP JUMPDEST SWAP3 SWAP2 POP POP JUMP JUMPDEST PUSH1 0x0 PUSH3 0xFFFFFF DUP3 AND SWAP1 POP SWAP2 SWAP1 POP JUMP JUMPDEST PUSH3 0xA72 DUP2 PUSH3 0xA58 JUMP JUMPDEST DUP2 EQ PUSH3 0xA7E JUMPI PUSH1 0x0 DUP1 REVERT JUMPDEST POP JUMP JUMPDEST PUSH1 0x0 DUP2 MLOAD SWAP1 POP PUSH3 0xA92 DUP2 PUSH3 0xA67 JUMP JUMPDEST SWAP3 SWAP2 POP POP JUMP JUMPDEST PUSH1 0x0 DUP2 PUSH1 0x2 SIGNEXTEND SWAP1 POP SWAP2 SWAP1 POP JUMP JUMPDEST PUSH3 0xAB0 DUP2 PUSH3 0xA98 JUMP JUMPDEST DUP2 EQ PUSH3 0xABC JUMPI PUSH1 0x0 DUP1 REVERT JUMPDEST POP JUMP JUMPDEST PUSH1 0x0 DUP2 MLOAD SWAP1 POP PUSH3 0xAD0 DUP2 PUSH3 0xAA5 JUMP JUMPDEST SWAP3 SWAP2 POP POP JUMP JUMPDEST PUSH1 0x0 PUSH4 0xFFFFFFFF DUP3 AND SWAP1 POP SWAP2 SWAP1 POP JUMP JUMPDEST PUSH3 0xAF1 DUP2 PUSH3 0xAD6 JUMP JUMPDEST DUP2 EQ PUSH3 0xAFD JUMPI PUSH1 0x0 DUP1 REVERT JUMPDEST POP JUMP JUMPDEST PUSH1 0x0 DUP2 MLOAD SWAP1 POP PUSH3 0xB11 DUP2 PUSH3 0xAE6 JUMP JUMPDEST SWAP3 SWAP2 POP POP JUMP JUMPDEST PUSH1 0x0 PUSH2 0x1A0 DUP3 DUP5 SUB SLT ISZERO PUSH3 0xB31 JUMPI PUSH3 0xB30 PUSH3 0x8F8 JUMP JUMPDEST JUMPDEST PUSH3 0xB3E PUSH2 0x1A0 PUSH3 0x973 JUMP JUMPDEST SWAP1 POP PUSH1 0x0 PUSH3 0xB50 DUP5 DUP3 DUP6 ADD PUSH3 0x9B6 JUMP JUMPDEST PUSH1 0x0 DUP4 ADD MSTORE POP PUSH1 0x20 PUSH3 0xB66 DUP5 DUP3 DUP6 ADD PUSH3 0x9B6 JUMP JUMPDEST PUSH1 0x20 DUP4 ADD MSTORE POP PUSH1 0x40 PUSH3 0xB7C DUP5 DUP3 DUP6 ADD PUSH3 0xA03 JUMP JUMPDEST PUSH1 0x40 DUP4 ADD MSTORE POP PUSH1 0x60 PUSH3 0xB92 DUP5 DUP3 DUP6 ADD PUSH3 0xA41 JUMP JUMPDEST PUSH1 0x60 DUP4 ADD MSTORE POP PUSH1 0x80 PUSH3 0xBA8 DUP5 DUP3 DUP6 ADD PUSH3 0xA41 JUMP JUMPDEST PUSH1 0x80 DUP4 ADD MSTORE POP PUSH1 0xA0 PUSH3 0xBBE DUP5 DUP3 DUP6 ADD PUSH3 0xA41 JUMP JUMPDEST PUSH1 0xA0 DUP4 ADD MSTORE POP PUSH1 0xC0 PUSH3 0xBD4 DUP5 DUP3 DUP6 ADD PUSH3 0xA41 JUMP JUMPDEST PUSH1 0xC0 DUP4 ADD MSTORE POP PUSH1 0xE0 PUSH3 0xBEA DUP5 DUP3 DUP6 ADD PUSH3 0xA41 JUMP JUMPDEST PUSH1 0xE0 DUP4 ADD MSTORE POP PUSH2 0x100 PUSH3 0xC01 DUP5 DUP3 DUP6 ADD PUSH3 0xA41 JUMP JUMPDEST PUSH2 0x100 DUP4 ADD MSTORE POP PUSH2 0x120 PUSH3 0xC19 DUP5 DUP3 DUP6 ADD PUSH3 0xA81 JUMP JUMPDEST PUSH2 0x120 DUP4 ADD MSTORE POP PUSH2 0x140 PUSH3 0xC31 DUP5 DUP3 DUP6 ADD PUSH3 0xABF JUMP JUMPDEST PUSH2 0x140 DUP4 ADD MSTORE POP PUSH2 0x160 PUSH3 0xC49 DUP5 DUP3 DUP6 ADD PUSH3 0xB00 JUMP JUMPDEST PUSH2 0x160 DUP4 ADD MSTORE POP PUSH2 0x180 PUSH3 0xC61 DUP5 DUP3 DUP6 ADD PUSH3 0xB00 JUMP JUMPDEST PUSH2 0x180 DUP4 ADD MSTORE POP SWAP3 SWAP2 POP POP JUMP JUMPDEST PUSH1 0x0 DUP1 PUSH1 0x0 DUP1 PUSH1 0x0 DUP1 PUSH1 0x0 DUP1 PUSH1 0x0 DUP1 PUSH2 0x2C0 DUP12 DUP14 SUB SLT ISZERO PUSH3 0xC95 JUMPI PUSH3 0xC94 PUSH3 0x849 JUMP JUMPDEST JUMPDEST PUSH1 0x0 PUSH3 0xCA5 DUP14 DUP3 DUP15 ADD PUSH3 0x89C JUMP JUMPDEST SWAP11 POP POP PUSH1 0x20 PUSH3 0xCB8 DUP14 DUP3 DUP15 ADD PUSH3 0x89C JUMP JUMPDEST SWAP10 POP POP PUSH1 0x40 PUSH3 0xCCB DUP14 DUP3 DUP15 ADD PUSH3 0x8E1 JUMP JUMPDEST SWAP9 POP POP PUSH1 0x60 PUSH3 0xCDE DUP14 DUP3 DUP15 ADD PUSH3 0x89C JUMP JUMPDEST SWAP8 POP POP PUSH1 0x80 PUSH3 0xCF1 DUP14 DUP3 DUP15 ADD PUSH3 0x89C JUMP JUMPDEST SWAP7 POP POP PUSH1 0xA0 PUSH3 0xD04 DUP14 DUP3 DUP15 ADD PUSH3 0x89C JUMP JUMPDEST SWAP6 POP POP PUSH1 0xC0 PUSH3 0xD17 DUP14 DUP3 DUP15 ADD PUSH3 0x89C JUMP JUMPDEST SWAP5 POP POP PUSH1 0xE0 PUSH3 0xD2A DUP14 DUP3 DUP15 ADD PUSH3 0x89C JUMP JUMPDEST SWAP4 POP POP PUSH2 0x100 PUSH3 0xD3E DUP14 DUP3 DUP15 ADD PUSH3 0x89C JUMP JUMPDEST SWAP3 POP POP PUSH2 0x120 PUSH3 0xD52 DUP14 DUP3 DUP15 ADD PUSH3 0xB17 JUMP JUMPDEST SWAP2 POP POP SWAP3 SWAP6 SWAP9 SWAP12 SWAP2 SWAP5 SWAP8 SWAP11 POP SWAP3 SWAP6 SWAP9 POP JUMP JUMPDEST PUSH3 0xD6F DUP2 PUSH3 0x86E JUMP JUMPDEST DUP3 MSTORE POP POP JUMP JUMPDEST PUSH3 0xD80 DUP2 PUSH3 0xA58 JUMP JUMPDEST DUP3 MSTORE POP POP JUMP JUMPDEST PUSH1 0x0 PUSH1 0x60 DUP3 ADD SWAP1 POP PUSH3 0xD9D PUSH1 0x0 DUP4 ADD DUP7 PUSH3 0xD64 JUMP JUMPDEST PUSH3 0xDAC PUSH1 0x20 DUP4 ADD DUP6 PUSH3 0xD64 JUMP JUMPDEST PUSH3 0xDBB PUSH1 0x40 DUP4 ADD DUP5 PUSH3 0xD75 JUMP JUMPDEST SWAP5 SWAP4 POP POP POP POP JUMP JUMPDEST PUSH1 0x0 PUSH1 0x20 DUP3 DUP5 SUB SLT ISZERO PUSH3 0xDDC JUMPI PUSH3 0xDDB PUSH3 0x849 JUMP JUMPDEST JUMPDEST PUSH1 0x0 PUSH3 0xDEC DUP5 DUP3 DUP6 ADD PUSH3 0x89C JUMP JUMPDEST SWAP2 POP POP SWAP3 SWAP2 POP POP JUMP JUMPDEST PUSH1 0x0 PUSH1 0x20 DUP3 DUP5 SUB SLT ISZERO PUSH3 0xE0E JUMPI PUSH3 0xE0D PUSH3 0x849 JUMP JUMPDEST JUMPDEST PUSH1 0x0 PUSH3 0xE1E DUP5 DUP3 DUP6 ADD PUSH3 0xABF JUMP JUMPDEST SWAP2 POP POP SWAP3 SWAP2 POP POP JUMP JUMPDEST PUSH32 0x4E487B7100000000000000000000000000000000000000000000000000000000 PUSH1 0x0 MSTORE PUSH1 0x11 PUSH1 0x4 MSTORE PUSH1 0x24 PUSH1 0x0 REVERT JUMPDEST PUSH1 0x0 PUSH3 0xE63 DUP3 PUSH3 0xA1A JUMP JUMPDEST SWAP2 POP PUSH3 0xE70 DUP4 PUSH3 0xA1A JUMP JUMPDEST SWAP3 POP DUP3 PUSH1 0xFF SUB DUP3 GT ISZERO PUSH3 0xE89 JUMPI PUSH3 0xE88 PUSH3 0xE27 JUMP JUMPDEST JUMPDEST DUP3 DUP3 ADD SWAP1 POP SWAP3 SWAP2 POP POP JUMP JUMPDEST PUSH1 0x0 DUP3 DUP3 MSTORE PUSH1 0x20 DUP3 ADD SWAP1 POP SWAP3 SWAP2 POP POP JUMP JUMPDEST PUSH32 0x506F7274696F6E00000000000000000000000000000000000000000000000000 PUSH1 0x0 DUP3 ADD MSTORE POP JUMP JUMPDEST PUSH1 0x0 PUSH3 0xEDD PUSH1 0x7 DUP4 PUSH3 0xE94 JUMP JUMPDEST SWAP2 POP PUSH3 0xEEA DUP3 PUSH3 0xEA5 JUMP JUMPDEST PUSH1 0x20 DUP3 ADD SWAP1 POP SWAP2 SWAP1 POP JUMP JUMPDEST PUSH1 0x0 PUSH1 0x20 DUP3 ADD SWAP1 POP DUP2 DUP2 SUB PUSH1 0x0 DUP4 ADD MSTORE PUSH3 0xF10 DUP2 PUSH3 0xECE JUMP JUMPDEST SWAP1 POP SWAP2 SWAP1 POP JUMP JUMPDEST PUSH32 0x54312D5765746800000000000000000000000000000000000000000000000000 PUSH1 0x0 DUP3 ADD MSTORE POP JUMP JUMPDEST PUSH1 0x0 PUSH3 0xF4F PUSH1 0x7 DUP4 PUSH3 0xE94 JUMP JUMPDEST SWAP2 POP PUSH3 0xF5C DUP3 PUSH3 0xF17 JUMP JUMPDEST PUSH1 0x20 DUP3 ADD SWAP1 POP SWAP2 SWAP1 POP JUMP JUMPDEST PUSH1 0x0 PUSH1 0x20 DUP3 ADD SWAP1 POP DUP2 DUP2 SUB PUSH1 0x0 DUP4 ADD MSTORE PUSH3 0xF82 DUP2 PUSH3 0xF40 JUMP JUMPDEST SWAP1 POP SWAP2 SWAP1 POP JUMP JUMPDEST PUSH3 0xF94 DUP2 PUSH3 0x992 JUMP JUMPDEST DUP3 MSTORE POP POP JUMP JUMPDEST PUSH1 0x0 PUSH1 0xA0 DUP3 ADD SWAP1 POP PUSH3 0xFB1 PUSH1 0x0 DUP4 ADD DUP9 PUSH3 0xD64 JUMP JUMPDEST PUSH3 0xFC0 PUSH1 0x20 DUP4 ADD DUP8 PUSH3 0xD64 JUMP JUMPDEST PUSH3 0xFCF PUSH1 0x40 DUP4 ADD DUP7 PUSH3 0xD64 JUMP JUMPDEST PUSH3 0xFDE PUSH1 0x60 DUP4 ADD DUP6 PUSH3 0xF89 JUMP JUMPDEST PUSH3 0xFED PUSH1 0x80 DUP4 ADD DUP5 PUSH3 0xF89 JUMP JUMPDEST SWAP7 SWAP6 POP POP POP POP POP POP JUMP JUMPDEST PUSH1 0x80 MLOAD PUSH1 0xA0 MLOAD PUSH1 0xC0 MLOAD PUSH1 0xE0 MLOAD PUSH2 0x100 MLOAD PUSH2 0x120 MLOAD PUSH2 0x140 MLOAD PUSH2 0x160 MLOAD PUSH2 0x180 MLOAD PUSH2 0x1A0 MLOAD PUSH2 0x1C0 MLOAD PUSH2 0x1E0 MLOAD PUSH2 0x200 MLOAD PUSH2 0x220 MLOAD PUSH2 0x5A3A PUSH3 0x11D3 PUSH1 0x0 CODECOPY PUSH1 0x0 DUP2 DUP2 PUSH2 0x1A37 ADD MSTORE DUP2 DUP2 PUSH2 0x2C8C ADD MSTORE DUP2 DUP2 PUSH2 0x3139 ADD MSTORE PUSH2 0x31EF ADD MSTORE PUSH1 0x0 DUP2 DUP2 PUSH2 0x1969 ADD MSTORE DUP2 DUP2 PUSH2 0x35BD ADD MSTORE PUSH2 0x3695 ADD MSTORE PUSH1 0x0 PUSH2 0x179E ADD MSTORE PUSH1 0x0 DUP2 DUP2 PUSH2 0x8F0 ADD MSTORE PUSH2 0x1807 ADD MSTORE PUSH1 0x0 PUSH2 0x1E59 ADD MSTORE PUSH1 0x0 DUP2 DUP2 PUSH2 0x95C ADD MSTORE DUP2 DUP2 PUSH2 0xB0C ADD MSTORE DUP2 DUP2 PUSH2 0xBC4 ADD MSTORE DUP2 DUP2 PUSH2 0x1047 ADD MSTORE DUP2 DUP2 PUSH2 0x13A8 ADD MSTORE DUP2 DUP2 PUSH2 0x1449 ADD MSTORE DUP2 DUP2 PUSH2 0x1BB9 ADD MSTORE DUP2 DUP2 PUSH2 0x1D2F ADD MSTORE DUP2 DUP2 PUSH2 0x2AFD ADD MSTORE DUP2 DUP2 PUSH2 0x2BB1 ADD MSTORE DUP2 DUP2 PUSH2 0x3896 ADD MSTORE PUSH2 0x393E ADD MSTORE PUSH1 0x0 DUP2 DUP2 PUSH2 0x1287 ADD MSTORE DUP2 DUP2 PUSH2 0x153F ADD MSTORE DUP2 DUP2 PUSH2 0x1690 ADD MSTORE DUP2 DUP2 PUSH2 0x172A ADD MSTORE DUP2 DUP2 PUSH2 0x1849 ADD MSTORE DUP2 DUP2 PUSH2 0x1B71 ADD MSTORE DUP2 DUP2 PUSH2 0x1C97 ADD MSTORE DUP2 DUP2 PUSH2 0x1E0D ADD MSTORE DUP2 DUP2 PUSH2 0x26F6 ADD MSTORE DUP2 DUP2 PUSH2 0x2F66 ADD MSTORE DUP2 DUP2 PUSH2 0x3587 ADD MSTORE PUSH2 0x3B2E ADD MSTORE PUSH1 0x0 DUP2 DUP2 PUSH2 0x914 ADD MSTORE DUP2 DUP2 PUSH2 0x123C ADD MSTORE DUP2 DUP2 PUSH2 0x150A ADD MSTORE DUP2 DUP2 PUSH2 0x158C ADD MSTORE DUP2 DUP2 PUSH2 0x1626 ADD MSTORE DUP2 DUP2 PUSH2 0x1828 ADD MSTORE DUP2 DUP2 PUSH2 0x1C4C ADD MSTORE DUP2 DUP2 PUSH2 0x1DC2 ADD MSTORE DUP2 DUP2 PUSH2 0x265C ADD MSTORE DUP2 DUP2 PUSH2 0x2E69 ADD MSTORE DUP2 DUP2 PUSH2 0x355B ADD MSTORE PUSH2 0x3A33 ADD MSTORE PUSH1 0x0 DUP2 DUP2 PUSH2 0x1945 ADD MSTORE DUP2 DUP2 PUSH2 0x1AA0 ADD MSTORE PUSH2 0x2856 ADD MSTORE PUSH1 0x0 DUP2 DUP2 PUSH2 0x156B ADD MSTORE DUP2 DUP2 PUSH2 0x166F ADD MSTORE PUSH2 0x1B95 ADD MSTORE PUSH1 0x0 DUP2 DUP2 PUSH2 0x9D3 ADD MSTORE PUSH2 0x12FF ADD MSTORE PUSH1 0x0 PUSH2 0x17D5 ADD MSTORE PUSH1 0x0 PUSH2 0x12DB ADD MSTORE PUSH1 0x0 PUSH2 0x938 ADD MSTORE PUSH2 0x5A3A PUSH1 0x0 RETURN INVALID PUSH1 0x80 PUSH1 0x40 MSTORE CALLVALUE DUP1 ISZERO PUSH2 0x10 JUMPI PUSH1 0x0 DUP1 REVERT JUMPDEST POP PUSH1 0x4 CALLDATASIZE LT PUSH2 0x2BB JUMPI PUSH1 0x0 CALLDATALOAD PUSH1 0xE0 SHR DUP1 PUSH4 0x8ED0D6A6 GT PUSH2 0x182 JUMPI DUP1 PUSH4 0xCF8D7E25 GT PUSH2 0xE9 JUMPI DUP1 PUSH4 0xD3487997 GT PUSH2 0xA2 JUMPI DUP1 PUSH4 0xE88958DC GT PUSH2 0x7C JUMPI DUP1 PUSH4 0xE88958DC EQ PUSH2 0x85F JUMPI DUP1 PUSH4 0xF6837157 EQ PUSH2 0x87D JUMPI DUP1 PUSH4 0xFA461E33 EQ PUSH2 0x89B JUMPI DUP1 PUSH4 0xFBFA77CF EQ PUSH2 0x8B7 JUMPI PUSH2 0x2BB JUMP JUMPDEST DUP1 PUSH4 0xD3487997 EQ PUSH2 0x807 JUMPI DUP1 PUSH4 0xD368867F EQ PUSH2 0x823 JUMPI DUP1 PUSH4 0xE7C7CB91 EQ PUSH2 0x841 JUMPI PUSH2 0x2BB JUMP JUMPDEST DUP1 PUSH4 0xCF8D7E25 EQ PUSH2 0x755 JUMPI DUP1 PUSH4 0xCFFB51CD EQ PUSH2 0x773 JUMPI DUP1 PUSH4 0xD0C93A7C EQ PUSH2 0x791 JUMPI DUP1 PUSH4 0xD1890677 EQ PUSH2 0x7AF JUMPI DUP1 PUSH4 0xD21220A7 EQ PUSH2 0x7CB JUMPI DUP1 PUSH4 0xD27567F2 EQ PUSH2 0x7E9 JUMPI PUSH2 0x2BB JUMP JUMPDEST DUP1 PUSH4 0xB0E21E8A GT PUSH2 0x13B JUMPI DUP1 PUSH4 0xB0E21E8A EQ PUSH2 0x68D JUMPI DUP1 PUSH4 0xB6C06D3F EQ PUSH2 0x6AB JUMPI DUP1 PUSH4 0xBBC001C3 EQ PUSH2 0x6DD JUMPI DUP1 PUSH4 0xBEF95A64 EQ PUSH2 0x6FB JUMPI DUP1 PUSH4 0xC8A746A6 EQ PUSH2 0x719 JUMPI DUP1 PUSH4 0xCCAC7D8B EQ PUSH2 0x737 JUMPI PUSH2 0x2BB JUMP JUMPDEST DUP1 PUSH4 0x8ED0D6A6 EQ PUSH2 0x5C6 JUMPI DUP1 PUSH4 0x98D5FDCA EQ PUSH2 0x5E4 JUMPI DUP1 PUSH4 0x9D371C30 EQ PUSH2 0x602 JUMPI DUP1 PUSH4 0xA0BE06F9 EQ PUSH2 0x633 JUMPI DUP1 PUSH4 0xABDC3808 EQ PUSH2 0x651 JUMPI DUP1 PUSH4 0xAD5C4648 EQ PUSH2 0x66F JUMPI PUSH2 0x2BB JUMP JUMPDEST DUP1 PUSH4 0x400DE37D GT PUSH2 0x226 JUMPI DUP1 PUSH4 0x71C851DD GT PUSH2 0x1DF JUMPI DUP1 PUSH4 0x71C851DD EQ PUSH2 0x501 JUMPI DUP1 PUSH4 0x7535536A EQ PUSH2 0x532 JUMPI DUP1 PUSH4 0x7A0DDEEF EQ PUSH2 0x550 JUMPI DUP1 PUSH4 0x85F2AEF2 EQ PUSH2 0x56C JUMPI DUP1 PUSH4 0x8A1C4CE7 EQ PUSH2 0x58A JUMPI DUP1 PUSH4 0x8E843C6C EQ PUSH2 0x5A8 JUMPI PUSH2 0x2BB JUMP JUMPDEST DUP1 PUSH4 0x400DE37D EQ PUSH2 0x42B JUMPI DUP1 PUSH4 0x42CDE4E8 EQ PUSH2 0x447 JUMPI DUP1 PUSH4 0x43C57A27 EQ PUSH2 0x465 JUMPI DUP1 PUSH4 0x4BFF5E23 EQ PUSH2 0x495 JUMPI DUP1 PUSH4 0x559681EF EQ PUSH2 0x4B3 JUMPI DUP1 PUSH4 0x5D752A9A EQ PUSH2 0x4E3 JUMPI PUSH2 0x2BB JUMP JUMPDEST DUP1 PUSH4 0x26D89545 GT PUSH2 0x278 JUMPI DUP1 PUSH4 0x26D89545 EQ PUSH2 0x374 JUMPI DUP1 PUSH4 0x31DC5B95 EQ PUSH2 0x392 JUMPI DUP1 PUSH4 0x3AAA36E6 EQ PUSH2 0x3B0 JUMPI DUP1 PUSH4 0x3B05BC37 EQ PUSH2 0x3D3 JUMPI DUP1 PUSH4 0x3B7BA25F EQ PUSH2 0x3F1 JUMPI DUP1 PUSH4 0x3C1BDA09 EQ PUSH2 0x40D JUMPI PUSH2 0x2BB JUMP JUMPDEST DUP1 PUSH4 0x276650B EQ PUSH2 0x2C0 JUMPI DUP1 PUSH4 0x435A745 EQ PUSH2 0x2DE JUMPI DUP1 PUSH4 0xD40886D EQ PUSH2 0x2FC JUMPI DUP1 PUSH4 0xDFE1681 EQ PUSH2 0x31A JUMPI DUP1 PUSH4 0x16552393 EQ PUSH2 0x338 JUMPI DUP1 PUSH4 0x16F0115B EQ PUSH2 0x356 JUMPI JUMPDEST PUSH1 0x0 DUP1 REVERT JUMPDEST PUSH2 0x2C8 PUSH2 0x8D5 JUMP JUMPDEST PUSH1 0x40 MLOAD PUSH2 0x2D5 SWAP2 SWAP1 PUSH2 0x3DDE JUMP JUMPDEST PUSH1 0x40 MLOAD DUP1 SWAP2 SUB SWAP1 RETURN JUMPDEST PUSH2 0x2E6 PUSH2 0x8DB JUMP JUMPDEST PUSH1 0x40 MLOAD PUSH2 0x2F3 SWAP2 SWAP1 PUSH2 0x3E14 JUMP JUMPDEST PUSH1 0x40 MLOAD DUP1 SWAP2 SUB SWAP1 RETURN JUMPDEST PUSH2 0x304 PUSH2 0x8EE JUMP JUMPDEST PUSH1 0x40 MLOAD PUSH2 0x311 SWAP2 SWAP1 PUSH2 0x3E5A JUMP JUMPDEST PUSH1 0x40 MLOAD DUP1 SWAP2 SUB SWAP1 RETURN JUMPDEST PUSH2 0x322 PUSH2 0x912 JUMP JUMPDEST PUSH1 0x40 MLOAD PUSH2 0x32F SWAP2 SWAP1 PUSH2 0x3EB6 JUMP JUMPDEST PUSH1 0x40 MLOAD DUP1 SWAP2 SUB SWAP1 RETURN JUMPDEST PUSH2 0x340 PUSH2 0x936 JUMP JUMPDEST PUSH1 0x40 MLOAD PUSH2 0x34D SWAP2 SWAP1 PUSH2 0x3EB6 JUMP JUMPDEST PUSH1 0x40 MLOAD DUP1 SWAP2 SUB SWAP1 RETURN JUMPDEST PUSH2 0x35E PUSH2 0x95A JUMP JUMPDEST PUSH1 0x40 MLOAD PUSH2 0x36B SWAP2 SWAP1 PUSH2 0x3F30 JUMP JUMPDEST PUSH1 0x40 MLOAD DUP1 SWAP2 SUB SWAP1 RETURN JUMPDEST PUSH2 0x37C PUSH2 0x97E JUMP JUMPDEST PUSH1 0x40 MLOAD PUSH2 0x389 SWAP2 SWAP1 PUSH2 0x3F6A JUMP JUMPDEST PUSH1 0x40 MLOAD DUP1 SWAP2 SUB SWAP1 RETURN JUMPDEST PUSH2 0x39A PUSH2 0x994 JUMP JUMPDEST PUSH1 0x40 MLOAD PUSH2 0x3A7 SWAP2 SWAP1 PUSH2 0x3FA1 JUMP JUMPDEST PUSH1 0x40 MLOAD DUP1 SWAP2 SUB SWAP1 RETURN JUMPDEST PUSH2 0x3B8 PUSH2 0x9A7 JUMP JUMPDEST PUSH1 0x40 MLOAD PUSH2 0x3CA SWAP7 SWAP6 SWAP5 SWAP4 SWAP3 SWAP2 SWAP1 PUSH2 0x3FBC JUMP JUMPDEST PUSH1 0x40 MLOAD DUP1 SWAP2 SUB SWAP1 RETURN JUMPDEST PUSH2 0x3DB PUSH2 0x9D1 JUMP JUMPDEST PUSH1 0x40 MLOAD PUSH2 0x3E8 SWAP2 SWAP1 PUSH2 0x3EB6 JUMP JUMPDEST PUSH1 0x40 MLOAD DUP1 SWAP2 SUB SWAP1 RETURN JUMPDEST PUSH2 0x40B PUSH1 0x4 DUP1 CALLDATASIZE SUB DUP2 ADD SWAP1 PUSH2 0x406 SWAP2 SWAP1 PUSH2 0x4089 JUMP JUMPDEST PUSH2 0x9F5 JUMP JUMPDEST STOP JUMPDEST PUSH2 0x415 PUSH2 0xB02 JUMP JUMPDEST PUSH1 0x40 MLOAD PUSH2 0x422 SWAP2 SWAP1 PUSH2 0x3DDE JUMP JUMPDEST PUSH1 0x40 MLOAD DUP1 SWAP2 SUB SWAP1 RETURN JUMPDEST PUSH2 0x445 PUSH1 0x4 DUP1 CALLDATASIZE SUB DUP2 ADD SWAP1 PUSH2 0x440 SWAP2 SWAP1 PUSH2 0x4115 JUMP JUMPDEST PUSH2 0xB08 JUMP JUMPDEST STOP JUMPDEST PUSH2 0x44F PUSH2 0xCBF JUMP JUMPDEST PUSH1 0x40 MLOAD PUSH2 0x45C SWAP2 SWAP1 PUSH2 0x3F6A JUMP JUMPDEST PUSH1 0x40 MLOAD DUP1 SWAP2 SUB SWAP1 RETURN JUMPDEST PUSH2 0x47F PUSH1 0x4 DUP1 CALLDATASIZE SUB DUP2 ADD SWAP1 PUSH2 0x47A SWAP2 SWAP1 PUSH2 0x41A8 JUMP JUMPDEST PUSH2 0xCD5 JUMP JUMPDEST PUSH1 0x40 MLOAD PUSH2 0x48C SWAP2 SWAP1 PUSH2 0x3DDE JUMP JUMPDEST PUSH1 0x40 MLOAD DUP1 SWAP2 SUB SWAP1 RETURN JUMPDEST PUSH2 0x49D PUSH2 0xEE1 JUMP JUMPDEST PUSH1 0x40 MLOAD PUSH2 0x4AA SWAP2 SWAP1 PUSH2 0x3FA1 JUMP JUMPDEST PUSH1 0x40 MLOAD DUP1 SWAP2 SUB SWAP1 RETURN JUMPDEST PUSH2 0x4CD PUSH1 0x4 DUP1 CALLDATASIZE SUB DUP2 ADD SWAP1 PUSH2 0x4C8 SWAP2 SWAP1 PUSH2 0x420F JUMP JUMPDEST PUSH2 0xEF4 JUMP JUMPDEST PUSH1 0x40 MLOAD PUSH2 0x4DA SWAP2 SWAP1 PUSH2 0x3EB6 JUMP JUMPDEST PUSH1 0x40 MLOAD DUP1 SWAP2 SUB SWAP1 RETURN JUMPDEST PUSH2 0x4EB PUSH2 0xF27 JUMP JUMPDEST PUSH1 0x40 MLOAD PUSH2 0x4F8 SWAP2 SWAP1 PUSH2 0x424B JUMP JUMPDEST PUSH1 0x40 MLOAD DUP1 SWAP2 SUB SWAP1 RETURN JUMPDEST PUSH2 0x51B PUSH1 0x4 DUP1 CALLDATASIZE SUB DUP2 ADD SWAP1 PUSH2 0x516 SWAP2 SWAP1 PUSH2 0x4266 JUMP JUMPDEST PUSH2 0x11A1 JUMP JUMPDEST PUSH1 0x40 MLOAD PUSH2 0x529 SWAP3 SWAP2 SWAP1 PUSH2 0x42B9 JUMP JUMPDEST PUSH1 0x40 MLOAD DUP1 SWAP2 SUB SWAP1 RETURN JUMPDEST PUSH2 0x53A PUSH2 0x12D9 JUMP JUMPDEST PUSH1 0x40 MLOAD PUSH2 0x547 SWAP2 SWAP1 PUSH2 0x3EB6 JUMP JUMPDEST PUSH1 0x40 MLOAD DUP1 SWAP2 SUB SWAP1 RETURN JUMPDEST PUSH2 0x56A PUSH1 0x4 DUP1 CALLDATASIZE SUB DUP2 ADD SWAP1 PUSH2 0x565 SWAP2 SWAP1 PUSH2 0x430E JUMP JUMPDEST PUSH2 0x12FD JUMP JUMPDEST STOP JUMPDEST PUSH2 0x574 PUSH2 0x1776 JUMP JUMPDEST PUSH1 0x40 MLOAD PUSH2 0x581 SWAP2 SWAP1 PUSH2 0x3EB6 JUMP JUMPDEST PUSH1 0x40 MLOAD DUP1 SWAP2 SUB SWAP1 RETURN JUMPDEST PUSH2 0x592 PUSH2 0x179C JUMP JUMPDEST PUSH1 0x40 MLOAD PUSH2 0x59F SWAP2 SWAP1 PUSH2 0x43B9 JUMP JUMPDEST PUSH1 0x40 MLOAD DUP1 SWAP2 SUB SWAP1 RETURN JUMPDEST PUSH2 0x5B0 PUSH2 0x17C0 JUMP JUMPDEST PUSH1 0x40 MLOAD PUSH2 0x5BD SWAP2 SWAP1 PUSH2 0x424B JUMP JUMPDEST PUSH1 0x40 MLOAD DUP1 SWAP2 SUB SWAP1 RETURN JUMPDEST PUSH2 0x5CE PUSH2 0x17D3 JUMP JUMPDEST PUSH1 0x40 MLOAD PUSH2 0x5DB SWAP2 SWAP1 PUSH2 0x3EB6 JUMP JUMPDEST PUSH1 0x40 MLOAD DUP1 SWAP2 SUB SWAP1 RETURN JUMPDEST PUSH2 0x5EC PUSH2 0x17F7 JUMP JUMPDEST PUSH1 0x40 MLOAD PUSH2 0x5F9 SWAP2 SWAP1 PUSH2 0x3DDE JUMP JUMPDEST PUSH1 0x40 MLOAD DUP1 SWAP2 SUB SWAP1 RETURN JUMPDEST PUSH2 0x61C PUSH1 0x4 DUP1 CALLDATASIZE SUB DUP2 ADD SWAP1 PUSH2 0x617 SWAP2 SWAP1 PUSH2 0x43D4 JUMP JUMPDEST PUSH2 0x18B9 JUMP JUMPDEST PUSH1 0x40 MLOAD PUSH2 0x62A SWAP3 SWAP2 SWAP1 PUSH2 0x42B9 JUMP JUMPDEST PUSH1 0x40 MLOAD DUP1 SWAP2 SUB SWAP1 RETURN JUMPDEST PUSH2 0x63B PUSH2 0x1930 JUMP JUMPDEST PUSH1 0x40 MLOAD PUSH2 0x648 SWAP2 SWAP1 PUSH2 0x3FA1 JUMP JUMPDEST PUSH1 0x40 MLOAD DUP1 SWAP2 SUB SWAP1 RETURN JUMPDEST PUSH2 0x659 PUSH2 0x1943 JUMP JUMPDEST PUSH1 0x40 MLOAD PUSH2 0x666 SWAP2 SWAP1 PUSH2 0x4435 JUMP JUMPDEST PUSH1 0x40 MLOAD DUP1 SWAP2 SUB SWAP1 RETURN JUMPDEST PUSH2 0x677 PUSH2 0x1967 JUMP JUMPDEST PUSH1 0x40 MLOAD PUSH2 0x684 SWAP2 SWAP1 PUSH2 0x4471 JUMP JUMPDEST PUSH1 0x40 MLOAD DUP1 SWAP2 SUB SWAP1 RETURN JUMPDEST PUSH2 0x695 PUSH2 0x198B JUMP JUMPDEST PUSH1 0x40 MLOAD PUSH2 0x6A2 SWAP2 SWAP1 PUSH2 0x3FA1 JUMP JUMPDEST PUSH1 0x40 MLOAD DUP1 SWAP2 SUB SWAP1 RETURN JUMPDEST PUSH2 0x6C5 PUSH1 0x4 DUP1 CALLDATASIZE SUB DUP2 ADD SWAP1 PUSH2 0x6C0 SWAP2 SWAP1 PUSH2 0x448C JUMP JUMPDEST PUSH2 0x199E JUMP JUMPDEST PUSH1 0x40 MLOAD PUSH2 0x6D4 SWAP4 SWAP3 SWAP2 SWAP1 PUSH2 0x44DF JUMP JUMPDEST PUSH1 0x40 MLOAD DUP1 SWAP2 SUB SWAP1 RETURN JUMPDEST PUSH2 0x6E5 PUSH2 0x1A24 JUMP JUMPDEST PUSH1 0x40 MLOAD PUSH2 0x6F2 SWAP2 SWAP1 PUSH2 0x3E14 JUMP JUMPDEST PUSH1 0x40 MLOAD DUP1 SWAP2 SUB SWAP1 RETURN JUMPDEST PUSH2 0x703 PUSH2 0x1A35 JUMP JUMPDEST PUSH1 0x40 MLOAD PUSH2 0x710 SWAP2 SWAP1 PUSH2 0x4537 JUMP JUMPDEST PUSH1 0x40 MLOAD DUP1 SWAP2 SUB SWAP1 RETURN JUMPDEST PUSH2 0x721 PUSH2 0x1A59 JUMP JUMPDEST PUSH1 0x40 MLOAD PUSH2 0x72E SWAP2 SWAP1 PUSH2 0x3DDE JUMP JUMPDEST PUSH1 0x40 MLOAD DUP1 SWAP2 SUB SWAP1 RETURN JUMPDEST PUSH2 0x73F PUSH2 0x1A5F JUMP JUMPDEST PUSH1 0x40 MLOAD PUSH2 0x74C SWAP2 SWAP1 PUSH2 0x3DDE JUMP JUMPDEST PUSH1 0x40 MLOAD DUP1 SWAP2 SUB SWAP1 RETURN JUMPDEST PUSH2 0x75D PUSH2 0x1A65 JUMP JUMPDEST PUSH1 0x40 MLOAD PUSH2 0x76A SWAP2 SWAP1 PUSH2 0x3FA1 JUMP JUMPDEST PUSH1 0x40 MLOAD DUP1 SWAP2 SUB SWAP1 RETURN JUMPDEST PUSH2 0x77B PUSH2 0x1A78 JUMP JUMPDEST PUSH1 0x40 MLOAD PUSH2 0x788 SWAP2 SWAP1 PUSH2 0x3FA1 JUMP JUMPDEST PUSH1 0x40 MLOAD DUP1 SWAP2 SUB SWAP1 RETURN JUMPDEST PUSH2 0x799 PUSH2 0x1A8B JUMP JUMPDEST PUSH1 0x40 MLOAD PUSH2 0x7A6 SWAP2 SWAP1 PUSH2 0x424B JUMP JUMPDEST PUSH1 0x40 MLOAD DUP1 SWAP2 SUB SWAP1 RETURN JUMPDEST PUSH2 0x7C9 PUSH1 0x4 DUP1 CALLDATASIZE SUB DUP2 ADD SWAP1 PUSH2 0x7C4 SWAP2 SWAP1 PUSH2 0x4552 JUMP JUMPDEST PUSH2 0x1A9E JUMP JUMPDEST STOP JUMPDEST PUSH2 0x7D3 PUSH2 0x1B6F JUMP JUMPDEST PUSH1 0x40 MLOAD PUSH2 0x7E0 SWAP2 SWAP1 PUSH2 0x3EB6 JUMP JUMPDEST PUSH1 0x40 MLOAD DUP1 SWAP2 SUB SWAP1 RETURN JUMPDEST PUSH2 0x7F1 PUSH2 0x1B93 JUMP JUMPDEST PUSH1 0x40 MLOAD PUSH2 0x7FE SWAP2 SWAP1 PUSH2 0x4435 JUMP JUMPDEST PUSH1 0x40 MLOAD DUP1 SWAP2 SUB SWAP1 RETURN JUMPDEST PUSH2 0x821 PUSH1 0x4 DUP1 CALLDATASIZE SUB DUP2 ADD SWAP1 PUSH2 0x81C SWAP2 SWAP1 PUSH2 0x45F7 JUMP JUMPDEST PUSH2 0x1BB7 JUMP JUMPDEST STOP JUMPDEST PUSH2 0x82B PUSH2 0x1CE1 JUMP JUMPDEST PUSH1 0x40 MLOAD PUSH2 0x838 SWAP2 SWAP1 PUSH2 0x424B JUMP JUMPDEST PUSH1 0x40 MLOAD DUP1 SWAP2 SUB SWAP1 RETURN JUMPDEST PUSH2 0x849 PUSH2 0x1CF4 JUMP JUMPDEST PUSH1 0x40 MLOAD PUSH2 0x856 SWAP2 SWAP1 PUSH2 0x424B JUMP JUMPDEST PUSH1 0x40 MLOAD DUP1 SWAP2 SUB SWAP1 RETURN JUMPDEST PUSH2 0x867 PUSH2 0x1D07 JUMP JUMPDEST PUSH1 0x40 MLOAD PUSH2 0x874 SWAP2 SWAP1 PUSH2 0x3FA1 JUMP JUMPDEST PUSH1 0x40 MLOAD DUP1 SWAP2 SUB SWAP1 RETURN JUMPDEST PUSH2 0x885 PUSH2 0x1D1A JUMP JUMPDEST PUSH1 0x40 MLOAD PUSH2 0x892 SWAP2 SWAP1 PUSH2 0x3FA1 JUMP JUMPDEST PUSH1 0x40 MLOAD DUP1 SWAP2 SUB SWAP1 RETURN JUMPDEST PUSH2 0x8B5 PUSH1 0x4 DUP1 CALLDATASIZE SUB DUP2 ADD SWAP1 PUSH2 0x8B0 SWAP2 SWAP1 PUSH2 0x46A1 JUMP JUMPDEST PUSH2 0x1D2D JUMP JUMPDEST STOP JUMPDEST PUSH2 0x8BF PUSH2 0x1E57 JUMP JUMPDEST PUSH1 0x40 MLOAD PUSH2 0x8CC SWAP2 SWAP1 PUSH2 0x4748 JUMP JUMPDEST PUSH1 0x40 MLOAD DUP1 SWAP2 SUB SWAP1 RETURN JUMPDEST PUSH1 0x11 SLOAD DUP2 JUMP JUMPDEST PUSH1 0x12 PUSH1 0x0 SWAP1 SLOAD SWAP1 PUSH2 0x100 EXP SWAP1 DIV PUSH1 0xFF AND DUP2 JUMP JUMPDEST PUSH32 0x0 DUP2 JUMP JUMPDEST PUSH32 0x0 DUP2 JUMP JUMPDEST PUSH32 0x0 DUP2 JUMP JUMPDEST PUSH32 0x0 DUP2 JUMP JUMPDEST PUSH1 0xB PUSH1 0x1C SWAP1 SLOAD SWAP1 PUSH2 0x100 EXP SWAP1 DIV PUSH4 0xFFFFFFFF AND DUP2 JUMP JUMPDEST PUSH1 0xB PUSH1 0x16 SWAP1 SLOAD SWAP1 PUSH2 0x100 EXP SWAP1 DIV PUSH1 0xFF AND DUP2 JUMP JUMPDEST PUSH1 0x5 DUP1 PUSH1 0x0 ADD SLOAD SWAP1 DUP1 PUSH1 0x1 ADD SLOAD SWAP1 DUP1 PUSH1 0x2 ADD SLOAD SWAP1 DUP1 PUSH1 0x3 ADD SLOAD SWAP1 DUP1 PUSH1 0x4 ADD SLOAD SWAP1 DUP1 PUSH1 0x5 ADD SLOAD SWAP1 POP DUP7 JUMP JUMPDEST PUSH32 0x0 DUP2 JUMP JUMPDEST PUSH1 0x0 DUP4 SWAP1 POP PUSH1 0x0 DUP4 SWAP1 POP DUP2 PUSH20 0xFFFFFFFFFFFFFFFFFFFFFFFFFFFFFFFFFFFFFFFF AND PUSH4 0x95EA7B3 DUP6 DUP6 PUSH1 0x40 MLOAD DUP4 PUSH4 0xFFFFFFFF AND PUSH1 0xE0 SHL DUP2 MSTORE PUSH1 0x4 ADD PUSH2 0xA3A SWAP3 SWAP2 SWAP1 PUSH2 0x4763 JUMP JUMPDEST PUSH1 0x20 PUSH1 0x40 MLOAD DUP1 DUP4 SUB DUP2 PUSH1 0x0 DUP8 GAS CALL ISZERO DUP1 ISZERO PUSH2 0xA59 JUMPI RETURNDATASIZE PUSH1 0x0 DUP1 RETURNDATACOPY RETURNDATASIZE PUSH1 0x0 REVERT JUMPDEST POP POP POP POP PUSH1 0x40 MLOAD RETURNDATASIZE PUSH1 0x1F NOT PUSH1 0x1F DUP3 ADD AND DUP3 ADD DUP1 PUSH1 0x40 MSTORE POP DUP2 ADD SWAP1 PUSH2 0xA7D SWAP2 SWAP1 PUSH2 0x47A1 JUMP JUMPDEST POP DUP1 PUSH20 0xFFFFFFFFFFFFFFFFFFFFFFFFFFFFFFFFFFFFFFFF AND PUSH4 0xA0712D68 DUP5 PUSH1 0x40 MLOAD DUP3 PUSH4 0xFFFFFFFF AND PUSH1 0xE0 SHL DUP2 MSTORE PUSH1 0x4 ADD PUSH2 0xAB7 SWAP2 SWAP1 PUSH2 0x3DDE JUMP JUMPDEST PUSH1 0x20 PUSH1 0x40 MLOAD DUP1 DUP4 SUB DUP2 PUSH1 0x0 DUP8 GAS CALL ISZERO DUP1 ISZERO PUSH2 0xAD6 JUMPI RETURNDATASIZE PUSH1 0x0 DUP1 RETURNDATACOPY RETURNDATASIZE PUSH1 0x0 REVERT JUMPDEST POP POP POP POP PUSH1 0x40 MLOAD RETURNDATASIZE PUSH1 0x1F NOT PUSH1 0x1F DUP3 ADD AND DUP3 ADD DUP1 PUSH1 0x40 MSTORE POP DUP2 ADD SWAP1 PUSH2 0xAFA SWAP2 SWAP1 PUSH2 0x47E3 JUMP JUMPDEST POP POP POP POP POP POP JUMP JUMPDEST PUSH1 0x10 SLOAD DUP2 JUMP JUMPDEST PUSH1 0x0 PUSH32 0x0 PUSH20 0xFFFFFFFFFFFFFFFFFFFFFFFFFFFFFFFFFFFFFFFF AND PUSH4 0x3850C7BD PUSH1 0x40 MLOAD DUP2 PUSH4 0xFFFFFFFF AND PUSH1 0xE0 SHL DUP2 MSTORE PUSH1 0x4 ADD PUSH1 0xE0 PUSH1 0x40 MLOAD DUP1 DUP4 SUB DUP2 DUP7 GAS STATICCALL ISZERO DUP1 ISZERO PUSH2 0xB75 JUMPI RETURNDATASIZE PUSH1 0x0 DUP1 RETURNDATACOPY RETURNDATASIZE PUSH1 0x0 REVERT JUMPDEST POP POP POP POP PUSH1 0x40 MLOAD RETURNDATASIZE PUSH1 0x1F NOT PUSH1 0x1F DUP3 ADD AND DUP3 ADD DUP1 PUSH1 0x40 MSTORE POP DUP2 ADD SWAP1 PUSH2 0xB99 SWAP2 SWAP1 PUSH2 0x48B7 JUMP JUMPDEST POP POP POP POP POP POP SWAP1 POP PUSH1 0x0 PUSH2 0xBC0 DUP3 PUSH2 0xBB0 DUP9 PUSH2 0x1E7B JUMP JUMPDEST PUSH2 0xBB9 DUP9 PUSH2 0x1E7B JUMP JUMPDEST DUP8 DUP8 PUSH2 0x2349 JUMP JUMPDEST SWAP1 POP PUSH32 0x0 PUSH20 0xFFFFFFFFFFFFFFFFFFFFFFFFFFFFFFFFFFFFFFFF AND PUSH4 0x3C8A7D8D ADDRESS DUP9 DUP9 DUP6 PUSH1 0x40 MLOAD DUP6 PUSH4 0xFFFFFFFF AND PUSH1 0xE0 SHL DUP2 MSTORE PUSH1 0x4 ADD PUSH2 0xC21 SWAP5 SWAP4 SWAP3 SWAP2 SWAP1 PUSH2 0x4990 JUMP JUMPDEST PUSH1 0x40 DUP1 MLOAD DUP1 DUP4 SUB DUP2 PUSH1 0x0 DUP8 GAS CALL ISZERO DUP1 ISZERO PUSH2 0xC3F JUMPI RETURNDATASIZE PUSH1 0x0 DUP1 RETURNDATACOPY RETURNDATASIZE PUSH1 0x0 REVERT JUMPDEST POP POP POP POP PUSH1 0x40 MLOAD RETURNDATASIZE PUSH1 0x1F NOT PUSH1 0x1F DUP3 ADD AND DUP3 ADD DUP1 PUSH1 0x40 MSTORE POP DUP2 ADD SWAP1 PUSH2 0xC63 SWAP2 SWAP1 PUSH2 0x49E8 JUMP JUMPDEST POP POP ADDRESS PUSH20 0xFFFFFFFFFFFFFFFFFFFFFFFFFFFFFFFFFFFFFFFF AND PUSH32 0x9DED9120D438AC6B7C5F73C3D2B671B30AF17AF169A8ADFB2F199D1C14881604 DUP8 DUP8 DUP5 PUSH1 0x40 MLOAD PUSH2 0xCAF SWAP4 SWAP3 SWAP2 SWAP1 PUSH2 0x4A28 JUMP JUMPDEST PUSH1 0x40 MLOAD DUP1 SWAP2 SUB SWAP1 LOG2 POP POP POP POP POP POP JUMP JUMPDEST PUSH1 0xC PUSH1 0x0 SWAP1 SLOAD SWAP1 PUSH2 0x100 EXP SWAP1 DIV PUSH4 0xFFFFFFFF AND DUP2 JUMP JUMPDEST PUSH1 0x0 DUP1 PUSH2 0xCE1 DUP7 PUSH2 0x1E7B JUMP JUMPDEST SWAP1 POP PUSH16 0xFFFFFFFFFFFFFFFFFFFFFFFFFFFFFFFF DUP1 AND DUP2 PUSH20 0xFFFFFFFFFFFFFFFFFFFFFFFFFFFFFFFFFFFFFFFF AND GT PUSH2 0xDFB JUMPI PUSH1 0x0 DUP2 PUSH20 0xFFFFFFFFFFFFFFFFFFFFFFFFFFFFFFFFFFFFFFFF AND DUP3 PUSH20 0xFFFFFFFFFFFFFFFFFFFFFFFFFFFFFFFFFFFFFFFF AND PUSH2 0xD4C SWAP2 SWAP1 PUSH2 0x4A8E JUMP JUMPDEST SWAP1 POP DUP4 PUSH20 0xFFFFFFFFFFFFFFFFFFFFFFFFFFFFFFFFFFFFFFFF AND DUP6 PUSH20 0xFFFFFFFFFFFFFFFFFFFFFFFFFFFFFFFFFFFFFFFF AND LT PUSH2 0xDBC JUMPI PUSH2 0xDB7 PUSH25 0x1000000000000000000000000000000000000000000000000 DUP8 PUSH16 0xFFFFFFFFFFFFFFFFFFFFFFFFFFFFFFFF AND DUP4 PUSH2 0x2475 JUMP JUMPDEST PUSH2 0xDF3 JUMP JUMPDEST PUSH2 0xDF2 DUP2 DUP8 PUSH16 0xFFFFFFFFFFFFFFFFFFFFFFFFFFFFFFFF AND PUSH25 0x1000000000000000000000000000000000000000000000000 PUSH2 0x2475 JUMP JUMPDEST JUMPDEST SWAP3 POP POP PUSH2 0xED8 JUMP JUMPDEST PUSH1 0x0 PUSH2 0xE3D DUP3 PUSH20 0xFFFFFFFFFFFFFFFFFFFFFFFFFFFFFFFFFFFFFFFF AND DUP4 PUSH20 0xFFFFFFFFFFFFFFFFFFFFFFFFFFFFFFFFFFFFFFFF AND PUSH9 0x10000000000000000 PUSH2 0x2475 JUMP JUMPDEST SWAP1 POP DUP4 PUSH20 0xFFFFFFFFFFFFFFFFFFFFFFFFFFFFFFFFFFFFFFFF AND DUP6 PUSH20 0xFFFFFFFFFFFFFFFFFFFFFFFFFFFFFFFFFFFFFFFF AND LT PUSH2 0xEA5 JUMPI PUSH2 0xEA0 PUSH17 0x100000000000000000000000000000000 DUP8 PUSH16 0xFFFFFFFFFFFFFFFFFFFFFFFFFFFFFFFF AND DUP4 PUSH2 0x2475 JUMP JUMPDEST PUSH2 0xED4 JUMP JUMPDEST PUSH2 0xED3 DUP2 DUP8 PUSH16 0xFFFFFFFFFFFFFFFFFFFFFFFFFFFFFFFF AND PUSH17 0x100000000000000000000000000000000 PUSH2 0x2475 JUMP JUMPDEST JUMPDEST SWAP3 POP POP JUMPDEST POP SWAP5 SWAP4 POP POP POP POP JUMP JUMPDEST PUSH1 0xB PUSH1 0x14 SWAP1 SLOAD SWAP1 PUSH2 0x100 EXP SWAP1 DIV PUSH1 0xFF AND DUP2 JUMP JUMPDEST PUSH1 0xD PUSH1 0x20 MSTORE DUP1 PUSH1 0x0 MSTORE PUSH1 0x40 PUSH1 0x0 KECCAK256 PUSH1 0x0 SWAP2 POP SLOAD SWAP1 PUSH2 0x100 EXP SWAP1 DIV PUSH20 0xFFFFFFFFFFFFFFFFFFFFFFFFFFFFFFFFFFFFFFFF AND DUP2 JUMP JUMPDEST PUSH1 0x0 DUP1 PUSH1 0xB PUSH1 0x1C SWAP1 SLOAD SWAP1 PUSH2 0x100 EXP SWAP1 DIV PUSH4 0xFFFFFFFF AND PUSH4 0xFFFFFFFF AND EQ ISZERO PUSH2 0xF84 JUMPI PUSH1 0x40 MLOAD PUSH32 0x8C379A000000000000000000000000000000000000000000000000000000000 DUP2 MSTORE PUSH1 0x4 ADD PUSH2 0xF7B SWAP1 PUSH2 0x4B45 JUMP JUMPDEST PUSH1 0x40 MLOAD DUP1 SWAP2 SUB SWAP1 REVERT JUMPDEST PUSH1 0x0 PUSH1 0x2 PUSH8 0xFFFFFFFFFFFFFFFF DUP2 GT ISZERO PUSH2 0xFA1 JUMPI PUSH2 0xFA0 PUSH2 0x4B65 JUMP JUMPDEST JUMPDEST PUSH1 0x40 MLOAD SWAP1 DUP1 DUP3 MSTORE DUP1 PUSH1 0x20 MUL PUSH1 0x20 ADD DUP3 ADD PUSH1 0x40 MSTORE DUP1 ISZERO PUSH2 0xFCF JUMPI DUP2 PUSH1 0x20 ADD PUSH1 0x20 DUP3 MUL DUP1 CALLDATASIZE DUP4 CALLDATACOPY DUP1 DUP3 ADD SWAP2 POP POP SWAP1 POP JUMPDEST POP SWAP1 POP PUSH1 0xB PUSH1 0x1C SWAP1 SLOAD SWAP1 PUSH2 0x100 EXP SWAP1 DIV PUSH4 0xFFFFFFFF AND DUP2 PUSH1 0x0 DUP2 MLOAD DUP2 LT PUSH2 0xFF9 JUMPI PUSH2 0xFF8 PUSH2 0x4B94 JUMP JUMPDEST JUMPDEST PUSH1 0x20 MUL PUSH1 0x20 ADD ADD SWAP1 PUSH4 0xFFFFFFFF AND SWAP1 DUP2 PUSH4 0xFFFFFFFF AND DUP2 MSTORE POP POP PUSH1 0x0 DUP2 PUSH1 0x1 DUP2 MLOAD DUP2 LT PUSH2 0x1029 JUMPI PUSH2 0x1028 PUSH2 0x4B94 JUMP JUMPDEST JUMPDEST PUSH1 0x20 MUL PUSH1 0x20 ADD ADD SWAP1 PUSH4 0xFFFFFFFF AND SWAP1 DUP2 PUSH4 0xFFFFFFFF AND DUP2 MSTORE POP POP PUSH1 0x0 PUSH32 0x0 PUSH20 0xFFFFFFFFFFFFFFFFFFFFFFFFFFFFFFFFFFFFFFFF AND PUSH4 0x883BDBFD DUP4 PUSH1 0x40 MLOAD DUP3 PUSH4 0xFFFFFFFF AND PUSH1 0xE0 SHL DUP2 MSTORE PUSH1 0x4 ADD PUSH2 0x109E SWAP2 SWAP1 PUSH2 0x4C81 JUMP JUMPDEST PUSH1 0x0 PUSH1 0x40 MLOAD DUP1 DUP4 SUB DUP2 DUP7 GAS STATICCALL ISZERO DUP1 ISZERO PUSH2 0x10BB JUMPI RETURNDATASIZE PUSH1 0x0 DUP1 RETURNDATACOPY RETURNDATASIZE PUSH1 0x0 REVERT JUMPDEST POP POP POP POP PUSH1 0x40 MLOAD RETURNDATASIZE PUSH1 0x0 DUP3 RETURNDATACOPY RETURNDATASIZE PUSH1 0x1F NOT PUSH1 0x1F DUP3 ADD AND DUP3 ADD DUP1 PUSH1 0x40 MSTORE POP DUP2 ADD SWAP1 PUSH2 0x10E4 SWAP2 SWAP1 PUSH2 0x4EBF JUMP JUMPDEST POP SWAP1 POP PUSH1 0x0 DUP2 PUSH1 0x0 DUP2 MLOAD DUP2 LT PUSH2 0x10FD JUMPI PUSH2 0x10FC PUSH2 0x4B94 JUMP JUMPDEST JUMPDEST PUSH1 0x20 MUL PUSH1 0x20 ADD ADD MLOAD DUP3 PUSH1 0x1 DUP2 MLOAD DUP2 LT PUSH2 0x1119 JUMPI PUSH2 0x1118 PUSH2 0x4B94 JUMP JUMPDEST JUMPDEST PUSH1 0x20 MUL PUSH1 0x20 ADD ADD MLOAD PUSH2 0x112B SWAP2 SWAP1 PUSH2 0x4F37 JUMP JUMPDEST SWAP1 POP PUSH1 0xB PUSH1 0x1C SWAP1 SLOAD SWAP1 PUSH2 0x100 EXP SWAP1 DIV PUSH4 0xFFFFFFFF AND PUSH1 0x3 SIGNEXTEND DUP2 PUSH2 0x114E SWAP2 SWAP1 PUSH2 0x4FE1 JUMP JUMPDEST SWAP4 POP PUSH1 0x0 DUP2 PUSH1 0x6 SIGNEXTEND SLT DUP1 ISZERO PUSH2 0x1187 JUMPI POP PUSH1 0x0 PUSH1 0xB PUSH1 0x1C SWAP1 SLOAD SWAP1 PUSH2 0x100 EXP SWAP1 DIV PUSH4 0xFFFFFFFF AND PUSH1 0x3 SIGNEXTEND DUP3 PUSH2 0x1181 SWAP2 SWAP1 PUSH2 0x504B JUMP JUMPDEST PUSH1 0x6 SIGNEXTEND EQ ISZERO JUMPDEST ISZERO PUSH2 0x119B JUMPI DUP4 DUP1 PUSH2 0x1197 SWAP1 PUSH2 0x507C JUMP JUMPDEST SWAP5 POP POP JUMPDEST POP POP POP SWAP1 JUMP JUMPDEST PUSH1 0x0 DUP1 PUSH1 0x0 DUP1 PUSH2 0x11AF PUSH2 0x2616 JUMP JUMPDEST SWAP2 POP SWAP2 POP PUSH1 0x0 PUSH1 0x1 SWAP1 POP PUSH1 0x0 PUSH1 0x1 SWAP1 POP PUSH1 0x0 DUP3 PUSH16 0xFFFFFFFFFFFFFFFFFFFFFFFFFFFFFFFF AND DUP6 PUSH2 0x11DF SWAP2 SWAP1 PUSH2 0x4A8E JUMP JUMPDEST SWAP1 POP PUSH1 0x0 DUP3 PUSH16 0xFFFFFFFFFFFFFFFFFFFFFFFFFFFFFFFF AND DUP6 PUSH2 0x1201 SWAP2 SWAP1 PUSH2 0x4A8E JUMP JUMPDEST SWAP1 POP DUP9 DUP11 DUP4 PUSH2 0x1210 SWAP2 SWAP1 PUSH2 0x4A8E JUMP JUMPDEST PUSH2 0x121A SWAP2 SWAP1 PUSH2 0x50C5 JUMP JUMPDEST SWAP8 POP DUP9 DUP11 DUP3 PUSH2 0x1229 SWAP2 SWAP1 PUSH2 0x4A8E JUMP JUMPDEST PUSH2 0x1233 SWAP2 SWAP1 PUSH2 0x50C5 JUMP JUMPDEST SWAP7 POP PUSH2 0x1280 DUP12 DUP10 PUSH32 0x0 PUSH20 0xFFFFFFFFFFFFFFFFFFFFFFFFFFFFFFFFFFFFFFFF AND PUSH2 0x27CE SWAP1 SWAP3 SWAP2 SWAP1 PUSH4 0xFFFFFFFF AND JUMP JUMPDEST PUSH2 0x12CB DUP12 DUP9 PUSH32 0x0 PUSH20 0xFFFFFFFFFFFFFFFFFFFFFFFFFFFFFFFFFFFFFFFF AND PUSH2 0x27CE SWAP1 SWAP3 SWAP2 SWAP1 PUSH4 0xFFFFFFFF AND JUMP JUMPDEST POP POP POP POP POP POP SWAP4 POP SWAP4 SWAP2 POP POP JUMP JUMPDEST PUSH32 0x0 DUP2 JUMP JUMPDEST PUSH32 0x0 PUSH20 0xFFFFFFFFFFFFFFFFFFFFFFFFFFFFFFFFFFFFFFFF AND CALLER PUSH20 0xFFFFFFFFFFFFFFFFFFFFFFFFFFFFFFFFFFFFFFFF AND EQ PUSH2 0x138B JUMPI PUSH1 0x40 MLOAD PUSH32 0x8C379A000000000000000000000000000000000000000000000000000000000 DUP2 MSTORE PUSH1 0x4 ADD PUSH2 0x1382 SWAP1 PUSH2 0x5142 JUMP JUMPDEST PUSH1 0x40 MLOAD DUP1 SWAP2 SUB SWAP1 REVERT JUMPDEST PUSH1 0x1 PUSH1 0x12 PUSH1 0x1 PUSH2 0x100 EXP DUP2 SLOAD DUP2 PUSH1 0xFF MUL NOT AND SWAP1 DUP4 ISZERO ISZERO MUL OR SWAP1 SSTORE POP PUSH32 0x0 PUSH20 0xFFFFFFFFFFFFFFFFFFFFFFFFFFFFFFFFFFFFFFFF AND PUSH4 0xA34123A7 DUP8 DUP8 DUP8 PUSH1 0x40 MLOAD DUP5 PUSH4 0xFFFFFFFF AND PUSH1 0xE0 SHL DUP2 MSTORE PUSH1 0x4 ADD PUSH2 0x1403 SWAP4 SWAP3 SWAP2 SWAP1 PUSH2 0x4A28 JUMP JUMPDEST PUSH1 0x40 DUP1 MLOAD DUP1 DUP4 SUB DUP2 PUSH1 0x0 DUP8 GAS CALL ISZERO DUP1 ISZERO PUSH2 0x1421 JUMPI RETURNDATASIZE PUSH1 0x0 DUP1 RETURNDATACOPY RETURNDATASIZE PUSH1 0x0 REVERT JUMPDEST POP POP POP POP PUSH1 0x40 MLOAD RETURNDATASIZE PUSH1 0x1F NOT PUSH1 0x1F DUP3 ADD AND DUP3 ADD DUP1 PUSH1 0x40 MSTORE POP DUP2 ADD SWAP1 PUSH2 0x1445 SWAP2 SWAP1 PUSH2 0x49E8 JUMP JUMPDEST POP POP PUSH32 0x0 PUSH20 0xFFFFFFFFFFFFFFFFFFFFFFFFFFFFFFFFFFFFFFFF AND PUSH4 0x4F1EB3D8 ADDRESS DUP9 DUP9 PUSH16 0xFFFFFFFFFFFFFFFFFFFFFFFFFFFFFFFF DUP1 PUSH1 0x40 MLOAD DUP7 PUSH4 0xFFFFFFFF AND PUSH1 0xE0 SHL DUP2 MSTORE PUSH1 0x4 ADD PUSH2 0x14B8 SWAP6 SWAP5 SWAP4 SWAP3 SWAP2 SWAP1 PUSH2 0x5162 JUMP JUMPDEST PUSH1 0x40 DUP1 MLOAD DUP1 DUP4 SUB DUP2 PUSH1 0x0 DUP8 GAS CALL ISZERO DUP1 ISZERO PUSH2 0x14D6 JUMPI RETURNDATASIZE PUSH1 0x0 DUP1 RETURNDATACOPY RETURNDATASIZE PUSH1 0x0 REVERT JUMPDEST POP POP POP POP PUSH1 0x40 MLOAD RETURNDATASIZE PUSH1 0x1F NOT PUSH1 0x1F DUP3 ADD AND DUP3 ADD DUP1 PUSH1 0x40 MSTORE POP DUP2 ADD SWAP1 PUSH2 0x14FA SWAP2 SWAP1 PUSH2 0x51CA JUMP JUMPDEST POP POP PUSH1 0x0 DUP4 GT ISZERO PUSH2 0x1531 JUMPI PUSH2 0x1530 PUSH32 0x0 DUP5 DUP4 PUSH2 0x2854 JUMP JUMPDEST JUMPDEST PUSH1 0x0 DUP3 GT ISZERO PUSH2 0x1566 JUMPI PUSH2 0x1565 PUSH32 0x0 DUP4 DUP4 PUSH2 0x2854 JUMP JUMPDEST JUMPDEST PUSH2 0x166A PUSH32 0x0 PUSH32 0x0 PUSH20 0xFFFFFFFFFFFFFFFFFFFFFFFFFFFFFFFFFFFFFFFF AND PUSH4 0x70A08231 ADDRESS PUSH1 0x40 MLOAD DUP3 PUSH4 0xFFFFFFFF AND PUSH1 0xE0 SHL DUP2 MSTORE PUSH1 0x4 ADD PUSH2 0x15E3 SWAP2 SWAP1 PUSH2 0x3EB6 JUMP JUMPDEST PUSH1 0x20 PUSH1 0x40 MLOAD DUP1 DUP4 SUB DUP2 DUP7 GAS STATICCALL ISZERO DUP1 ISZERO PUSH2 0x1600 JUMPI RETURNDATASIZE PUSH1 0x0 DUP1 RETURNDATACOPY RETURNDATASIZE PUSH1 0x0 REVERT JUMPDEST POP POP POP POP PUSH1 0x40 MLOAD RETURNDATASIZE PUSH1 0x1F NOT PUSH1 0x1F DUP3 ADD AND DUP3 ADD DUP1 PUSH1 0x40 MSTORE POP DUP2 ADD SWAP1 PUSH2 0x1624 SWAP2 SWAP1 PUSH2 0x47E3 JUMP JUMPDEST PUSH32 0x0 PUSH20 0xFFFFFFFFFFFFFFFFFFFFFFFFFFFFFFFFFFFFFFFF AND PUSH2 0x27CE SWAP1 SWAP3 SWAP2 SWAP1 PUSH4 0xFFFFFFFF AND JUMP JUMPDEST PUSH2 0x176E PUSH32 0x0 PUSH32 0x0 PUSH20 0xFFFFFFFFFFFFFFFFFFFFFFFFFFFFFFFFFFFFFFFF AND PUSH4 0x70A08231 ADDRESS PUSH1 0x40 MLOAD DUP3 PUSH4 0xFFFFFFFF AND PUSH1 0xE0 SHL DUP2 MSTORE PUSH1 0x4 ADD PUSH2 0x16E7 SWAP2 SWAP1 PUSH2 0x3EB6 JUMP JUMPDEST PUSH1 0x20 PUSH1 0x40 MLOAD DUP1 DUP4 SUB DUP2 DUP7 GAS STATICCALL ISZERO DUP1 ISZERO PUSH2 0x1704 JUMPI RETURNDATASIZE PUSH1 0x0 DUP1 RETURNDATACOPY RETURNDATASIZE PUSH1 0x0 REVERT JUMPDEST POP POP POP POP PUSH1 0x40 MLOAD RETURNDATASIZE PUSH1 0x1F NOT PUSH1 0x1F DUP3 ADD AND DUP3 ADD DUP1 PUSH1 0x40 MSTORE POP DUP2 ADD SWAP1 PUSH2 0x1728 SWAP2 SWAP1 PUSH2 0x47E3 JUMP JUMPDEST PUSH32 0x0 PUSH20 0xFFFFFFFFFFFFFFFFFFFFFFFFFFFFFFFFFFFFFFFF AND PUSH2 0x27CE SWAP1 SWAP3 SWAP2 SWAP1 PUSH4 0xFFFFFFFF AND JUMP JUMPDEST POP POP POP POP POP POP JUMP JUMPDEST PUSH1 0xB PUSH1 0x0 SWAP1 SLOAD SWAP1 PUSH2 0x100 EXP SWAP1 DIV PUSH20 0xFFFFFFFFFFFFFFFFFFFFFFFFFFFFFFFFFFFFFFFF AND DUP2 JUMP JUMPDEST PUSH32 0x0 DUP2 JUMP JUMPDEST PUSH1 0xC PUSH1 0xA SWAP1 SLOAD SWAP1 PUSH2 0x100 EXP SWAP1 DIV PUSH1 0x2 SIGNEXTEND DUP2 JUMP JUMPDEST PUSH32 0x0 DUP2 JUMP JUMPDEST PUSH1 0x0 DUP1 PUSH2 0x186D PUSH2 0x1805 PUSH2 0xF27 JUMP JUMPDEST PUSH32 0x0 PUSH32 0x0 PUSH32 0x0 PUSH2 0xCD5 JUMP JUMPDEST SWAP1 POP PUSH1 0x0 DUP2 GT PUSH2 0x18B2 JUMPI PUSH1 0x40 MLOAD PUSH32 0x8C379A000000000000000000000000000000000000000000000000000000000 DUP2 MSTORE PUSH1 0x4 ADD PUSH2 0x18A9 SWAP1 PUSH2 0x5256 JUMP JUMPDEST PUSH1 0x40 MLOAD DUP1 SWAP2 SUB SWAP1 REVERT JUMPDEST DUP1 SWAP2 POP POP SWAP1 JUMP JUMPDEST PUSH1 0x0 DUP1 PUSH1 0x0 DUP1 PUSH1 0x0 PUSH2 0x18CB DUP8 DUP8 PUSH2 0x2AE5 JUMP JUMPDEST SWAP5 POP SWAP5 POP POP POP SWAP3 POP PUSH2 0x18DE DUP8 DUP8 DUP6 PUSH2 0x2BAA JUMP JUMPDEST DUP1 SWAP6 POP DUP2 SWAP7 POP POP POP DUP2 PUSH16 0xFFFFFFFFFFFFFFFFFFFFFFFFFFFFFFFF AND DUP6 PUSH2 0x1904 SWAP2 SWAP1 PUSH2 0x5276 JUMP JUMPDEST SWAP5 POP DUP1 PUSH16 0xFFFFFFFFFFFFFFFFFFFFFFFFFFFFFFFF AND DUP5 PUSH2 0x1924 SWAP2 SWAP1 PUSH2 0x5276 JUMP JUMPDEST SWAP4 POP POP POP POP SWAP3 POP SWAP3 SWAP1 POP JUMP JUMPDEST PUSH1 0xB PUSH1 0x19 SWAP1 SLOAD SWAP1 PUSH2 0x100 EXP SWAP1 DIV PUSH1 0xFF AND DUP2 JUMP JUMPDEST PUSH32 0x0 DUP2 JUMP JUMPDEST PUSH32 0x0 DUP2 JUMP JUMPDEST PUSH1 0xB PUSH1 0x1B SWAP1 SLOAD SWAP1 PUSH2 0x100 EXP SWAP1 DIV PUSH1 0xFF AND DUP2 JUMP JUMPDEST PUSH1 0x0 DUP1 PUSH1 0x0 DUP1 PUSH2 0x19AC PUSH2 0x17F7 JUMP JUMPDEST SWAP1 POP PUSH1 0x0 DUP1 PUSH2 0x19B9 PUSH2 0x2616 JUMP JUMPDEST SWAP2 POP SWAP2 POP PUSH1 0x0 DUP4 DUP9 PUSH2 0x19CB SWAP2 SWAP1 PUSH2 0x50C5 JUMP JUMPDEST DUP10 PUSH2 0x19D6 SWAP2 SWAP1 PUSH2 0x5276 JUMP JUMPDEST SWAP1 POP PUSH1 0x0 DUP5 DUP4 PUSH2 0x19E6 SWAP2 SWAP1 PUSH2 0x50C5 JUMP JUMPDEST DUP5 PUSH2 0x19F1 SWAP2 SWAP1 PUSH2 0x5276 JUMP JUMPDEST SWAP1 POP DUP1 DUP12 DUP4 PUSH2 0x1A00 SWAP2 SWAP1 PUSH2 0x4A8E JUMP JUMPDEST PUSH2 0x1A0A SWAP2 SWAP1 PUSH2 0x50C5 JUMP JUMPDEST SWAP8 POP DUP10 DUP10 DUP1 SWAP8 POP DUP2 SWAP9 POP POP POP POP POP POP POP POP SWAP4 POP SWAP4 POP SWAP4 SWAP1 POP JUMP JUMPDEST PUSH1 0x0 PUSH2 0x1A2E PUSH2 0x2C6F JUMP JUMPDEST PUSH1 0x1 SWAP1 POP SWAP1 JUMP JUMPDEST PUSH32 0x0 DUP2 JUMP JUMPDEST PUSH1 0xE SLOAD DUP2 JUMP JUMPDEST PUSH1 0xF SLOAD DUP2 JUMP JUMPDEST PUSH1 0xB PUSH1 0x17 SWAP1 SLOAD SWAP1 PUSH2 0x100 EXP SWAP1 DIV PUSH1 0xFF AND DUP2 JUMP JUMPDEST PUSH1 0xB PUSH1 0x15 SWAP1 SLOAD SWAP1 PUSH2 0x100 EXP SWAP1 DIV PUSH1 0xFF AND DUP2 JUMP JUMPDEST PUSH1 0xC PUSH1 0x4 SWAP1 SLOAD SWAP1 PUSH2 0x100 EXP SWAP1 DIV PUSH1 0x2 SIGNEXTEND DUP2 JUMP JUMPDEST PUSH32 0x0 PUSH20 0xFFFFFFFFFFFFFFFFFFFFFFFFFFFFFFFFFFFFFFFF AND DUP3 PUSH20 0xFFFFFFFFFFFFFFFFFFFFFFFFFFFFFFFFFFFFFFFF AND EQ ISZERO PUSH2 0x1B00 JUMPI PUSH2 0x1AFB DUP2 PUSH2 0x2C81 JUMP JUMPDEST PUSH2 0x1B6B JUMP JUMPDEST PUSH2 0x1B6A DUP3 PUSH1 0xD PUSH1 0x0 DUP6 PUSH20 0xFFFFFFFFFFFFFFFFFFFFFFFFFFFFFFFFFFFFFFFF AND PUSH20 0xFFFFFFFFFFFFFFFFFFFFFFFFFFFFFFFFFFFFFFFF AND DUP2 MSTORE PUSH1 0x20 ADD SWAP1 DUP2 MSTORE PUSH1 0x20 ADD PUSH1 0x0 KECCAK256 PUSH1 0x0 SWAP1 SLOAD SWAP1 PUSH2 0x100 EXP SWAP1 DIV PUSH20 0xFFFFFFFFFFFFFFFFFFFFFFFFFFFFFFFFFFFFFFFF AND DUP4 PUSH2 0x9F5 JUMP JUMPDEST JUMPDEST POP POP JUMP JUMPDEST PUSH32 0x0 DUP2 JUMP JUMPDEST PUSH32 0x0 DUP2 JUMP JUMPDEST PUSH32 0x0 PUSH20 0xFFFFFFFFFFFFFFFFFFFFFFFFFFFFFFFFFFFFFFFF AND CALLER PUSH20 0xFFFFFFFFFFFFFFFFFFFFFFFFFFFFFFFFFFFFFFFF AND EQ PUSH2 0x1C45 JUMPI PUSH1 0x40 MLOAD PUSH32 0x8C379A000000000000000000000000000000000000000000000000000000000 DUP2 MSTORE PUSH1 0x4 ADD PUSH2 0x1C3C SWAP1 PUSH2 0x5318 JUMP JUMPDEST PUSH1 0x40 MLOAD DUP1 SWAP2 SUB SWAP1 REVERT JUMPDEST PUSH2 0x1C90 CALLER DUP6 PUSH32 0x0 PUSH20 0xFFFFFFFFFFFFFFFFFFFFFFFFFFFFFFFFFFFFFFFF AND PUSH2 0x27CE SWAP1 SWAP3 SWAP2 SWAP1 PUSH4 0xFFFFFFFF AND JUMP JUMPDEST PUSH2 0x1CDB CALLER DUP5 PUSH32 0x0 PUSH20 0xFFFFFFFFFFFFFFFFFFFFFFFFFFFFFFFFFFFFFFFF AND PUSH2 0x27CE SWAP1 SWAP3 SWAP2 SWAP1 PUSH4 0xFFFFFFFF AND JUMP JUMPDEST POP POP POP POP JUMP JUMPDEST PUSH1 0xC PUSH1 0x7 SWAP1 SLOAD SWAP1 PUSH2 0x100 EXP SWAP1 DIV PUSH1 0x2 SIGNEXTEND DUP2 JUMP JUMPDEST PUSH1 0xC PUSH1 0xD SWAP1 SLOAD SWAP1 PUSH2 0x100 EXP SWAP1 DIV PUSH1 0x2 SIGNEXTEND DUP2 JUMP JUMPDEST PUSH1 0xB PUSH1 0x18 SWAP1 SLOAD SWAP1 PUSH2 0x100 EXP SWAP1 DIV PUSH1 0xFF AND DUP2 JUMP JUMPDEST PUSH1 0xB PUSH1 0x1A SWAP1 SLOAD SWAP1 PUSH2 0x100 EXP SWAP1 DIV PUSH1 0xFF AND DUP2 JUMP JUMPDEST PUSH32 0x0 PUSH20 0xFFFFFFFFFFFFFFFFFFFFFFFFFFFFFFFFFFFFFFFF AND CALLER PUSH20 0xFFFFFFFFFFFFFFFFFFFFFFFFFFFFFFFFFFFFFFFF AND EQ PUSH2 0x1DBB JUMPI PUSH1 0x40 MLOAD PUSH32 0x8C379A000000000000000000000000000000000000000000000000000000000 DUP2 MSTORE PUSH1 0x4 ADD PUSH2 0x1DB2 SWAP1 PUSH2 0x5384 JUMP JUMPDEST PUSH1 0x40 MLOAD DUP1 SWAP2 SUB SWAP1 REVERT JUMPDEST PUSH2 0x1E06 CALLER DUP6 PUSH32 0x0 PUSH20 0xFFFFFFFFFFFFFFFFFFFFFFFFFFFFFFFFFFFFFFFF AND PUSH2 0x27CE SWAP1 SWAP3 SWAP2 SWAP1 PUSH4 0xFFFFFFFF AND JUMP JUMPDEST PUSH2 0x1E51 CALLER DUP5 PUSH32 0x0 PUSH20 0xFFFFFFFFFFFFFFFFFFFFFFFFFFFFFFFFFFFFFFFF AND PUSH2 0x27CE SWAP1 SWAP3 SWAP2 SWAP1 PUSH4 0xFFFFFFFF AND JUMP JUMPDEST POP POP POP POP JUMP JUMPDEST PUSH32 0x0 DUP2 JUMP JUMPDEST PUSH1 0x0 DUP1 PUSH1 0x0 DUP4 PUSH1 0x2 SIGNEXTEND SLT PUSH2 0x1E92 JUMPI DUP3 PUSH1 0x2 SIGNEXTEND PUSH2 0x1EA0 JUMP JUMPDEST DUP3 PUSH1 0x2 SIGNEXTEND PUSH2 0x1E9F SWAP1 PUSH2 0x53A4 JUMP JUMPDEST JUMPDEST SWAP1 POP PUSH32 0xFFFFFFFFFFFFFFFFFFFFFFFFFFFFFFFFFFFFFFFFFFFFFFFFFFFFFFFFFFF27618 PUSH2 0x1ECC SWAP1 PUSH2 0x53ED JUMP JUMPDEST PUSH3 0xFFFFFF AND DUP2 GT ISZERO PUSH2 0x1F13 JUMPI PUSH1 0x40 MLOAD PUSH32 0x8C379A000000000000000000000000000000000000000000000000000000000 DUP2 MSTORE PUSH1 0x4 ADD PUSH2 0x1F0A SWAP1 PUSH2 0x5482 JUMP JUMPDEST PUSH1 0x40 MLOAD DUP1 SWAP2 SUB SWAP1 REVERT JUMPDEST PUSH1 0x0 DUP1 PUSH1 0x1 DUP4 AND EQ ISZERO PUSH2 0x1F37 JUMPI PUSH17 0x100000000000000000000000000000000 PUSH2 0x1F49 JUMP JUMPDEST PUSH16 0xFFFCB933BD6FAD37AA2D162D1A594001 JUMPDEST PUSH17 0xFFFFFFFFFFFFFFFFFFFFFFFFFFFFFFFFFF AND SWAP1 POP PUSH1 0x0 PUSH1 0x2 DUP4 AND EQ PUSH2 0x1F8C JUMPI PUSH1 0x80 PUSH16 0xFFF97272373D413259A46990580E213A DUP3 PUSH2 0x1F87 SWAP2 SWAP1 PUSH2 0x4A8E JUMP JUMPDEST SWAP1 SHR SWAP1 POP JUMPDEST PUSH1 0x0 PUSH1 0x4 DUP4 AND EQ PUSH2 0x1FBA JUMPI PUSH1 0x80 PUSH16 0xFFF2E50F5F656932EF12357CF3C7FDCC DUP3 PUSH2 0x1FB5 SWAP2 SWAP1 PUSH2 0x4A8E JUMP JUMPDEST SWAP1 SHR SWAP1 POP JUMPDEST PUSH1 0x0 PUSH1 0x8 DUP4 AND EQ PUSH2 0x1FE8 JUMPI PUSH1 0x80 PUSH16 0xFFE5CACA7E10E4E61C3624EAA0941CD0 DUP3 PUSH2 0x1FE3 SWAP2 SWAP1 PUSH2 0x4A8E JUMP JUMPDEST SWAP1 SHR SWAP1 POP JUMPDEST PUSH1 0x0 PUSH1 0x10 DUP4 AND EQ PUSH2 0x2016 JUMPI PUSH1 0x80 PUSH16 0xFFCB9843D60F6159C9DB58835C926644 DUP3 PUSH2 0x2011 SWAP2 SWAP1 PUSH2 0x4A8E JUMP JUMPDEST SWAP1 SHR SWAP1 POP JUMPDEST PUSH1 0x0 PUSH1 0x20 DUP4 AND EQ PUSH2 0x2044 JUMPI PUSH1 0x80 PUSH16 0xFF973B41FA98C081472E6896DFB254C0 DUP3 PUSH2 0x203F SWAP2 SWAP1 PUSH2 0x4A8E JUMP JUMPDEST SWAP1 SHR SWAP1 POP JUMPDEST PUSH1 0x0 PUSH1 0x40 DUP4 AND EQ PUSH2 0x2072 JUMPI PUSH1 0x80 PUSH16 0xFF2EA16466C96A3843EC78B326B52861 DUP3 PUSH2 0x206D SWAP2 SWAP1 PUSH2 0x4A8E JUMP JUMPDEST SWAP1 SHR SWAP1 POP JUMPDEST PUSH1 0x0 PUSH1 0x80 DUP4 AND EQ PUSH2 0x20A0 JUMPI PUSH1 0x80 PUSH16 0xFE5DEE046A99A2A811C461F1969C3053 DUP3 PUSH2 0x209B SWAP2 SWAP1 PUSH2 0x4A8E JUMP JUMPDEST SWAP1 SHR SWAP1 POP JUMPDEST PUSH1 0x0 PUSH2 0x100 DUP4 AND EQ PUSH2 0x20CF JUMPI PUSH1 0x80 PUSH16 0xFCBE86C7900A88AEDCFFC83B479AA3A4 DUP3 PUSH2 0x20CA SWAP2 SWAP1 PUSH2 0x4A8E JUMP JUMPDEST SWAP1 SHR SWAP1 POP JUMPDEST PUSH1 0x0 PUSH2 0x200 DUP4 AND EQ PUSH2 0x20FE JUMPI PUSH1 0x80 PUSH16 0xF987A7253AC413176F2B074CF7815E54 DUP3 PUSH2 0x20F9 SWAP2 SWAP1 PUSH2 0x4A8E JUMP JUMPDEST SWAP1 SHR SWAP1 POP JUMPDEST PUSH1 0x0 PUSH2 0x400 DUP4 AND EQ PUSH2 0x212D JUMPI PUSH1 0x80 PUSH16 0xF3392B0822B70005940C7A398E4B70F3 DUP3 PUSH2 0x2128 SWAP2 SWAP1 PUSH2 0x4A8E JUMP JUMPDEST SWAP1 SHR SWAP1 POP JUMPDEST PUSH1 0x0 PUSH2 0x800 DUP4 AND EQ PUSH2 0x215C JUMPI PUSH1 0x80 PUSH16 0xE7159475A2C29B7443B29C7FA6E889D9 DUP3 PUSH2 0x2157 SWAP2 SWAP1 PUSH2 0x4A8E JUMP JUMPDEST SWAP1 SHR SWAP1 POP JUMPDEST PUSH1 0x0 PUSH2 0x1000 DUP4 AND EQ PUSH2 0x218B JUMPI PUSH1 0x80 PUSH16 0xD097F3BDFD2022B8845AD8F792AA5825 DUP3 PUSH2 0x2186 SWAP2 SWAP1 PUSH2 0x4A8E JUMP JUMPDEST SWAP1 SHR SWAP1 POP JUMPDEST PUSH1 0x0 PUSH2 0x2000 DUP4 AND EQ PUSH2 0x21BA JUMPI PUSH1 0x80 PUSH16 0xA9F746462D870FDF8A65DC1F90E061E5 DUP3 PUSH2 0x21B5 SWAP2 SWAP1 PUSH2 0x4A8E JUMP JUMPDEST SWAP1 SHR SWAP1 POP JUMPDEST PUSH1 0x0 PUSH2 0x4000 DUP4 AND EQ PUSH2 0x21E9 JUMPI PUSH1 0x80 PUSH16 0x70D869A156D2A1B890BB3DF62BAF32F7 DUP3 PUSH2 0x21E4 SWAP2 SWAP1 PUSH2 0x4A8E JUMP JUMPDEST SWAP1 SHR SWAP1 POP JUMPDEST PUSH1 0x0 PUSH2 0x8000 DUP4 AND EQ PUSH2 0x2218 JUMPI PUSH1 0x80 PUSH16 0x31BE135F97D08FD981231505542FCFA6 DUP3 PUSH2 0x2213 SWAP2 SWAP1 PUSH2 0x4A8E JUMP JUMPDEST SWAP1 SHR SWAP1 POP JUMPDEST PUSH1 0x0 PUSH3 0x10000 DUP4 AND EQ PUSH2 0x2248 JUMPI PUSH1 0x80 PUSH16 0x9AA508B5B7A84E1C677DE54F3E99BC9 DUP3 PUSH2 0x2243 SWAP2 SWAP1 PUSH2 0x4A8E JUMP JUMPDEST SWAP1 SHR SWAP1 POP JUMPDEST PUSH1 0x0 PUSH3 0x20000 DUP4 AND EQ PUSH2 0x2277 JUMPI PUSH1 0x80 PUSH15 0x5D6AF8DEDB81196699C329225EE604 DUP3 PUSH2 0x2272 SWAP2 SWAP1 PUSH2 0x4A8E JUMP JUMPDEST SWAP1 SHR SWAP1 POP JUMPDEST PUSH1 0x0 PUSH3 0x40000 DUP4 AND EQ PUSH2 0x22A5 JUMPI PUSH1 0x80 PUSH14 0x2216E584F5FA1EA926041BEDFE98 DUP3 PUSH2 0x22A0 SWAP2 SWAP1 PUSH2 0x4A8E JUMP JUMPDEST SWAP1 SHR SWAP1 POP JUMPDEST PUSH1 0x0 PUSH3 0x80000 DUP4 AND EQ PUSH2 0x22D1 JUMPI PUSH1 0x80 PUSH12 0x48A170391F7DC42444E8FA2 DUP3 PUSH2 0x22CC SWAP2 SWAP1 PUSH2 0x4A8E JUMP JUMPDEST SWAP1 SHR SWAP1 POP JUMPDEST PUSH1 0x0 DUP5 PUSH1 0x2 SIGNEXTEND SGT ISZERO PUSH2 0x230C JUMPI DUP1 PUSH32 0xFFFFFFFFFFFFFFFFFFFFFFFFFFFFFFFFFFFFFFFFFFFFFFFFFFFFFFFFFFFFFFFF PUSH2 0x2309 SWAP2 SWAP1 PUSH2 0x50C5 JUMP JUMPDEST SWAP1 POP JUMPDEST PUSH1 0x0 PUSH5 0x100000000 DUP3 PUSH2 0x231F SWAP2 SWAP1 PUSH2 0x54A2 JUMP JUMPDEST EQ PUSH2 0x232B JUMPI PUSH1 0x1 PUSH2 0x232E JUMP JUMPDEST PUSH1 0x0 JUMPDEST PUSH1 0xFF AND PUSH1 0x20 DUP3 SWAP1 SHR PUSH2 0x2340 SWAP2 SWAP1 PUSH2 0x5276 JUMP JUMPDEST SWAP3 POP POP POP SWAP2 SWAP1 POP JUMP JUMPDEST PUSH1 0x0 DUP4 PUSH20 0xFFFFFFFFFFFFFFFFFFFFFFFFFFFFFFFFFFFFFFFF AND DUP6 PUSH20 0xFFFFFFFFFFFFFFFFFFFFFFFFFFFFFFFFFFFFFFFF AND GT ISZERO PUSH2 0x238A JUMPI DUP4 DUP6 DUP1 SWAP6 POP DUP2 SWAP7 POP POP POP JUMPDEST DUP5 PUSH20 0xFFFFFFFFFFFFFFFFFFFFFFFFFFFFFFFFFFFFFFFF AND DUP7 PUSH20 0xFFFFFFFFFFFFFFFFFFFFFFFFFFFFFFFFFFFFFFFF AND GT PUSH2 0x23CF JUMPI PUSH2 0x23C8 DUP6 DUP6 DUP6 PUSH2 0x2D0E JUMP JUMPDEST SWAP1 POP PUSH2 0x246C JUMP JUMPDEST DUP4 PUSH20 0xFFFFFFFFFFFFFFFFFFFFFFFFFFFFFFFFFFFFFFFF AND DUP7 PUSH20 0xFFFFFFFFFFFFFFFFFFFFFFFFFFFFFFFFFFFFFFFF AND LT ISZERO PUSH2 0x245D JUMPI PUSH1 0x0 PUSH2 0x2410 DUP8 DUP7 DUP7 PUSH2 0x2D0E JUMP JUMPDEST SWAP1 POP PUSH1 0x0 PUSH2 0x241F DUP8 DUP10 DUP7 PUSH2 0x2DD5 JUMP JUMPDEST SWAP1 POP DUP1 PUSH16 0xFFFFFFFFFFFFFFFFFFFFFFFFFFFFFFFF AND DUP3 PUSH16 0xFFFFFFFFFFFFFFFFFFFFFFFFFFFFFFFF AND LT PUSH2 0x2452 JUMPI DUP1 PUSH2 0x2454 JUMP JUMPDEST DUP2 JUMPDEST SWAP3 POP POP POP PUSH2 0x246B JUMP JUMPDEST PUSH2 0x2468 DUP6 DUP6 DUP5 PUSH2 0x2DD5 JUMP JUMPDEST SWAP1 POP JUMPDEST JUMPDEST SWAP6 SWAP5 POP POP POP POP POP JUMP JUMPDEST PUSH1 0x0 DUP1 PUSH1 0x0 DUP1 NOT DUP6 DUP8 MULMOD DUP6 DUP8 MUL SWAP3 POP DUP3 DUP2 LT DUP4 DUP3 SUB SUB SWAP2 POP POP PUSH1 0x0 DUP2 EQ ISZERO PUSH2 0x24B0 JUMPI PUSH1 0x0 DUP5 GT PUSH2 0x24A4 JUMPI PUSH1 0x0 DUP1 REVERT JUMPDEST DUP4 DUP3 DIV SWAP3 POP POP POP PUSH2 0x260F JUMP JUMPDEST DUP1 DUP5 GT PUSH2 0x24BC JUMPI PUSH1 0x0 DUP1 REVERT JUMPDEST PUSH1 0x0 DUP5 DUP7 DUP9 MULMOD SWAP1 POP DUP3 DUP2 GT DUP3 SUB SWAP2 POP DUP1 DUP4 SUB SWAP3 POP PUSH1 0x0 PUSH1 0x1 DUP7 NOT PUSH2 0x24E0 SWAP2 SWAP1 PUSH2 0x5276 JUMP JUMPDEST DUP7 AND SWAP1 POP DUP1 DUP7 DIV SWAP6 POP DUP1 DUP5 DIV SWAP4 POP PUSH1 0x1 DUP2 DUP3 PUSH1 0x0 SUB DIV ADD SWAP1 POP DUP1 DUP4 PUSH2 0x2505 SWAP2 SWAP1 PUSH2 0x4A8E JUMP JUMPDEST DUP5 OR SWAP4 POP PUSH1 0x0 PUSH1 0x2 DUP8 PUSH1 0x3 PUSH2 0x251A SWAP2 SWAP1 PUSH2 0x4A8E JUMP JUMPDEST XOR SWAP1 POP DUP1 DUP8 PUSH2 0x2529 SWAP2 SWAP1 PUSH2 0x4A8E JUMP JUMPDEST PUSH1 0x2 PUSH2 0x2535 SWAP2 SWAP1 PUSH2 0x54D3 JUMP JUMPDEST DUP2 PUSH2 0x2540 SWAP2 SWAP1 PUSH2 0x4A8E JUMP JUMPDEST SWAP1 POP DUP1 DUP8 PUSH2 0x254E SWAP2 SWAP1 PUSH2 0x4A8E JUMP JUMPDEST PUSH1 0x2 PUSH2 0x255A SWAP2 SWAP1 PUSH2 0x54D3 JUMP JUMPDEST DUP2 PUSH2 0x2565 SWAP2 SWAP1 PUSH2 0x4A8E JUMP JUMPDEST SWAP1 POP DUP1 DUP8 PUSH2 0x2573 SWAP2 SWAP1 PUSH2 0x4A8E JUMP JUMPDEST PUSH1 0x2 PUSH2 0x257F SWAP2 SWAP1 PUSH2 0x54D3 JUMP JUMPDEST DUP2 PUSH2 0x258A SWAP2 SWAP1 PUSH2 0x4A8E JUMP JUMPDEST SWAP1 POP DUP1 DUP8 PUSH2 0x2598 SWAP2 SWAP1 PUSH2 0x4A8E JUMP JUMPDEST PUSH1 0x2 PUSH2 0x25A4 SWAP2 SWAP1 PUSH2 0x54D3 JUMP JUMPDEST DUP2 PUSH2 0x25AF SWAP2 SWAP1 PUSH2 0x4A8E JUMP JUMPDEST SWAP1 POP DUP1 DUP8 PUSH2 0x25BD SWAP2 SWAP1 PUSH2 0x4A8E JUMP JUMPDEST PUSH1 0x2 PUSH2 0x25C9 SWAP2 SWAP1 PUSH2 0x54D3 JUMP JUMPDEST DUP2 PUSH2 0x25D4 SWAP2 SWAP1 PUSH2 0x4A8E JUMP JUMPDEST SWAP1 POP DUP1 DUP8 PUSH2 0x25E2 SWAP2 SWAP1 PUSH2 0x4A8E JUMP JUMPDEST PUSH1 0x2 PUSH2 0x25EE SWAP2 SWAP1 PUSH2 0x54D3 JUMP JUMPDEST DUP2 PUSH2 0x25F9 SWAP2 SWAP1 PUSH2 0x4A8E JUMP JUMPDEST SWAP1 POP DUP1 DUP6 PUSH2 0x2607 SWAP2 SWAP1 PUSH2 0x4A8E JUMP JUMPDEST SWAP6 POP POP POP POP POP POP JUMPDEST SWAP4 SWAP3 POP POP POP JUMP JUMPDEST PUSH1 0x0 DUP1 PUSH1 0x0 DUP1 PUSH2 0x2644 PUSH1 0xC PUSH1 0x7 SWAP1 SLOAD SWAP1 PUSH2 0x100 EXP SWAP1 DIV PUSH1 0x2 SIGNEXTEND PUSH1 0xC PUSH1 0xA SWAP1 SLOAD SWAP1 PUSH2 0x100 EXP SWAP1 DIV PUSH1 0x2 SIGNEXTEND PUSH2 0x18B9 JUMP JUMPDEST SWAP2 POP SWAP2 POP PUSH1 0x0 DUP1 PUSH2 0x2653 PUSH2 0x2E60 JUMP JUMPDEST SWAP2 POP SWAP2 POP PUSH1 0x0 DUP1 PUSH32 0x0 PUSH20 0xFFFFFFFFFFFFFFFFFFFFFFFFFFFFFFFFFFFFFFFF AND PUSH4 0x70A08231 ADDRESS PUSH1 0x40 MLOAD DUP3 PUSH4 0xFFFFFFFF AND PUSH1 0xE0 SHL DUP2 MSTORE PUSH1 0x4 ADD PUSH2 0x26B3 SWAP2 SWAP1 PUSH2 0x3EB6 JUMP JUMPDEST PUSH1 0x20 PUSH1 0x40 MLOAD DUP1 DUP4 SUB DUP2 DUP7 GAS STATICCALL ISZERO DUP1 ISZERO PUSH2 0x26D0 JUMPI RETURNDATASIZE PUSH1 0x0 DUP1 RETURNDATACOPY RETURNDATASIZE PUSH1 0x0 REVERT JUMPDEST POP POP POP POP PUSH1 0x40 MLOAD RETURNDATASIZE PUSH1 0x1F NOT PUSH1 0x1F DUP3 ADD AND DUP3 ADD DUP1 PUSH1 0x40 MSTORE POP DUP2 ADD SWAP1 PUSH2 0x26F4 SWAP2 SWAP1 PUSH2 0x47E3 JUMP JUMPDEST PUSH32 0x0 PUSH20 0xFFFFFFFFFFFFFFFFFFFFFFFFFFFFFFFFFFFFFFFF AND PUSH4 0x70A08231 ADDRESS PUSH1 0x40 MLOAD DUP3 PUSH4 0xFFFFFFFF AND PUSH1 0xE0 SHL DUP2 MSTORE PUSH1 0x4 ADD PUSH2 0x274D SWAP2 SWAP1 PUSH2 0x3EB6 JUMP JUMPDEST PUSH1 0x20 PUSH1 0x40 MLOAD DUP1 DUP4 SUB DUP2 DUP7 GAS STATICCALL ISZERO DUP1 ISZERO PUSH2 0x276A JUMPI RETURNDATASIZE PUSH1 0x0 DUP1 RETURNDATACOPY RETURNDATASIZE PUSH1 0x0 REVERT JUMPDEST POP POP POP POP PUSH1 0x40 MLOAD RETURNDATASIZE PUSH1 0x1F NOT PUSH1 0x1F DUP3 ADD AND DUP3 ADD DUP1 PUSH1 0x40 MSTORE POP DUP2 ADD SWAP1 PUSH2 0x278E SWAP2 SWAP1 PUSH2 0x47E3 JUMP JUMPDEST SWAP2 POP SWAP2 POP DUP2 DUP5 DUP8 PUSH2 0x279F SWAP2 SWAP1 PUSH2 0x5276 JUMP JUMPDEST PUSH2 0x27A9 SWAP2 SWAP1 PUSH2 0x5276 JUMP JUMPDEST DUP2 DUP5 DUP8 PUSH2 0x27B6 SWAP2 SWAP1 PUSH2 0x5276 JUMP JUMPDEST PUSH2 0x27C0 SWAP2 SWAP1 PUSH2 0x5276 JUMP JUMPDEST SWAP8 POP SWAP8 POP POP POP POP POP POP POP SWAP1 SWAP2 JUMP JUMPDEST PUSH2 0x284F DUP4 PUSH4 0xA9059CBB PUSH1 0xE0 SHL DUP5 DUP5 PUSH1 0x40 MLOAD PUSH1 0x24 ADD PUSH2 0x27ED SWAP3 SWAP2 SWAP1 PUSH2 0x4763 JUMP JUMPDEST PUSH1 0x40 MLOAD PUSH1 0x20 DUP2 DUP4 SUB SUB DUP2 MSTORE SWAP1 PUSH1 0x40 MSTORE SWAP1 PUSH28 0xFFFFFFFFFFFFFFFFFFFFFFFFFFFFFFFFFFFFFFFFFFFFFFFFFFFFFFFF NOT AND PUSH1 0x20 DUP3 ADD DUP1 MLOAD PUSH28 0xFFFFFFFFFFFFFFFFFFFFFFFFFFFFFFFFFFFFFFFFFFFFFFFFFFFFFFFF DUP4 DUP2 DUP4 AND OR DUP4 MSTORE POP POP POP POP PUSH2 0x3061 JUMP JUMPDEST POP POP POP JUMP JUMPDEST PUSH32 0x0 PUSH20 0xFFFFFFFFFFFFFFFFFFFFFFFFFFFFFFFFFFFFFFFF AND DUP4 PUSH20 0xFFFFFFFFFFFFFFFFFFFFFFFFFFFFFFFFFFFFFFFF AND EQ ISZERO PUSH2 0x28B7 JUMPI PUSH2 0x28B2 DUP3 DUP3 PUSH2 0x3128 JUMP JUMPDEST PUSH2 0x2AE0 JUMP JUMPDEST PUSH1 0x0 PUSH1 0x1 ISZERO ISZERO DUP3 ISZERO ISZERO EQ ISZERO PUSH2 0x29A8 JUMPI PUSH1 0xD PUSH1 0x0 DUP6 PUSH20 0xFFFFFFFFFFFFFFFFFFFFFFFFFFFFFFFFFFFFFFFF AND PUSH20 0xFFFFFFFFFFFFFFFFFFFFFFFFFFFFFFFFFFFFFFFF AND DUP2 MSTORE PUSH1 0x20 ADD SWAP1 DUP2 MSTORE PUSH1 0x20 ADD PUSH1 0x0 KECCAK256 PUSH1 0x0 SWAP1 SLOAD SWAP1 PUSH2 0x100 EXP SWAP1 DIV PUSH20 0xFFFFFFFFFFFFFFFFFFFFFFFFFFFFFFFFFFFFFFFF AND PUSH20 0xFFFFFFFFFFFFFFFFFFFFFFFFFFFFFFFFFFFFFFFF AND PUSH4 0xDB006A75 DUP5 PUSH1 0x40 MLOAD DUP3 PUSH4 0xFFFFFFFF AND PUSH1 0xE0 SHL DUP2 MSTORE PUSH1 0x4 ADD PUSH2 0x295E SWAP2 SWAP1 PUSH2 0x3DDE JUMP JUMPDEST PUSH1 0x20 PUSH1 0x40 MLOAD DUP1 DUP4 SUB DUP2 PUSH1 0x0 DUP8 GAS CALL ISZERO DUP1 ISZERO PUSH2 0x297D JUMPI RETURNDATASIZE PUSH1 0x0 DUP1 RETURNDATACOPY RETURNDATASIZE PUSH1 0x0 REVERT JUMPDEST POP POP POP POP PUSH1 0x40 MLOAD RETURNDATASIZE PUSH1 0x1F NOT PUSH1 0x1F DUP3 ADD AND DUP3 ADD DUP1 PUSH1 0x40 MSTORE POP DUP2 ADD SWAP1 PUSH2 0x29A1 SWAP2 SWAP1 PUSH2 0x47E3 JUMP JUMPDEST SWAP1 POP PUSH2 0x2A86 JUMP JUMPDEST PUSH1 0xD PUSH1 0x0 DUP6 PUSH20 0xFFFFFFFFFFFFFFFFFFFFFFFFFFFFFFFFFFFFFFFF AND PUSH20 0xFFFFFFFFFFFFFFFFFFFFFFFFFFFFFFFFFFFFFFFF AND DUP2 MSTORE PUSH1 0x20 ADD SWAP1 DUP2 MSTORE PUSH1 0x20 ADD PUSH1 0x0 KECCAK256 PUSH1 0x0 SWAP1 SLOAD SWAP1 PUSH2 0x100 EXP SWAP1 DIV PUSH20 0xFFFFFFFFFFFFFFFFFFFFFFFFFFFFFFFFFFFFFFFF AND PUSH20 0xFFFFFFFFFFFFFFFFFFFFFFFFFFFFFFFFFFFFFFFF AND PUSH4 0x852A12E3 DUP5 PUSH1 0x40 MLOAD DUP3 PUSH4 0xFFFFFFFF AND PUSH1 0xE0 SHL DUP2 MSTORE PUSH1 0x4 ADD PUSH2 0x2A40 SWAP2 SWAP1 PUSH2 0x3DDE JUMP JUMPDEST PUSH1 0x20 PUSH1 0x40 MLOAD DUP1 DUP4 SUB DUP2 PUSH1 0x0 DUP8 GAS CALL ISZERO DUP1 ISZERO PUSH2 0x2A5F JUMPI RETURNDATASIZE PUSH1 0x0 DUP1 RETURNDATACOPY RETURNDATASIZE PUSH1 0x0 REVERT JUMPDEST POP POP POP POP PUSH1 0x40 MLOAD RETURNDATASIZE PUSH1 0x1F NOT PUSH1 0x1F DUP3 ADD AND DUP3 ADD DUP1 PUSH1 0x40 MSTORE POP DUP2 ADD SWAP1 PUSH2 0x2A83 SWAP2 SWAP1 PUSH2 0x47E3 JUMP JUMPDEST SWAP1 POP JUMPDEST PUSH1 0x0 DUP2 EQ PUSH2 0x2ADE JUMPI PUSH1 0x12 PUSH1 0x1 SWAP1 SLOAD SWAP1 PUSH2 0x100 EXP SWAP1 DIV PUSH1 0xFF AND PUSH2 0x2ADD JUMPI PUSH1 0x40 MLOAD PUSH32 0x8C379A000000000000000000000000000000000000000000000000000000000 DUP2 MSTORE PUSH1 0x4 ADD PUSH2 0x2AD4 SWAP1 PUSH2 0x5553 JUMP JUMPDEST PUSH1 0x40 MLOAD DUP1 SWAP2 SUB SWAP1 REVERT JUMPDEST JUMPDEST POP JUMPDEST POP POP POP JUMP JUMPDEST PUSH1 0x0 DUP1 PUSH1 0x0 DUP1 PUSH1 0x0 DUP1 PUSH2 0x2AF9 ADDRESS DUP10 DUP10 PUSH2 0x32FC JUMP JUMPDEST SWAP1 POP PUSH32 0x0 PUSH20 0xFFFFFFFFFFFFFFFFFFFFFFFFFFFFFFFFFFFFFFFF AND PUSH4 0x514EA4BF DUP3 PUSH1 0x40 MLOAD DUP3 PUSH4 0xFFFFFFFF AND PUSH1 0xE0 SHL DUP2 MSTORE PUSH1 0x4 ADD PUSH2 0x2B54 SWAP2 SWAP1 PUSH2 0x558C JUMP JUMPDEST PUSH1 0xA0 PUSH1 0x40 MLOAD DUP1 DUP4 SUB DUP2 DUP7 GAS STATICCALL ISZERO DUP1 ISZERO PUSH2 0x2B71 JUMPI RETURNDATASIZE PUSH1 0x0 DUP1 RETURNDATACOPY RETURNDATASIZE PUSH1 0x0 REVERT JUMPDEST POP POP POP POP PUSH1 0x40 MLOAD RETURNDATASIZE PUSH1 0x1F NOT PUSH1 0x1F DUP3 ADD AND DUP3 ADD DUP1 PUSH1 0x40 MSTORE POP DUP2 ADD SWAP1 PUSH2 0x2B95 SWAP2 SWAP1 PUSH2 0x55A7 JUMP JUMPDEST SWAP6 POP SWAP6 POP SWAP6 POP SWAP6 POP SWAP6 POP POP SWAP3 SWAP6 POP SWAP3 SWAP6 SWAP1 SWAP4 POP JUMP JUMPDEST PUSH1 0x0 DUP1 PUSH1 0x0 PUSH32 0x0 PUSH20 0xFFFFFFFFFFFFFFFFFFFFFFFFFFFFFFFFFFFFFFFF AND PUSH4 0x3850C7BD PUSH1 0x40 MLOAD DUP2 PUSH4 0xFFFFFFFF AND PUSH1 0xE0 SHL DUP2 MSTORE PUSH1 0x4 ADD PUSH1 0xE0 PUSH1 0x40 MLOAD DUP1 DUP4 SUB DUP2 DUP7 GAS STATICCALL ISZERO DUP1 ISZERO PUSH2 0x2C1A JUMPI RETURNDATASIZE PUSH1 0x0 DUP1 RETURNDATACOPY RETURNDATASIZE PUSH1 0x0 REVERT JUMPDEST POP POP POP POP PUSH1 0x40 MLOAD RETURNDATASIZE PUSH1 0x1F NOT PUSH1 0x1F DUP3 ADD AND DUP3 ADD DUP1 PUSH1 0x40 MSTORE POP DUP2 ADD SWAP1 PUSH2 0x2C3E SWAP2 SWAP1 PUSH2 0x48B7 JUMP JUMPDEST POP POP POP POP POP POP SWAP1 POP PUSH2 0x2C62 DUP2 PUSH2 0x2C53 DUP9 PUSH2 0x1E7B JUMP JUMPDEST PUSH2 0x2C5C DUP9 PUSH2 0x1E7B JUMP JUMPDEST DUP8 PUSH2 0x3332 JUMP JUMPDEST SWAP3 POP SWAP3 POP POP SWAP4 POP SWAP4 SWAP2 POP POP JUMP JUMPDEST PUSH2 0x2C77 PUSH2 0x3424 JUMP JUMPDEST PUSH2 0x2C7F PUSH2 0x3547 JUMP JUMPDEST JUMP JUMPDEST PUSH2 0x2C8A DUP2 PUSH2 0x35B2 JUMP JUMPDEST PUSH32 0x0 PUSH20 0xFFFFFFFFFFFFFFFFFFFFFFFFFFFFFFFFFFFFFFFF AND PUSH4 0x1249C58B DUP3 PUSH1 0x40 MLOAD DUP3 PUSH4 0xFFFFFFFF AND PUSH1 0xE0 SHL DUP2 MSTORE PUSH1 0x4 ADD PUSH1 0x0 PUSH1 0x40 MLOAD DUP1 DUP4 SUB DUP2 DUP6 DUP9 DUP1 EXTCODESIZE ISZERO DUP1 ISZERO PUSH2 0x2CF2 JUMPI PUSH1 0x0 DUP1 REVERT JUMPDEST POP GAS CALL ISZERO DUP1 ISZERO PUSH2 0x2D06 JUMPI RETURNDATASIZE PUSH1 0x0 DUP1 RETURNDATACOPY RETURNDATASIZE PUSH1 0x0 REVERT JUMPDEST POP POP POP POP POP POP JUMP JUMPDEST PUSH1 0x0 DUP3 PUSH20 0xFFFFFFFFFFFFFFFFFFFFFFFFFFFFFFFFFFFFFFFF AND DUP5 PUSH20 0xFFFFFFFFFFFFFFFFFFFFFFFFFFFFFFFFFFFFFFFF AND GT ISZERO PUSH2 0x2D4F JUMPI DUP3 DUP5 DUP1 SWAP5 POP DUP2 SWAP6 POP POP POP JUMPDEST PUSH1 0x0 PUSH2 0x2D95 DUP6 PUSH20 0xFFFFFFFFFFFFFFFFFFFFFFFFFFFFFFFFFFFFFFFF AND DUP6 PUSH20 0xFFFFFFFFFFFFFFFFFFFFFFFFFFFFFFFFFFFFFFFF AND PUSH13 0x1000000000000000000000000 PUSH2 0x2475 JUMP JUMPDEST SWAP1 POP PUSH2 0x2DCB PUSH2 0x2DC6 DUP5 DUP4 DUP9 DUP9 PUSH2 0x2DAB SWAP2 SWAP1 PUSH2 0x5622 JUMP JUMPDEST PUSH20 0xFFFFFFFFFFFFFFFFFFFFFFFFFFFFFFFFFFFFFFFF AND PUSH2 0x2475 JUMP JUMPDEST PUSH2 0x364A JUMP JUMPDEST SWAP2 POP POP SWAP4 SWAP3 POP POP POP JUMP JUMPDEST PUSH1 0x0 DUP3 PUSH20 0xFFFFFFFFFFFFFFFFFFFFFFFFFFFFFFFFFFFFFFFF AND DUP5 PUSH20 0xFFFFFFFFFFFFFFFFFFFFFFFFFFFFFFFFFFFFFFFF AND GT ISZERO PUSH2 0x2E16 JUMPI DUP3 DUP5 DUP1 SWAP5 POP DUP2 SWAP6 POP POP POP JUMPDEST PUSH2 0x2E57 PUSH2 0x2E52 DUP4 PUSH13 0x1000000000000000000000000 DUP8 DUP8 PUSH2 0x2E37 SWAP2 SWAP1 PUSH2 0x5622 JUMP JUMPDEST PUSH20 0xFFFFFFFFFFFFFFFFFFFFFFFFFFFFFFFFFFFFFFFF AND PUSH2 0x2475 JUMP JUMPDEST PUSH2 0x364A JUMP JUMPDEST SWAP1 POP SWAP4 SWAP3 POP POP POP JUMP JUMPDEST PUSH1 0x0 DUP1 PUSH1 0xD PUSH1 0x0 PUSH32 0x0 PUSH20 0xFFFFFFFFFFFFFFFFFFFFFFFFFFFFFFFFFFFFFFFF AND PUSH20 0xFFFFFFFFFFFFFFFFFFFFFFFFFFFFFFFFFFFFFFFF AND DUP2 MSTORE PUSH1 0x20 ADD SWAP1 DUP2 MSTORE PUSH1 0x20 ADD PUSH1 0x0 KECCAK256 PUSH1 0x0 SWAP1 SLOAD SWAP1 PUSH2 0x100 EXP SWAP1 DIV PUSH20 0xFFFFFFFFFFFFFFFFFFFFFFFFFFFFFFFFFFFFFFFF AND PUSH20 0xFFFFFFFFFFFFFFFFFFFFFFFFFFFFFFFFFFFFFFFF AND PUSH4 0x3AF9E669 ADDRESS PUSH1 0x40 MLOAD DUP3 PUSH4 0xFFFFFFFF AND PUSH1 0xE0 SHL DUP2 MSTORE PUSH1 0x4 ADD PUSH2 0x2F1B SWAP2 SWAP1 PUSH2 0x3EB6 JUMP JUMPDEST PUSH1 0x20 PUSH1 0x40 MLOAD DUP1 DUP4 SUB DUP2 PUSH1 0x0 DUP8 GAS CALL ISZERO DUP1 ISZERO PUSH2 0x2F3A JUMPI RETURNDATASIZE PUSH1 0x0 DUP1 RETURNDATACOPY RETURNDATASIZE PUSH1 0x0 REVERT JUMPDEST POP POP POP POP PUSH1 0x40 MLOAD RETURNDATASIZE PUSH1 0x1F NOT PUSH1 0x1F DUP3 ADD AND DUP3 ADD DUP1 PUSH1 0x40 MSTORE POP DUP2 ADD SWAP1 PUSH2 0x2F5E SWAP2 SWAP1 PUSH2 0x47E3 JUMP JUMPDEST SWAP2 POP PUSH1 0xD PUSH1 0x0 PUSH32 0x0 PUSH20 0xFFFFFFFFFFFFFFFFFFFFFFFFFFFFFFFFFFFFFFFF AND PUSH20 0xFFFFFFFFFFFFFFFFFFFFFFFFFFFFFFFFFFFFFFFF AND DUP2 MSTORE PUSH1 0x20 ADD SWAP1 DUP2 MSTORE PUSH1 0x20 ADD PUSH1 0x0 KECCAK256 PUSH1 0x0 SWAP1 SLOAD SWAP1 PUSH2 0x100 EXP SWAP1 DIV PUSH20 0xFFFFFFFFFFFFFFFFFFFFFFFFFFFFFFFFFFFFFFFF AND PUSH20 0xFFFFFFFFFFFFFFFFFFFFFFFFFFFFFFFFFFFFFFFF AND PUSH4 0x3AF9E669 ADDRESS PUSH1 0x40 MLOAD DUP3 PUSH4 0xFFFFFFFF AND PUSH1 0xE0 SHL DUP2 MSTORE PUSH1 0x4 ADD PUSH2 0x3018 SWAP2 SWAP1 PUSH2 0x3EB6 JUMP JUMPDEST PUSH1 0x20 PUSH1 0x40 MLOAD DUP1 DUP4 SUB DUP2 PUSH1 0x0 DUP8 GAS CALL ISZERO DUP1 ISZERO PUSH2 0x3037 JUMPI RETURNDATASIZE PUSH1 0x0 DUP1 RETURNDATACOPY RETURNDATASIZE PUSH1 0x0 REVERT JUMPDEST POP POP POP POP PUSH1 0x40 MLOAD RETURNDATASIZE PUSH1 0x1F NOT PUSH1 0x1F DUP3 ADD AND DUP3 ADD DUP1 PUSH1 0x40 MSTORE POP DUP2 ADD SWAP1 PUSH2 0x305B SWAP2 SWAP1 PUSH2 0x47E3 JUMP JUMPDEST SWAP1 POP SWAP1 SWAP2 JUMP JUMPDEST PUSH1 0x0 PUSH2 0x30C3 DUP3 PUSH1 0x40 MLOAD DUP1 PUSH1 0x40 ADD PUSH1 0x40 MSTORE DUP1 PUSH1 0x20 DUP2 MSTORE PUSH1 0x20 ADD PUSH32 0x5361666545524332303A206C6F772D6C6576656C2063616C6C206661696C6564 DUP2 MSTORE POP DUP6 PUSH20 0xFFFFFFFFFFFFFFFFFFFFFFFFFFFFFFFFFFFFFFFF AND PUSH2 0x3672 SWAP1 SWAP3 SWAP2 SWAP1 PUSH4 0xFFFFFFFF AND JUMP JUMPDEST SWAP1 POP PUSH1 0x0 DUP2 MLOAD GT ISZERO PUSH2 0x3123 JUMPI DUP1 DUP1 PUSH1 0x20 ADD SWAP1 MLOAD DUP2 ADD SWAP1 PUSH2 0x30E3 SWAP2 SWAP1 PUSH2 0x47A1 JUMP JUMPDEST PUSH2 0x3122 JUMPI PUSH1 0x40 MLOAD PUSH32 0x8C379A000000000000000000000000000000000000000000000000000000000 DUP2 MSTORE PUSH1 0x4 ADD PUSH2 0x3119 SWAP1 PUSH2 0x56C8 JUMP JUMPDEST PUSH1 0x40 MLOAD DUP1 SWAP2 SUB SWAP1 REVERT JUMPDEST JUMPDEST POP POP POP JUMP JUMPDEST PUSH1 0x0 PUSH1 0x1 ISZERO ISZERO DUP3 ISZERO ISZERO EQ ISZERO PUSH2 0x31ED JUMPI PUSH32 0x0 PUSH20 0xFFFFFFFFFFFFFFFFFFFFFFFFFFFFFFFFFFFFFFFF AND PUSH4 0xDB006A75 DUP5 PUSH1 0x40 MLOAD DUP3 PUSH4 0xFFFFFFFF AND PUSH1 0xE0 SHL DUP2 MSTORE PUSH1 0x4 ADD PUSH2 0x3190 SWAP2 SWAP1 PUSH2 0x3DDE JUMP JUMPDEST PUSH1 0x20 PUSH1 0x40 MLOAD DUP1 DUP4 SUB DUP2 PUSH1 0x0 DUP8 GAS CALL ISZERO DUP1 ISZERO PUSH2 0x31AF JUMPI RETURNDATASIZE PUSH1 0x0 DUP1 RETURNDATACOPY RETURNDATASIZE PUSH1 0x0 REVERT JUMPDEST POP POP POP POP PUSH1 0x40 MLOAD RETURNDATASIZE PUSH1 0x1F NOT PUSH1 0x1F DUP3 ADD AND DUP3 ADD DUP1 PUSH1 0x40 MSTORE POP DUP2 ADD SWAP1 PUSH2 0x31D3 SWAP2 SWAP1 PUSH2 0x47E3 JUMP JUMPDEST SWAP1 POP PUSH1 0x0 DUP2 EQ ISZERO PUSH2 0x31E8 JUMPI PUSH2 0x31E7 SELFBALANCE PUSH2 0x368A JUMP JUMPDEST JUMPDEST PUSH2 0x329F JUMP JUMPDEST PUSH32 0x0 PUSH20 0xFFFFFFFFFFFFFFFFFFFFFFFFFFFFFFFFFFFFFFFF AND PUSH4 0x852A12E3 DUP5 PUSH1 0x40 MLOAD DUP3 PUSH4 0xFFFFFFFF AND PUSH1 0xE0 SHL DUP2 MSTORE PUSH1 0x4 ADD PUSH2 0x3246 SWAP2 SWAP1 PUSH2 0x3DDE JUMP JUMPDEST PUSH1 0x20 PUSH1 0x40 MLOAD DUP1 DUP4 SUB DUP2 PUSH1 0x0 DUP8 GAS CALL ISZERO DUP1 ISZERO PUSH2 0x3265 JUMPI RETURNDATASIZE PUSH1 0x0 DUP1 RETURNDATACOPY RETURNDATASIZE PUSH1 0x0 REVERT JUMPDEST POP POP POP POP PUSH1 0x40 MLOAD RETURNDATASIZE PUSH1 0x1F NOT PUSH1 0x1F DUP3 ADD AND DUP3 ADD DUP1 PUSH1 0x40 MSTORE POP DUP2 ADD SWAP1 PUSH2 0x3289 SWAP2 SWAP1 PUSH2 0x47E3 JUMP JUMPDEST SWAP1 POP PUSH1 0x0 DUP2 EQ ISZERO PUSH2 0x329E JUMPI PUSH2 0x329D DUP4 PUSH2 0x368A JUMP JUMPDEST JUMPDEST JUMPDEST PUSH1 0x0 DUP2 EQ PUSH2 0x32F7 JUMPI PUSH1 0x12 PUSH1 0x1 SWAP1 SLOAD SWAP1 PUSH2 0x100 EXP SWAP1 DIV PUSH1 0xFF AND PUSH2 0x32F6 JUMPI PUSH1 0x40 MLOAD PUSH32 0x8C379A000000000000000000000000000000000000000000000000000000000 DUP2 MSTORE PUSH1 0x4 ADD PUSH2 0x32ED SWAP1 PUSH2 0x5734 JUMP JUMPDEST PUSH1 0x40 MLOAD DUP1 SWAP2 SUB SWAP1 REVERT JUMPDEST JUMPDEST POP POP POP JUMP JUMPDEST PUSH1 0x0 DUP4 DUP4 DUP4 PUSH1 0x40 MLOAD PUSH1 0x20 ADD PUSH2 0x3313 SWAP4 SWAP3 SWAP2 SWAP1 PUSH2 0x57D2 JUMP JUMPDEST PUSH1 0x40 MLOAD PUSH1 0x20 DUP2 DUP4 SUB SUB DUP2 MSTORE SWAP1 PUSH1 0x40 MSTORE DUP1 MLOAD SWAP1 PUSH1 0x20 ADD KECCAK256 SWAP1 POP SWAP4 SWAP3 POP POP POP JUMP JUMPDEST PUSH1 0x0 DUP1 DUP4 PUSH20 0xFFFFFFFFFFFFFFFFFFFFFFFFFFFFFFFFFFFFFFFF AND DUP6 PUSH20 0xFFFFFFFFFFFFFFFFFFFFFFFFFFFFFFFFFFFFFFFF AND GT ISZERO PUSH2 0x3374 JUMPI DUP4 DUP6 DUP1 SWAP6 POP DUP2 SWAP7 POP POP POP JUMPDEST DUP5 PUSH20 0xFFFFFFFFFFFFFFFFFFFFFFFFFFFFFFFFFFFFFFFF AND DUP7 PUSH20 0xFFFFFFFFFFFFFFFFFFFFFFFFFFFFFFFFFFFFFFFF AND GT PUSH2 0x33B9 JUMPI PUSH2 0x33B2 DUP6 DUP6 DUP6 PUSH2 0x3718 JUMP JUMPDEST SWAP2 POP PUSH2 0x341B JUMP JUMPDEST DUP4 PUSH20 0xFFFFFFFFFFFFFFFFFFFFFFFFFFFFFFFFFFFFFFFF AND DUP7 PUSH20 0xFFFFFFFFFFFFFFFFFFFFFFFFFFFFFFFFFFFFFFFF AND LT ISZERO PUSH2 0x340C JUMPI PUSH2 0x33F8 DUP7 DUP6 DUP6 PUSH2 0x3718 JUMP JUMPDEST SWAP2 POP PUSH2 0x3405 DUP6 DUP8 DUP6 PUSH2 0x37DE JUMP JUMPDEST SWAP1 POP PUSH2 0x341A JUMP JUMPDEST PUSH2 0x3417 DUP6 DUP6 DUP6 PUSH2 0x37DE JUMP JUMPDEST SWAP1 POP JUMPDEST JUMPDEST SWAP5 POP SWAP5 SWAP3 POP POP POP JUMP JUMPDEST PUSH1 0x0 PUSH1 0xC PUSH1 0x7 SWAP1 SLOAD SWAP1 PUSH2 0x100 EXP SWAP1 DIV PUSH1 0x2 SIGNEXTEND PUSH1 0x2 SIGNEXTEND EQ DUP1 ISZERO PUSH2 0x3458 JUMPI POP PUSH1 0x0 PUSH1 0xC PUSH1 0xA SWAP1 SLOAD SWAP1 PUSH2 0x100 EXP SWAP1 DIV PUSH1 0x2 SIGNEXTEND PUSH1 0x2 SIGNEXTEND EQ JUMPDEST ISZERO PUSH2 0x3462 JUMPI PUSH2 0x3545 JUMP JUMPDEST PUSH1 0x0 PUSH2 0x348C PUSH1 0xC PUSH1 0x7 SWAP1 SLOAD SWAP1 PUSH2 0x100 EXP SWAP1 DIV PUSH1 0x2 SIGNEXTEND PUSH1 0xC PUSH1 0xA SWAP1 SLOAD SWAP1 PUSH2 0x100 EXP SWAP1 DIV PUSH1 0x2 SIGNEXTEND PUSH2 0x2AE5 JUMP JUMPDEST POP POP POP POP SWAP1 POP PUSH1 0x0 DUP1 PUSH1 0x0 DUP1 PUSH2 0x34C1 PUSH1 0xC PUSH1 0x7 SWAP1 SLOAD SWAP1 PUSH2 0x100 EXP SWAP1 DIV PUSH1 0x2 SIGNEXTEND PUSH1 0xC PUSH1 0xA SWAP1 SLOAD SWAP1 PUSH2 0x100 EXP SWAP1 DIV PUSH1 0x2 SIGNEXTEND DUP8 PUSH2 0x3873 JUMP JUMPDEST SWAP4 POP SWAP4 POP SWAP4 POP SWAP4 POP PUSH1 0x0 DUP6 PUSH16 0xFFFFFFFFFFFFFFFFFFFFFFFFFFFFFFFF AND GT ISZERO PUSH2 0x3509 JUMPI DUP4 DUP3 PUSH2 0x34F0 SWAP2 SWAP1 PUSH2 0x54D3 JUMP JUMPDEST PUSH1 0x1 DUP2 SWAP1 SSTORE POP DUP3 DUP2 PUSH2 0x3502 SWAP2 SWAP1 PUSH2 0x54D3 JUMP JUMPDEST PUSH1 0x2 DUP2 SWAP1 SSTORE POP JUMPDEST PUSH2 0x3531 PUSH1 0xC PUSH1 0x7 SWAP1 SLOAD SWAP1 PUSH2 0x100 EXP SWAP1 DIV PUSH1 0x2 SIGNEXTEND PUSH1 0xC PUSH1 0xA SWAP1 SLOAD SWAP1 PUSH2 0x100 EXP SWAP1 DIV PUSH1 0x2 SIGNEXTEND PUSH2 0x2AE5 JUMP JUMPDEST SWAP1 SWAP2 SWAP3 POP SWAP1 SWAP2 POP SWAP1 POP POP DUP1 SWAP6 POP POP POP POP POP POP POP JUMPDEST JUMP JUMPDEST PUSH1 0x0 DUP1 PUSH2 0x3552 PUSH2 0x3A2A JUMP JUMPDEST SWAP2 POP SWAP2 POP PUSH2 0x3582 PUSH32 0x0 DUP4 PUSH1 0x1 PUSH2 0x2854 JUMP JUMPDEST PUSH2 0x35AE PUSH32 0x0 DUP3 PUSH1 0x1 PUSH2 0x2854 JUMP JUMPDEST POP POP JUMP JUMPDEST PUSH1 0x0 DUP2 GT ISZERO PUSH2 0x3647 JUMPI PUSH32 0x0 PUSH20 0xFFFFFFFFFFFFFFFFFFFFFFFFFFFFFFFFFFFFFFFF AND PUSH4 0x2E1A7D4D DUP3 PUSH1 0x40 MLOAD DUP3 PUSH4 0xFFFFFFFF AND PUSH1 0xE0 SHL DUP2 MSTORE PUSH1 0x4 ADD PUSH2 0x3614 SWAP2 SWAP1 PUSH2 0x3DDE JUMP JUMPDEST PUSH1 0x0 PUSH1 0x40 MLOAD DUP1 DUP4 SUB DUP2 PUSH1 0x0 DUP8 DUP1 EXTCODESIZE ISZERO DUP1 ISZERO PUSH2 0x362E JUMPI PUSH1 0x0 DUP1 REVERT JUMPDEST POP GAS CALL ISZERO DUP1 ISZERO PUSH2 0x3642 JUMPI RETURNDATASIZE PUSH1 0x0 DUP1 RETURNDATACOPY RETURNDATASIZE PUSH1 0x0 REVERT JUMPDEST POP POP POP POP JUMPDEST POP JUMP JUMPDEST PUSH1 0x0 DUP2 DUP3 SWAP2 POP DUP2 PUSH16 0xFFFFFFFFFFFFFFFFFFFFFFFFFFFFFFFF AND EQ PUSH2 0x366D JUMPI PUSH1 0x0 DUP1 REVERT JUMPDEST SWAP2 SWAP1 POP JUMP JUMPDEST PUSH1 0x60 PUSH2 0x3681 DUP5 DUP5 PUSH1 0x0 DUP6 PUSH2 0x3C27 JUMP JUMPDEST SWAP1 POP SWAP4 SWAP3 POP POP POP JUMP JUMPDEST PUSH1 0x0 DUP2 GT ISZERO PUSH2 0x3715 JUMPI PUSH32 0x0 PUSH20 0xFFFFFFFFFFFFFFFFFFFFFFFFFFFFFFFFFFFFFFFF AND PUSH4 0xD0E30DB0 DUP3 PUSH1 0x40 MLOAD DUP3 PUSH4 0xFFFFFFFF AND PUSH1 0xE0 SHL DUP2 MSTORE PUSH1 0x4 ADD PUSH1 0x0 PUSH1 0x40 MLOAD DUP1 DUP4 SUB DUP2 DUP6 DUP9 DUP1 EXTCODESIZE ISZERO DUP1 ISZERO PUSH2 0x36FB JUMPI PUSH1 0x0 DUP1 REVERT JUMPDEST POP GAS CALL ISZERO DUP1 ISZERO PUSH2 0x370F JUMPI RETURNDATASIZE PUSH1 0x0 DUP1 RETURNDATACOPY RETURNDATASIZE PUSH1 0x0 REVERT JUMPDEST POP POP POP POP POP JUMPDEST POP JUMP JUMPDEST PUSH1 0x0 DUP3 PUSH20 0xFFFFFFFFFFFFFFFFFFFFFFFFFFFFFFFFFFFFFFFF AND DUP5 PUSH20 0xFFFFFFFFFFFFFFFFFFFFFFFFFFFFFFFFFFFFFFFF AND GT ISZERO PUSH2 0x3759 JUMPI DUP3 DUP5 DUP1 SWAP5 POP DUP2 SWAP6 POP POP POP JUMPDEST DUP4 PUSH20 0xFFFFFFFFFFFFFFFFFFFFFFFFFFFFFFFFFFFFFFFF AND PUSH2 0x37CB PUSH1 0x60 PUSH1 0xFF AND DUP5 PUSH16 0xFFFFFFFFFFFFFFFFFFFFFFFFFFFFFFFF AND SWAP1 SHL DUP7 DUP7 PUSH2 0x3799 SWAP2 SWAP1 PUSH2 0x5622 JUMP JUMPDEST PUSH20 0xFFFFFFFFFFFFFFFFFFFFFFFFFFFFFFFFFFFFFFFF AND DUP7 PUSH20 0xFFFFFFFFFFFFFFFFFFFFFFFFFFFFFFFFFFFFFFFF AND PUSH2 0x2475 JUMP JUMPDEST PUSH2 0x37D5 SWAP2 SWAP1 PUSH2 0x50C5 JUMP JUMPDEST SWAP1 POP SWAP4 SWAP3 POP POP POP JUMP JUMPDEST PUSH1 0x0 DUP3 PUSH20 0xFFFFFFFFFFFFFFFFFFFFFFFFFFFFFFFFFFFFFFFF AND DUP5 PUSH20 0xFFFFFFFFFFFFFFFFFFFFFFFFFFFFFFFFFFFFFFFF AND GT ISZERO PUSH2 0x381F JUMPI DUP3 DUP5 DUP1 SWAP5 POP DUP2 SWAP6 POP POP POP JUMPDEST PUSH2 0x386A DUP3 PUSH16 0xFFFFFFFFFFFFFFFFFFFFFFFFFFFFFFFF AND DUP6 DUP6 PUSH2 0x3841 SWAP2 SWAP1 PUSH2 0x5622 JUMP JUMPDEST PUSH20 0xFFFFFFFFFFFFFFFFFFFFFFFFFFFFFFFFFFFFFFFF AND PUSH13 0x1000000000000000000000000 PUSH2 0x2475 JUMP JUMPDEST SWAP1 POP SWAP4 SWAP3 POP POP POP JUMP JUMPDEST PUSH1 0x0 DUP1 PUSH1 0x0 DUP1 PUSH1 0x0 DUP6 PUSH16 0xFFFFFFFFFFFFFFFFFFFFFFFFFFFFFFFF AND GT ISZERO PUSH2 0x393C JUMPI PUSH32 0x0 PUSH20 0xFFFFFFFFFFFFFFFFFFFFFFFFFFFFFFFFFFFFFFFF AND PUSH4 0xA34123A7 DUP9 DUP9 DUP9 PUSH1 0x40 MLOAD DUP5 PUSH4 0xFFFFFFFF AND PUSH1 0xE0 SHL DUP2 MSTORE PUSH1 0x4 ADD PUSH2 0x38F1 SWAP4 SWAP3 SWAP2 SWAP1 PUSH2 0x4A28 JUMP JUMPDEST PUSH1 0x40 DUP1 MLOAD DUP1 DUP4 SUB DUP2 PUSH1 0x0 DUP8 GAS CALL ISZERO DUP1 ISZERO PUSH2 0x390F JUMPI RETURNDATASIZE PUSH1 0x0 DUP1 RETURNDATACOPY RETURNDATASIZE PUSH1 0x0 REVERT JUMPDEST POP POP POP POP PUSH1 0x40 MLOAD RETURNDATASIZE PUSH1 0x1F NOT PUSH1 0x1F DUP3 ADD AND DUP3 ADD DUP1 PUSH1 0x40 MSTORE POP DUP2 ADD SWAP1 PUSH2 0x3933 SWAP2 SWAP1 PUSH2 0x49E8 JUMP JUMPDEST DUP1 SWAP5 POP DUP2 SWAP6 POP POP POP JUMPDEST PUSH32 0x0 PUSH20 0xFFFFFFFFFFFFFFFFFFFFFFFFFFFFFFFFFFFFFFFF AND PUSH4 0x4F1EB3D8 ADDRESS DUP10 DUP10 PUSH16 0xFFFFFFFFFFFFFFFFFFFFFFFFFFFFFFFF DUP1 PUSH1 0x40 MLOAD DUP7 PUSH4 0xFFFFFFFF AND PUSH1 0xE0 SHL DUP2 MSTORE PUSH1 0x4 ADD PUSH2 0x39AD SWAP6 SWAP5 SWAP4 SWAP3 SWAP2 SWAP1 PUSH2 0x5162 JUMP JUMPDEST PUSH1 0x40 DUP1 MLOAD DUP1 DUP4 SUB DUP2 PUSH1 0x0 DUP8 GAS CALL ISZERO DUP1 ISZERO PUSH2 0x39CB JUMPI RETURNDATASIZE PUSH1 0x0 DUP1 RETURNDATACOPY RETURNDATASIZE PUSH1 0x0 REVERT JUMPDEST POP POP POP POP PUSH1 0x40 MLOAD RETURNDATASIZE PUSH1 0x1F NOT PUSH1 0x1F DUP3 ADD AND DUP3 ADD DUP1 PUSH1 0x40 MSTORE POP DUP2 ADD SWAP1 PUSH2 0x39EF SWAP2 SWAP1 PUSH2 0x51CA JUMP JUMPDEST DUP2 PUSH16 0xFFFFFFFFFFFFFFFFFFFFFFFFFFFFFFFF AND SWAP2 POP DUP1 PUSH16 0xFFFFFFFFFFFFFFFFFFFFFFFFFFFFFFFF AND SWAP1 POP DUP1 SWAP3 POP DUP2 SWAP4 POP POP POP SWAP4 POP SWAP4 POP SWAP4 POP SWAP4 JUMP JUMPDEST PUSH1 0x0 DUP1 PUSH1 0xD PUSH1 0x0 PUSH32 0x0 PUSH20 0xFFFFFFFFFFFFFFFFFFFFFFFFFFFFFFFFFFFFFFFF AND PUSH20 0xFFFFFFFFFFFFFFFFFFFFFFFFFFFFFFFFFFFFFFFF AND DUP2 MSTORE PUSH1 0x20 ADD SWAP1 DUP2 MSTORE PUSH1 0x20 ADD PUSH1 0x0 KECCAK256 PUSH1 0x0 SWAP1 SLOAD SWAP1 PUSH2 0x100 EXP SWAP1 DIV PUSH20 0xFFFFFFFFFFFFFFFFFFFFFFFFFFFFFFFFFFFFFFFF AND PUSH20 0xFFFFFFFFFFFFFFFFFFFFFFFFFFFFFFFFFFFFFFFF AND PUSH4 0x70A08231 ADDRESS PUSH1 0x40 MLOAD DUP3 PUSH4 0xFFFFFFFF AND PUSH1 0xE0 SHL DUP2 MSTORE PUSH1 0x4 ADD PUSH2 0x3AE5 SWAP2 SWAP1 PUSH2 0x3EB6 JUMP JUMPDEST PUSH1 0x20 PUSH1 0x40 MLOAD DUP1 DUP4 SUB DUP2 DUP7 GAS STATICCALL ISZERO DUP1 ISZERO PUSH2 0x3B02 JUMPI RETURNDATASIZE PUSH1 0x0 DUP1 RETURNDATACOPY RETURNDATASIZE PUSH1 0x0 REVERT JUMPDEST POP POP POP POP PUSH1 0x40 MLOAD RETURNDATASIZE PUSH1 0x1F NOT PUSH1 0x1F DUP3 ADD AND DUP3 ADD DUP1 PUSH1 0x40 MSTORE POP DUP2 ADD SWAP1 PUSH2 0x3B26 SWAP2 SWAP1 PUSH2 0x47E3 JUMP JUMPDEST SWAP2 POP PUSH1 0xD PUSH1 0x0 PUSH32 0x0 PUSH20 0xFFFFFFFFFFFFFFFFFFFFFFFFFFFFFFFFFFFFFFFF AND PUSH20 0xFFFFFFFFFFFFFFFFFFFFFFFFFFFFFFFFFFFFFFFF AND DUP2 MSTORE PUSH1 0x20 ADD SWAP1 DUP2 MSTORE PUSH1 0x20 ADD PUSH1 0x0 KECCAK256 PUSH1 0x0 SWAP1 SLOAD SWAP1 PUSH2 0x100 EXP SWAP1 DIV PUSH20 0xFFFFFFFFFFFFFFFFFFFFFFFFFFFFFFFFFFFFFFFF AND PUSH20 0xFFFFFFFFFFFFFFFFFFFFFFFFFFFFFFFFFFFFFFFF AND PUSH4 0x70A08231 ADDRESS PUSH1 0x40 MLOAD DUP3 PUSH4 0xFFFFFFFF AND PUSH1 0xE0 SHL DUP2 MSTORE PUSH1 0x4 ADD PUSH2 0x3BE0 SWAP2 SWAP1 PUSH2 0x3EB6 JUMP JUMPDEST PUSH1 0x20 PUSH1 0x40 MLOAD DUP1 DUP4 SUB DUP2 DUP7 GAS STATICCALL ISZERO DUP1 ISZERO PUSH2 0x3BFD JUMPI RETURNDATASIZE PUSH1 0x0 DUP1 RETURNDATACOPY RETURNDATASIZE PUSH1 0x0 REVERT JUMPDEST POP POP POP POP PUSH1 0x40 MLOAD RETURNDATASIZE PUSH1 0x1F NOT PUSH1 0x1F DUP3 ADD AND DUP3 ADD DUP1 PUSH1 0x40 MSTORE POP DUP2 ADD SWAP1 PUSH2 0x3C21 SWAP2 SWAP1 PUSH2 0x47E3 JUMP JUMPDEST SWAP1 POP SWAP1 SWAP2 JUMP JUMPDEST PUSH1 0x60 DUP3 SELFBALANCE LT ISZERO PUSH2 0x3C6C JUMPI PUSH1 0x40 MLOAD PUSH32 0x8C379A000000000000000000000000000000000000000000000000000000000 DUP2 MSTORE PUSH1 0x4 ADD PUSH2 0x3C63 SWAP1 PUSH2 0x5881 JUMP JUMPDEST PUSH1 0x40 MLOAD DUP1 SWAP2 SUB SWAP1 REVERT JUMPDEST PUSH2 0x3C75 DUP6 PUSH2 0x3D3B JUMP JUMPDEST PUSH2 0x3CB4 JUMPI PUSH1 0x40 MLOAD PUSH32 0x8C379A000000000000000000000000000000000000000000000000000000000 DUP2 MSTORE PUSH1 0x4 ADD PUSH2 0x3CAB SWAP1 PUSH2 0x58ED JUMP JUMPDEST PUSH1 0x40 MLOAD DUP1 SWAP2 SUB SWAP1 REVERT JUMPDEST PUSH1 0x0 DUP1 DUP7 PUSH20 0xFFFFFFFFFFFFFFFFFFFFFFFFFFFFFFFFFFFFFFFF AND DUP6 DUP8 PUSH1 0x40 MLOAD PUSH2 0x3CDD SWAP2 SWAP1 PUSH2 0x5987 JUMP JUMPDEST PUSH1 0x0 PUSH1 0x40 MLOAD DUP1 DUP4 SUB DUP2 DUP6 DUP8 GAS CALL SWAP3 POP POP POP RETURNDATASIZE DUP1 PUSH1 0x0 DUP2 EQ PUSH2 0x3D1A JUMPI PUSH1 0x40 MLOAD SWAP2 POP PUSH1 0x1F NOT PUSH1 0x3F RETURNDATASIZE ADD AND DUP3 ADD PUSH1 0x40 MSTORE RETURNDATASIZE DUP3 MSTORE RETURNDATASIZE PUSH1 0x0 PUSH1 0x20 DUP5 ADD RETURNDATACOPY PUSH2 0x3D1F JUMP JUMPDEST PUSH1 0x60 SWAP2 POP JUMPDEST POP SWAP2 POP SWAP2 POP PUSH2 0x3D2F DUP3 DUP3 DUP7 PUSH2 0x3D5E JUMP JUMPDEST SWAP3 POP POP POP SWAP5 SWAP4 POP POP POP POP JUMP JUMPDEST PUSH1 0x0 DUP1 DUP3 PUSH20 0xFFFFFFFFFFFFFFFFFFFFFFFFFFFFFFFFFFFFFFFF AND EXTCODESIZE GT SWAP1 POP SWAP2 SWAP1 POP JUMP JUMPDEST PUSH1 0x60 DUP4 ISZERO PUSH2 0x3D6E JUMPI DUP3 SWAP1 POP PUSH2 0x3DBE JUMP JUMPDEST PUSH1 0x0 DUP4 MLOAD GT ISZERO PUSH2 0x3D81 JUMPI DUP3 MLOAD DUP1 DUP5 PUSH1 0x20 ADD REVERT JUMPDEST DUP2 PUSH1 0x40 MLOAD PUSH32 0x8C379A000000000000000000000000000000000000000000000000000000000 DUP2 MSTORE PUSH1 0x4 ADD PUSH2 0x3DB5 SWAP2 SWAP1 PUSH2 0x59E2 JUMP JUMPDEST PUSH1 0x40 MLOAD DUP1 SWAP2 SUB SWAP1 REVERT JUMPDEST SWAP4 SWAP3 POP POP POP JUMP JUMPDEST PUSH1 0x0 DUP2 SWAP1 POP SWAP2 SWAP1 POP JUMP JUMPDEST PUSH2 0x3DD8 DUP2 PUSH2 0x3DC5 JUMP JUMPDEST DUP3 MSTORE POP POP JUMP JUMPDEST PUSH1 0x0 PUSH1 0x20 DUP3 ADD SWAP1 POP PUSH2 0x3DF3 PUSH1 0x0 DUP4 ADD DUP5 PUSH2 0x3DCF JUMP JUMPDEST SWAP3 SWAP2 POP POP JUMP JUMPDEST PUSH1 0x0 DUP2 ISZERO ISZERO SWAP1 POP SWAP2 SWAP1 POP JUMP JUMPDEST PUSH2 0x3E0E DUP2 PUSH2 0x3DF9 JUMP JUMPDEST DUP3 MSTORE POP POP JUMP JUMPDEST PUSH1 0x0 PUSH1 0x20 DUP3 ADD SWAP1 POP PUSH2 0x3E29 PUSH1 0x0 DUP4 ADD DUP5 PUSH2 0x3E05 JUMP JUMPDEST SWAP3 SWAP2 POP POP JUMP JUMPDEST PUSH1 0x0 PUSH16 0xFFFFFFFFFFFFFFFFFFFFFFFFFFFFFFFF DUP3 AND SWAP1 POP SWAP2 SWAP1 POP JUMP JUMPDEST PUSH2 0x3E54 DUP2 PUSH2 0x3E2F JUMP JUMPDEST DUP3 MSTORE POP POP JUMP JUMPDEST PUSH1 0x0 PUSH1 0x20 DUP3 ADD SWAP1 POP PUSH2 0x3E6F PUSH1 0x0 DUP4 ADD DUP5 PUSH2 0x3E4B JUMP JUMPDEST SWAP3 SWAP2 POP POP JUMP JUMPDEST PUSH1 0x0 PUSH20 0xFFFFFFFFFFFFFFFFFFFFFFFFFFFFFFFFFFFFFFFF DUP3 AND SWAP1 POP SWAP2 SWAP1 POP JUMP JUMPDEST PUSH1 0x0 PUSH2 0x3EA0 DUP3 PUSH2 0x3E75 JUMP JUMPDEST SWAP1 POP SWAP2 SWAP1 POP JUMP JUMPDEST PUSH2 0x3EB0 DUP2 PUSH2 0x3E95 JUMP JUMPDEST DUP3 MSTORE POP POP JUMP JUMPDEST PUSH1 0x0 PUSH1 0x20 DUP3 ADD SWAP1 POP PUSH2 0x3ECB PUSH1 0x0 DUP4 ADD DUP5 PUSH2 0x3EA7 JUMP JUMPDEST SWAP3 SWAP2 POP POP JUMP JUMPDEST PUSH1 0x0 DUP2 SWAP1 POP SWAP2 SWAP1 POP JUMP JUMPDEST PUSH1 0x0 PUSH2 0x3EF6 PUSH2 0x3EF1 PUSH2 0x3EEC DUP5 PUSH2 0x3E75 JUMP JUMPDEST PUSH2 0x3ED1 JUMP JUMPDEST PUSH2 0x3E75 JUMP JUMPDEST SWAP1 POP SWAP2 SWAP1 POP JUMP JUMPDEST PUSH1 0x0 PUSH2 0x3F08 DUP3 PUSH2 0x3EDB JUMP JUMPDEST SWAP1 POP SWAP2 SWAP1 POP JUMP JUMPDEST PUSH1 0x0 PUSH2 0x3F1A DUP3 PUSH2 0x3EFD JUMP JUMPDEST SWAP1 POP SWAP2 SWAP1 POP JUMP JUMPDEST PUSH2 0x3F2A DUP2 PUSH2 0x3F0F JUMP JUMPDEST DUP3 MSTORE POP POP JUMP JUMPDEST PUSH1 0x0 PUSH1 0x20 DUP3 ADD SWAP1 POP PUSH2 0x3F45 PUSH1 0x0 DUP4 ADD DUP5 PUSH2 0x3F21 JUMP JUMPDEST SWAP3 SWAP2 POP POP JUMP JUMPDEST PUSH1 0x0 PUSH4 0xFFFFFFFF DUP3 AND SWAP1 POP SWAP2 SWAP1 POP JUMP JUMPDEST PUSH2 0x3F64 DUP2 PUSH2 0x3F4B JUMP JUMPDEST DUP3 MSTORE POP POP JUMP JUMPDEST PUSH1 0x0 PUSH1 0x20 DUP3 ADD SWAP1 POP PUSH2 0x3F7F PUSH1 0x0 DUP4 ADD DUP5 PUSH2 0x3F5B JUMP JUMPDEST SWAP3 SWAP2 POP POP JUMP JUMPDEST PUSH1 0x0 PUSH1 0xFF DUP3 AND SWAP1 POP SWAP2 SWAP1 POP JUMP JUMPDEST PUSH2 0x3F9B DUP2 PUSH2 0x3F85 JUMP JUMPDEST DUP3 MSTORE POP POP JUMP JUMPDEST PUSH1 0x0 PUSH1 0x20 DUP3 ADD SWAP1 POP PUSH2 0x3FB6 PUSH1 0x0 DUP4 ADD DUP5 PUSH2 0x3F92 JUMP JUMPDEST SWAP3 SWAP2 POP POP JUMP JUMPDEST PUSH1 0x0 PUSH1 0xC0 DUP3 ADD SWAP1 POP PUSH2 0x3FD1 PUSH1 0x0 DUP4 ADD DUP10 PUSH2 0x3DCF JUMP JUMPDEST PUSH2 0x3FDE PUSH1 0x20 DUP4 ADD DUP9 PUSH2 0x3DCF JUMP JUMPDEST PUSH2 0x3FEB PUSH1 0x40 DUP4 ADD DUP8 PUSH2 0x3DCF JUMP JUMPDEST PUSH2 0x3FF8 PUSH1 0x60 DUP4 ADD DUP7 PUSH2 0x3DCF JUMP JUMPDEST PUSH2 0x4005 PUSH1 0x80 DUP4 ADD DUP6 PUSH2 0x3DCF JUMP JUMPDEST PUSH2 0x4012 PUSH1 0xA0 DUP4 ADD DUP5 PUSH2 0x3DCF JUMP JUMPDEST SWAP8 SWAP7 POP POP POP POP POP POP POP JUMP JUMPDEST PUSH1 0x0 PUSH1 0x40 MLOAD SWAP1 POP SWAP1 JUMP JUMPDEST PUSH1 0x0 DUP1 REVERT JUMPDEST PUSH1 0x0 DUP1 REVERT JUMPDEST PUSH2 0x403A DUP2 PUSH2 0x3E95 JUMP JUMPDEST DUP2 EQ PUSH2 0x4045 JUMPI PUSH1 0x0 DUP1 REVERT JUMPDEST POP JUMP JUMPDEST PUSH1 0x0 DUP2 CALLDATALOAD SWAP1 POP PUSH2 0x4057 DUP2 PUSH2 0x4031 JUMP JUMPDEST SWAP3 SWAP2 POP POP JUMP JUMPDEST PUSH2 0x4066 DUP2 PUSH2 0x3DC5 JUMP JUMPDEST DUP2 EQ PUSH2 0x4071 JUMPI PUSH1 0x0 DUP1 REVERT JUMPDEST POP JUMP JUMPDEST PUSH1 0x0 DUP2 CALLDATALOAD SWAP1 POP PUSH2 0x4083 DUP2 PUSH2 0x405D JUMP JUMPDEST SWAP3 SWAP2 POP POP JUMP JUMPDEST PUSH1 0x0 DUP1 PUSH1 0x0 PUSH1 0x60 DUP5 DUP7 SUB SLT ISZERO PUSH2 0x40A2 JUMPI PUSH2 0x40A1 PUSH2 0x4027 JUMP JUMPDEST JUMPDEST PUSH1 0x0 PUSH2 0x40B0 DUP7 DUP3 DUP8 ADD PUSH2 0x4048 JUMP JUMPDEST SWAP4 POP POP PUSH1 0x20 PUSH2 0x40C1 DUP7 DUP3 DUP8 ADD PUSH2 0x4048 JUMP JUMPDEST SWAP3 POP POP PUSH1 0x40 PUSH2 0x40D2 DUP7 DUP3 DUP8 ADD PUSH2 0x4074 JUMP JUMPDEST SWAP2 POP POP SWAP3 POP SWAP3 POP SWAP3 JUMP JUMPDEST PUSH1 0x0 DUP2 PUSH1 0x2 SIGNEXTEND SWAP1 POP SWAP2 SWAP1 POP JUMP JUMPDEST PUSH2 0x40F2 DUP2 PUSH2 0x40DC JUMP JUMPDEST DUP2 EQ PUSH2 0x40FD JUMPI PUSH1 0x0 DUP1 REVERT JUMPDEST POP JUMP JUMPDEST PUSH1 0x0 DUP2 CALLDATALOAD SWAP1 POP PUSH2 0x410F DUP2 PUSH2 0x40E9 JUMP JUMPDEST SWAP3 SWAP2 POP POP JUMP JUMPDEST PUSH1 0x0 DUP1 PUSH1 0x0 DUP1 PUSH1 0x80 DUP6 DUP8 SUB SLT ISZERO PUSH2 0x412F JUMPI PUSH2 0x412E PUSH2 0x4027 JUMP JUMPDEST JUMPDEST PUSH1 0x0 PUSH2 0x413D DUP8 DUP3 DUP9 ADD PUSH2 0x4100 JUMP JUMPDEST SWAP5 POP POP PUSH1 0x20 PUSH2 0x414E DUP8 DUP3 DUP9 ADD PUSH2 0x4100 JUMP JUMPDEST SWAP4 POP POP PUSH1 0x40 PUSH2 0x415F DUP8 DUP3 DUP9 ADD PUSH2 0x4074 JUMP JUMPDEST SWAP3 POP POP PUSH1 0x60 PUSH2 0x4170 DUP8 DUP3 DUP9 ADD PUSH2 0x4074 JUMP JUMPDEST SWAP2 POP POP SWAP3 SWAP6 SWAP2 SWAP5 POP SWAP3 POP JUMP JUMPDEST PUSH2 0x4185 DUP2 PUSH2 0x3E2F JUMP JUMPDEST DUP2 EQ PUSH2 0x4190 JUMPI PUSH1 0x0 DUP1 REVERT JUMPDEST POP JUMP JUMPDEST PUSH1 0x0 DUP2 CALLDATALOAD SWAP1 POP PUSH2 0x41A2 DUP2 PUSH2 0x417C JUMP JUMPDEST SWAP3 SWAP2 POP POP JUMP JUMPDEST PUSH1 0x0 DUP1 PUSH1 0x0 DUP1 PUSH1 0x80 DUP6 DUP8 SUB SLT ISZERO PUSH2 0x41C2 JUMPI PUSH2 0x41C1 PUSH2 0x4027 JUMP JUMPDEST JUMPDEST PUSH1 0x0 PUSH2 0x41D0 DUP8 DUP3 DUP9 ADD PUSH2 0x4100 JUMP JUMPDEST SWAP5 POP POP PUSH1 0x20 PUSH2 0x41E1 DUP8 DUP3 DUP9 ADD PUSH2 0x4193 JUMP JUMPDEST SWAP4 POP POP PUSH1 0x40 PUSH2 0x41F2 DUP8 DUP3 DUP9 ADD PUSH2 0x4048 JUMP JUMPDEST SWAP3 POP POP PUSH1 0x60 PUSH2 0x4203 DUP8 DUP3 DUP9 ADD PUSH2 0x4048 JUMP JUMPDEST SWAP2 POP POP SWAP3 SWAP6 SWAP2 SWAP5 POP SWAP3 POP JUMP JUMPDEST PUSH1 0x0 PUSH1 0x20 DUP3 DUP5 SUB SLT ISZERO PUSH2 0x4225 JUMPI PUSH2 0x4224 PUSH2 0x4027 JUMP JUMPDEST JUMPDEST PUSH1 0x0 PUSH2 0x4233 DUP5 DUP3 DUP6 ADD PUSH2 0x4048 JUMP JUMPDEST SWAP2 POP POP SWAP3 SWAP2 POP POP JUMP JUMPDEST PUSH2 0x4245 DUP2 PUSH2 0x40DC JUMP JUMPDEST DUP3 MSTORE POP POP JUMP JUMPDEST PUSH1 0x0 PUSH1 0x20 DUP3 ADD SWAP1 POP PUSH2 0x4260 PUSH1 0x0 DUP4 ADD DUP5 PUSH2 0x423C JUMP JUMPDEST SWAP3 SWAP2 POP POP JUMP JUMPDEST PUSH1 0x0 DUP1 PUSH1 0x0 PUSH1 0x60 DUP5 DUP7 SUB SLT ISZERO PUSH2 0x427F JUMPI PUSH2 0x427E PUSH2 0x4027 JUMP JUMPDEST JUMPDEST PUSH1 0x0 PUSH2 0x428D DUP7 DUP3 DUP8 ADD PUSH2 0x4048 JUMP JUMPDEST SWAP4 POP POP PUSH1 0x20 PUSH2 0x429E DUP7 DUP3 DUP8 ADD PUSH2 0x4074 JUMP JUMPDEST SWAP3 POP POP PUSH1 0x40 PUSH2 0x42AF DUP7 DUP3 DUP8 ADD PUSH2 0x4074 JUMP JUMPDEST SWAP2 POP POP SWAP3 POP SWAP3 POP SWAP3 JUMP JUMPDEST PUSH1 0x0 PUSH1 0x40 DUP3 ADD SWAP1 POP PUSH2 0x42CE PUSH1 0x0 DUP4 ADD DUP6 PUSH2 0x3DCF JUMP JUMPDEST PUSH2 0x42DB PUSH1 0x20 DUP4 ADD DUP5 PUSH2 0x3DCF JUMP JUMPDEST SWAP4 SWAP3 POP POP POP JUMP JUMPDEST PUSH2 0x42EB DUP2 PUSH2 0x3DF9 JUMP JUMPDEST DUP2 EQ PUSH2 0x42F6 JUMPI PUSH1 0x0 DUP1 REVERT JUMPDEST POP JUMP JUMPDEST PUSH1 0x0 DUP2 CALLDATALOAD SWAP1 POP PUSH2 0x4308 DUP2 PUSH2 0x42E2 JUMP JUMPDEST SWAP3 SWAP2 POP POP JUMP JUMPDEST PUSH1 0x0 DUP1 PUSH1 0x0 DUP1 PUSH1 0x0 DUP1 PUSH1 0xC0 DUP8 DUP10 SUB SLT ISZERO PUSH2 0x432B JUMPI PUSH2 0x432A PUSH2 0x4027 JUMP JUMPDEST JUMPDEST PUSH1 0x0 PUSH2 0x4339 DUP10 DUP3 DUP11 ADD PUSH2 0x4100 JUMP JUMPDEST SWAP7 POP POP PUSH1 0x20 PUSH2 0x434A DUP10 DUP3 DUP11 ADD PUSH2 0x4100 JUMP JUMPDEST SWAP6 POP POP PUSH1 0x40 PUSH2 0x435B DUP10 DUP3 DUP11 ADD PUSH2 0x4193 JUMP JUMPDEST SWAP5 POP POP PUSH1 0x60 PUSH2 0x436C DUP10 DUP3 DUP11 ADD PUSH2 0x4074 JUMP JUMPDEST SWAP4 POP POP PUSH1 0x80 PUSH2 0x437D DUP10 DUP3 DUP11 ADD PUSH2 0x4074 JUMP JUMPDEST SWAP3 POP POP PUSH1 0xA0 PUSH2 0x438E DUP10 DUP3 DUP11 ADD PUSH2 0x42F9 JUMP JUMPDEST SWAP2 POP POP SWAP3 SWAP6 POP SWAP3 SWAP6 POP SWAP3 SWAP6 JUMP JUMPDEST PUSH1 0x0 PUSH3 0xFFFFFF DUP3 AND SWAP1 POP SWAP2 SWAP1 POP JUMP JUMPDEST PUSH2 0x43B3 DUP2 PUSH2 0x439B JUMP JUMPDEST DUP3 MSTORE POP POP JUMP JUMPDEST PUSH1 0x0 PUSH1 0x20 DUP3 ADD SWAP1 POP PUSH2 0x43CE PUSH1 0x0 DUP4 ADD DUP5 PUSH2 0x43AA JUMP JUMPDEST SWAP3 SWAP2 POP POP JUMP JUMPDEST PUSH1 0x0 DUP1 PUSH1 0x40 DUP4 DUP6 SUB SLT ISZERO PUSH2 0x43EB JUMPI PUSH2 0x43EA PUSH2 0x4027 JUMP JUMPDEST JUMPDEST PUSH1 0x0 PUSH2 0x43F9 DUP6 DUP3 DUP7 ADD PUSH2 0x4100 JUMP JUMPDEST SWAP3 POP POP PUSH1 0x20 PUSH2 0x440A DUP6 DUP3 DUP7 ADD PUSH2 0x4100 JUMP JUMPDEST SWAP2 POP POP SWAP3 POP SWAP3 SWAP1 POP JUMP JUMPDEST PUSH1 0x0 PUSH2 0x441F DUP3 PUSH2 0x3E75 JUMP JUMPDEST SWAP1 POP SWAP2 SWAP1 POP JUMP JUMPDEST PUSH2 0x442F DUP2 PUSH2 0x4414 JUMP JUMPDEST DUP3 MSTORE POP POP JUMP JUMPDEST PUSH1 0x0 PUSH1 0x20 DUP3 ADD SWAP1 POP PUSH2 0x444A PUSH1 0x0 DUP4 ADD DUP5 PUSH2 0x4426 JUMP JUMPDEST SWAP3 SWAP2 POP POP JUMP JUMPDEST PUSH1 0x0 PUSH2 0x445B DUP3 PUSH2 0x3EFD JUMP JUMPDEST SWAP1 POP SWAP2 SWAP1 POP JUMP JUMPDEST PUSH2 0x446B DUP2 PUSH2 0x4450 JUMP JUMPDEST DUP3 MSTORE POP POP JUMP JUMPDEST PUSH1 0x0 PUSH1 0x20 DUP3 ADD SWAP1 POP PUSH2 0x4486 PUSH1 0x0 DUP4 ADD DUP5 PUSH2 0x4462 JUMP JUMPDEST SWAP3 SWAP2 POP POP JUMP JUMPDEST PUSH1 0x0 DUP1 PUSH1 0x0 PUSH1 0x60 DUP5 DUP7 SUB SLT ISZERO PUSH2 0x44A5 JUMPI PUSH2 0x44A4 PUSH2 0x4027 JUMP JUMPDEST JUMPDEST PUSH1 0x0 PUSH2 0x44B3 DUP7 DUP3 DUP8 ADD PUSH2 0x4074 JUMP JUMPDEST SWAP4 POP POP PUSH1 0x20 PUSH2 0x44C4 DUP7 DUP3 DUP8 ADD PUSH2 0x4074 JUMP JUMPDEST SWAP3 POP POP PUSH1 0x40 PUSH2 0x44D5 DUP7 DUP3 DUP8 ADD PUSH2 0x4074 JUMP JUMPDEST SWAP2 POP POP SWAP3 POP SWAP3 POP SWAP3 JUMP JUMPDEST PUSH1 0x0 PUSH1 0x60 DUP3 ADD SWAP1 POP PUSH2 0x44F4 PUSH1 0x0 DUP4 ADD DUP7 PUSH2 0x3DCF JUMP JUMPDEST PUSH2 0x4501 PUSH1 0x20 DUP4 ADD DUP6 PUSH2 0x3DCF JUMP JUMPDEST PUSH2 0x450E PUSH1 0x40 DUP4 ADD DUP5 PUSH2 0x3DCF JUMP JUMPDEST SWAP5 SWAP4 POP POP POP POP JUMP JUMPDEST PUSH1 0x0 PUSH2 0x4521 DUP3 PUSH2 0x3EFD JUMP JUMPDEST SWAP1 POP SWAP2 SWAP1 POP JUMP JUMPDEST PUSH2 0x4531 DUP2 PUSH2 0x4516 JUMP JUMPDEST DUP3 MSTORE POP POP JUMP JUMPDEST PUSH1 0x0 PUSH1 0x20 DUP3 ADD SWAP1 POP PUSH2 0x454C PUSH1 0x0 DUP4 ADD DUP5 PUSH2 0x4528 JUMP JUMPDEST SWAP3 SWAP2 POP POP JUMP JUMPDEST PUSH1 0x0 DUP1 PUSH1 0x40 DUP4 DUP6 SUB SLT ISZERO PUSH2 0x4569 JUMPI PUSH2 0x4568 PUSH2 0x4027 JUMP JUMPDEST JUMPDEST PUSH1 0x0 PUSH2 0x4577 DUP6 DUP3 DUP7 ADD PUSH2 0x4048 JUMP JUMPDEST SWAP3 POP POP PUSH1 0x20 PUSH2 0x4588 DUP6 DUP3 DUP7 ADD PUSH2 0x4074 JUMP JUMPDEST SWAP2 POP POP SWAP3 POP SWAP3 SWAP1 POP JUMP JUMPDEST PUSH1 0x0 DUP1 REVERT JUMPDEST PUSH1 0x0 DUP1 REVERT JUMPDEST PUSH1 0x0 DUP1 REVERT JUMPDEST PUSH1 0x0 DUP1 DUP4 PUSH1 0x1F DUP5 ADD SLT PUSH2 0x45B7 JUMPI PUSH2 0x45B6 PUSH2 0x4592 JUMP JUMPDEST JUMPDEST DUP3 CALLDATALOAD SWAP1 POP PUSH8 0xFFFFFFFFFFFFFFFF DUP2 GT ISZERO PUSH2 0x45D4 JUMPI PUSH2 0x45D3 PUSH2 0x4597 JUMP JUMPDEST JUMPDEST PUSH1 0x20 DUP4 ADD SWAP2 POP DUP4 PUSH1 0x1 DUP3 MUL DUP4 ADD GT ISZERO PUSH2 0x45F0 JUMPI PUSH2 0x45EF PUSH2 0x459C JUMP JUMPDEST JUMPDEST SWAP3 POP SWAP3 SWAP1 POP JUMP JUMPDEST PUSH1 0x0 DUP1 PUSH1 0x0 DUP1 PUSH1 0x60 DUP6 DUP8 SUB SLT ISZERO PUSH2 0x4611 JUMPI PUSH2 0x4610 PUSH2 0x4027 JUMP JUMPDEST JUMPDEST PUSH1 0x0 PUSH2 0x461F DUP8 DUP3 DUP9 ADD PUSH2 0x4074 JUMP JUMPDEST SWAP5 POP POP PUSH1 0x20 PUSH2 0x4630 DUP8 DUP3 DUP9 ADD PUSH2 0x4074 JUMP JUMPDEST SWAP4 POP POP PUSH1 0x40 DUP6 ADD CALLDATALOAD PUSH8 0xFFFFFFFFFFFFFFFF DUP2 GT ISZERO PUSH2 0x4651 JUMPI PUSH2 0x4650 PUSH2 0x402C JUMP JUMPDEST JUMPDEST PUSH2 0x465D DUP8 DUP3 DUP9 ADD PUSH2 0x45A1 JUMP JUMPDEST SWAP3 POP SWAP3 POP POP SWAP3 SWAP6 SWAP2 SWAP5 POP SWAP3 POP JUMP JUMPDEST PUSH1 0x0 DUP2 SWAP1 POP SWAP2 SWAP1 POP JUMP JUMPDEST PUSH2 0x467E DUP2 PUSH2 0x466B JUMP JUMPDEST DUP2 EQ PUSH2 0x4689 JUMPI PUSH1 0x0 DUP1 REVERT JUMPDEST POP JUMP JUMPDEST PUSH1 0x0 DUP2 CALLDATALOAD SWAP1 POP PUSH2 0x469B DUP2 PUSH2 0x4675 JUMP JUMPDEST SWAP3 SWAP2 POP POP JUMP JUMPDEST PUSH1 0x0 DUP1 PUSH1 0x0 DUP1 PUSH1 0x60 DUP6 DUP8 SUB SLT ISZERO PUSH2 0x46BB JUMPI PUSH2 0x46BA PUSH2 0x4027 JUMP JUMPDEST JUMPDEST PUSH1 0x0 PUSH2 0x46C9 DUP8 DUP3 DUP9 ADD PUSH2 0x468C JUMP JUMPDEST SWAP5 POP POP PUSH1 0x20 PUSH2 0x46DA DUP8 DUP3 DUP9 ADD PUSH2 0x468C JUMP JUMPDEST SWAP4 POP POP PUSH1 0x40 DUP6 ADD CALLDATALOAD PUSH8 0xFFFFFFFFFFFFFFFF DUP2 GT ISZERO PUSH2 0x46FB JUMPI PUSH2 0x46FA PUSH2 0x402C JUMP JUMPDEST JUMPDEST PUSH2 0x4707 DUP8 DUP3 DUP9 ADD PUSH2 0x45A1 JUMP JUMPDEST SWAP3 POP SWAP3 POP POP SWAP3 SWAP6 SWAP2 SWAP5 POP SWAP3 POP JUMP JUMPDEST PUSH1 0x0 PUSH2 0x4720 DUP3 PUSH2 0x3EDB JUMP JUMPDEST SWAP1 POP SWAP2 SWAP1 POP JUMP JUMPDEST PUSH1 0x0 PUSH2 0x4732 DUP3 PUSH2 0x4715 JUMP JUMPDEST SWAP1 POP SWAP2 SWAP1 POP JUMP JUMPDEST PUSH2 0x4742 DUP2 PUSH2 0x4727 JUMP JUMPDEST DUP3 MSTORE POP POP JUMP JUMPDEST PUSH1 0x0 PUSH1 0x20 DUP3 ADD SWAP1 POP PUSH2 0x475D PUSH1 0x0 DUP4 ADD DUP5 PUSH2 0x4739 JUMP JUMPDEST SWAP3 SWAP2 POP POP JUMP JUMPDEST PUSH1 0x0 PUSH1 0x40 DUP3 ADD SWAP1 POP PUSH2 0x4778 PUSH1 0x0 DUP4 ADD DUP6 PUSH2 0x3EA7 JUMP JUMPDEST PUSH2 0x4785 PUSH1 0x20 DUP4 ADD DUP5 PUSH2 0x3DCF JUMP JUMPDEST SWAP4 SWAP3 POP POP POP JUMP JUMPDEST PUSH1 0x0 DUP2 MLOAD SWAP1 POP PUSH2 0x479B DUP2 PUSH2 0x42E2 JUMP JUMPDEST SWAP3 SWAP2 POP POP JUMP JUMPDEST PUSH1 0x0 PUSH1 0x20 DUP3 DUP5 SUB SLT ISZERO PUSH2 0x47B7 JUMPI PUSH2 0x47B6 PUSH2 0x4027 JUMP JUMPDEST JUMPDEST PUSH1 0x0 PUSH2 0x47C5 DUP5 DUP3 DUP6 ADD PUSH2 0x478C JUMP JUMPDEST SWAP2 POP POP SWAP3 SWAP2 POP POP JUMP JUMPDEST PUSH1 0x0 DUP2 MLOAD SWAP1 POP PUSH2 0x47DD DUP2 PUSH2 0x405D JUMP JUMPDEST SWAP3 SWAP2 POP POP JUMP JUMPDEST PUSH1 0x0 PUSH1 0x20 DUP3 DUP5 SUB SLT ISZERO PUSH2 0x47F9 JUMPI PUSH2 0x47F8 PUSH2 0x4027 JUMP JUMPDEST JUMPDEST PUSH1 0x0 PUSH2 0x4807 DUP5 DUP3 DUP6 ADD PUSH2 0x47CE JUMP JUMPDEST SWAP2 POP POP SWAP3 SWAP2 POP POP JUMP JUMPDEST PUSH2 0x4819 DUP2 PUSH2 0x3E75 JUMP JUMPDEST DUP2 EQ PUSH2 0x4824 JUMPI PUSH1 0x0 DUP1 REVERT JUMPDEST POP JUMP JUMPDEST PUSH1 0x0 DUP2 MLOAD SWAP1 POP PUSH2 0x4836 DUP2 PUSH2 0x4810 JUMP JUMPDEST SWAP3 SWAP2 POP POP JUMP JUMPDEST PUSH1 0x0 DUP2 MLOAD SWAP1 POP PUSH2 0x484B DUP2 PUSH2 0x40E9 JUMP JUMPDEST SWAP3 SWAP2 POP POP JUMP JUMPDEST PUSH1 0x0 PUSH2 0xFFFF DUP3 AND SWAP1 POP SWAP2 SWAP1 POP JUMP JUMPDEST PUSH2 0x4868 DUP2 PUSH2 0x4851 JUMP JUMPDEST DUP2 EQ PUSH2 0x4873 JUMPI PUSH1 0x0 DUP1 REVERT JUMPDEST POP JUMP JUMPDEST PUSH1 0x0 DUP2 MLOAD SWAP1 POP PUSH2 0x4885 DUP2 PUSH2 0x485F JUMP JUMPDEST SWAP3 SWAP2 POP POP JUMP JUMPDEST PUSH2 0x4894 DUP2 PUSH2 0x3F85 JUMP JUMPDEST DUP2 EQ PUSH2 0x489F JUMPI PUSH1 0x0 DUP1 REVERT JUMPDEST POP JUMP JUMPDEST PUSH1 0x0 DUP2 MLOAD SWAP1 POP PUSH2 0x48B1 DUP2 PUSH2 0x488B JUMP JUMPDEST SWAP3 SWAP2 POP POP JUMP JUMPDEST PUSH1 0x0 DUP1 PUSH1 0x0 DUP1 PUSH1 0x0 DUP1 PUSH1 0x0 PUSH1 0xE0 DUP9 DUP11 SUB SLT ISZERO PUSH2 0x48D6 JUMPI PUSH2 0x48D5 PUSH2 0x4027 JUMP JUMPDEST JUMPDEST PUSH1 0x0 PUSH2 0x48E4 DUP11 DUP3 DUP12 ADD PUSH2 0x4827 JUMP JUMPDEST SWAP8 POP POP PUSH1 0x20 PUSH2 0x48F5 DUP11 DUP3 DUP12 ADD PUSH2 0x483C JUMP JUMPDEST SWAP7 POP POP PUSH1 0x40 PUSH2 0x4906 DUP11 DUP3 DUP12 ADD PUSH2 0x4876 JUMP JUMPDEST SWAP6 POP POP PUSH1 0x60 PUSH2 0x4917 DUP11 DUP3 DUP12 ADD PUSH2 0x4876 JUMP JUMPDEST SWAP5 POP POP PUSH1 0x80 PUSH2 0x4928 DUP11 DUP3 DUP12 ADD PUSH2 0x4876 JUMP JUMPDEST SWAP4 POP POP PUSH1 0xA0 PUSH2 0x4939 DUP11 DUP3 DUP12 ADD PUSH2 0x48A2 JUMP JUMPDEST SWAP3 POP POP PUSH1 0xC0 PUSH2 0x494A DUP11 DUP3 DUP12 ADD PUSH2 0x478C JUMP JUMPDEST SWAP2 POP POP SWAP3 SWAP6 SWAP9 SWAP2 SWAP5 SWAP8 POP SWAP3 SWAP6 POP JUMP JUMPDEST PUSH1 0x0 DUP3 DUP3 MSTORE PUSH1 0x20 DUP3 ADD SWAP1 POP SWAP3 SWAP2 POP POP JUMP JUMPDEST POP JUMP JUMPDEST PUSH1 0x0 PUSH2 0x497A PUSH1 0x0 DUP4 PUSH2 0x4959 JUMP JUMPDEST SWAP2 POP PUSH2 0x4985 DUP3 PUSH2 0x496A JUMP JUMPDEST PUSH1 0x0 DUP3 ADD SWAP1 POP SWAP2 SWAP1 POP JUMP JUMPDEST PUSH1 0x0 PUSH1 0xA0 DUP3 ADD SWAP1 POP PUSH2 0x49A5 PUSH1 0x0 DUP4 ADD DUP8 PUSH2 0x3EA7 JUMP JUMPDEST PUSH2 0x49B2 PUSH1 0x20 DUP4 ADD DUP7 PUSH2 0x423C JUMP JUMPDEST PUSH2 0x49BF PUSH1 0x40 DUP4 ADD DUP6 PUSH2 0x423C JUMP JUMPDEST PUSH2 0x49CC PUSH1 0x60 DUP4 ADD DUP5 PUSH2 0x3E4B JUMP JUMPDEST DUP2 DUP2 SUB PUSH1 0x80 DUP4 ADD MSTORE PUSH2 0x49DD DUP2 PUSH2 0x496D JUMP JUMPDEST SWAP1 POP SWAP6 SWAP5 POP POP POP POP POP JUMP JUMPDEST PUSH1 0x0 DUP1 PUSH1 0x40 DUP4 DUP6 SUB SLT ISZERO PUSH2 0x49FF JUMPI PUSH2 0x49FE PUSH2 0x4027 JUMP JUMPDEST JUMPDEST PUSH1 0x0 PUSH2 0x4A0D DUP6 DUP3 DUP7 ADD PUSH2 0x47CE JUMP JUMPDEST SWAP3 POP POP PUSH1 0x20 PUSH2 0x4A1E DUP6 DUP3 DUP7 ADD PUSH2 0x47CE JUMP JUMPDEST SWAP2 POP POP SWAP3 POP SWAP3 SWAP1 POP JUMP JUMPDEST PUSH1 0x0 PUSH1 0x60 DUP3 ADD SWAP1 POP PUSH2 0x4A3D PUSH1 0x0 DUP4 ADD DUP7 PUSH2 0x423C JUMP JUMPDEST PUSH2 0x4A4A PUSH1 0x20 DUP4 ADD DUP6 PUSH2 0x423C JUMP JUMPDEST PUSH2 0x4A57 PUSH1 0x40 DUP4 ADD DUP5 PUSH2 0x3E4B JUMP JUMPDEST SWAP5 SWAP4 POP POP POP POP JUMP JUMPDEST PUSH32 0x4E487B7100000000000000000000000000000000000000000000000000000000 PUSH1 0x0 MSTORE PUSH1 0x11 PUSH1 0x4 MSTORE PUSH1 0x24 PUSH1 0x0 REVERT JUMPDEST PUSH1 0x0 PUSH2 0x4A99 DUP3 PUSH2 0x3DC5 JUMP JUMPDEST SWAP2 POP PUSH2 0x4AA4 DUP4 PUSH2 0x3DC5 JUMP JUMPDEST SWAP3 POP DUP2 PUSH32 0xFFFFFFFFFFFFFFFFFFFFFFFFFFFFFFFFFFFFFFFFFFFFFFFFFFFFFFFFFFFFFFFF DIV DUP4 GT DUP3 ISZERO ISZERO AND ISZERO PUSH2 0x4ADD JUMPI PUSH2 0x4ADC PUSH2 0x4A5F JUMP JUMPDEST JUMPDEST DUP3 DUP3 MUL SWAP1 POP SWAP3 SWAP2 POP POP JUMP JUMPDEST PUSH1 0x0 DUP3 DUP3 MSTORE PUSH1 0x20 DUP3 ADD SWAP1 POP SWAP3 SWAP2 POP POP JUMP JUMPDEST PUSH32 0x5457415000000000000000000000000000000000000000000000000000000000 PUSH1 0x0 DUP3 ADD MSTORE POP JUMP JUMPDEST PUSH1 0x0 PUSH2 0x4B2F PUSH1 0x4 DUP4 PUSH2 0x4AE8 JUMP JUMPDEST SWAP2 POP PUSH2 0x4B3A DUP3 PUSH2 0x4AF9 JUMP JUMPDEST PUSH1 0x20 DUP3 ADD SWAP1 POP SWAP2 SWAP1 POP JUMP JUMPDEST PUSH1 0x0 PUSH1 0x20 DUP3 ADD SWAP1 POP DUP2 DUP2 SUB PUSH1 0x0 DUP4 ADD MSTORE PUSH2 0x4B5E DUP2 PUSH2 0x4B22 JUMP JUMPDEST SWAP1 POP SWAP2 SWAP1 POP JUMP JUMPDEST PUSH32 0x4E487B7100000000000000000000000000000000000000000000000000000000 PUSH1 0x0 MSTORE PUSH1 0x41 PUSH1 0x4 MSTORE PUSH1 0x24 PUSH1 0x0 REVERT JUMPDEST PUSH32 0x4E487B7100000000000000000000000000000000000000000000000000000000 PUSH1 0x0 MSTORE PUSH1 0x32 PUSH1 0x4 MSTORE PUSH1 0x24 PUSH1 0x0 REVERT JUMPDEST PUSH1 0x0 DUP2 MLOAD SWAP1 POP SWAP2 SWAP1 POP JUMP JUMPDEST PUSH1 0x0 DUP3 DUP3 MSTORE PUSH1 0x20 DUP3 ADD SWAP1 POP SWAP3 SWAP2 POP POP JUMP JUMPDEST PUSH1 0x0 DUP2 SWAP1 POP PUSH1 0x20 DUP3 ADD SWAP1 POP SWAP2 SWAP1 POP JUMP JUMPDEST PUSH2 0x4BF8 DUP2 PUSH2 0x3F4B JUMP JUMPDEST DUP3 MSTORE POP POP JUMP JUMPDEST PUSH1 0x0 PUSH2 0x4C0A DUP4 DUP4 PUSH2 0x4BEF JUMP JUMPDEST PUSH1 0x20 DUP4 ADD SWAP1 POP SWAP3 SWAP2 POP POP JUMP JUMPDEST PUSH1 0x0 PUSH1 0x20 DUP3 ADD SWAP1 POP SWAP2 SWAP1 POP JUMP JUMPDEST PUSH1 0x0 PUSH2 0x4C2E DUP3 PUSH2 0x4BC3 JUMP JUMPDEST PUSH2 0x4C38 DUP2 DUP6 PUSH2 0x4BCE JUMP JUMPDEST SWAP4 POP PUSH2 0x4C43 DUP4 PUSH2 0x4BDF JUMP JUMPDEST DUP1 PUSH1 0x0 JUMPDEST DUP4 DUP2 LT ISZERO PUSH2 0x4C74 JUMPI DUP2 MLOAD PUSH2 0x4C5B DUP9 DUP3 PUSH2 0x4BFE JUMP JUMPDEST SWAP8 POP PUSH2 0x4C66 DUP4 PUSH2 0x4C16 JUMP JUMPDEST SWAP3 POP POP PUSH1 0x1 DUP2 ADD SWAP1 POP PUSH2 0x4C47 JUMP JUMPDEST POP DUP6 SWAP4 POP POP POP POP SWAP3 SWAP2 POP POP JUMP JUMPDEST PUSH1 0x0 PUSH1 0x20 DUP3 ADD SWAP1 POP DUP2 DUP2 SUB PUSH1 0x0 DUP4 ADD MSTORE PUSH2 0x4C9B DUP2 DUP5 PUSH2 0x4C23 JUMP JUMPDEST SWAP1 POP SWAP3 SWAP2 POP POP JUMP JUMPDEST PUSH1 0x0 PUSH1 0x1F NOT PUSH1 0x1F DUP4 ADD AND SWAP1 POP SWAP2 SWAP1 POP JUMP JUMPDEST PUSH2 0x4CBD DUP3 PUSH2 0x4CA3 JUMP JUMPDEST DUP2 ADD DUP2 DUP2 LT PUSH8 0xFFFFFFFFFFFFFFFF DUP3 GT OR ISZERO PUSH2 0x4CDC JUMPI PUSH2 0x4CDB PUSH2 0x4B65 JUMP JUMPDEST JUMPDEST DUP1 PUSH1 0x40 MSTORE POP POP POP JUMP JUMPDEST PUSH1 0x0 PUSH2 0x4CEF PUSH2 0x401D JUMP JUMPDEST SWAP1 POP PUSH2 0x4CFB DUP3 DUP3 PUSH2 0x4CB4 JUMP JUMPDEST SWAP2 SWAP1 POP JUMP JUMPDEST PUSH1 0x0 PUSH8 0xFFFFFFFFFFFFFFFF DUP3 GT ISZERO PUSH2 0x4D1B JUMPI PUSH2 0x4D1A PUSH2 0x4B65 JUMP JUMPDEST JUMPDEST PUSH1 0x20 DUP3 MUL SWAP1 POP PUSH1 0x20 DUP2 ADD SWAP1 POP SWAP2 SWAP1 POP JUMP JUMPDEST PUSH1 0x0 DUP2 PUSH1 0x6 SIGNEXTEND SWAP1 POP SWAP2 SWAP1 POP JUMP JUMPDEST PUSH2 0x4D42 DUP2 PUSH2 0x4D2C JUMP JUMPDEST DUP2 EQ PUSH2 0x4D4D JUMPI PUSH1 0x0 DUP1 REVERT JUMPDEST POP JUMP JUMPDEST PUSH1 0x0 DUP2 MLOAD SWAP1 POP PUSH2 0x4D5F DUP2 PUSH2 0x4D39 JUMP JUMPDEST SWAP3 SWAP2 POP POP JUMP JUMPDEST PUSH1 0x0 PUSH2 0x4D78 PUSH2 0x4D73 DUP5 PUSH2 0x4D00 JUMP JUMPDEST PUSH2 0x4CE5 JUMP JUMPDEST SWAP1 POP DUP1 DUP4 DUP3 MSTORE PUSH1 0x20 DUP3 ADD SWAP1 POP PUSH1 0x20 DUP5 MUL DUP4 ADD DUP6 DUP2 GT ISZERO PUSH2 0x4D9B JUMPI PUSH2 0x4D9A PUSH2 0x459C JUMP JUMPDEST JUMPDEST DUP4 JUMPDEST DUP2 DUP2 LT ISZERO PUSH2 0x4DC4 JUMPI DUP1 PUSH2 0x4DB0 DUP9 DUP3 PUSH2 0x4D50 JUMP JUMPDEST DUP5 MSTORE PUSH1 0x20 DUP5 ADD SWAP4 POP POP PUSH1 0x20 DUP2 ADD SWAP1 POP PUSH2 0x4D9D JUMP JUMPDEST POP POP POP SWAP4 SWAP3 POP POP POP JUMP JUMPDEST PUSH1 0x0 DUP3 PUSH1 0x1F DUP4 ADD SLT PUSH2 0x4DE3 JUMPI PUSH2 0x4DE2 PUSH2 0x4592 JUMP JUMPDEST JUMPDEST DUP2 MLOAD PUSH2 0x4DF3 DUP5 DUP3 PUSH1 0x20 DUP7 ADD PUSH2 0x4D65 JUMP JUMPDEST SWAP2 POP POP SWAP3 SWAP2 POP POP JUMP JUMPDEST PUSH1 0x0 PUSH8 0xFFFFFFFFFFFFFFFF DUP3 GT ISZERO PUSH2 0x4E17 JUMPI PUSH2 0x4E16 PUSH2 0x4B65 JUMP JUMPDEST JUMPDEST PUSH1 0x20 DUP3 MUL SWAP1 POP PUSH1 0x20 DUP2 ADD SWAP1 POP SWAP2 SWAP1 POP JUMP JUMPDEST PUSH1 0x0 PUSH2 0x4E3B PUSH2 0x4E36 DUP5 PUSH2 0x4DFC JUMP JUMPDEST PUSH2 0x4CE5 JUMP JUMPDEST SWAP1 POP DUP1 DUP4 DUP3 MSTORE PUSH1 0x20 DUP3 ADD SWAP1 POP PUSH1 0x20 DUP5 MUL DUP4 ADD DUP6 DUP2 GT ISZERO PUSH2 0x4E5E JUMPI PUSH2 0x4E5D PUSH2 0x459C JUMP JUMPDEST JUMPDEST DUP4 JUMPDEST DUP2 DUP2 LT ISZERO PUSH2 0x4E87 JUMPI DUP1 PUSH2 0x4E73 DUP9 DUP3 PUSH2 0x4827 JUMP JUMPDEST DUP5 MSTORE PUSH1 0x20 DUP5 ADD SWAP4 POP POP PUSH1 0x20 DUP2 ADD SWAP1 POP PUSH2 0x4E60 JUMP JUMPDEST POP POP POP SWAP4 SWAP3 POP POP POP JUMP JUMPDEST PUSH1 0x0 DUP3 PUSH1 0x1F DUP4 ADD SLT PUSH2 0x4EA6 JUMPI PUSH2 0x4EA5 PUSH2 0x4592 JUMP JUMPDEST JUMPDEST DUP2 MLOAD PUSH2 0x4EB6 DUP5 DUP3 PUSH1 0x20 DUP7 ADD PUSH2 0x4E28 JUMP JUMPDEST SWAP2 POP POP SWAP3 SWAP2 POP POP JUMP JUMPDEST PUSH1 0x0 DUP1 PUSH1 0x40 DUP4 DUP6 SUB SLT ISZERO PUSH2 0x4ED6 JUMPI PUSH2 0x4ED5 PUSH2 0x4027 JUMP JUMPDEST JUMPDEST PUSH1 0x0 DUP4 ADD MLOAD PUSH8 0xFFFFFFFFFFFFFFFF DUP2 GT ISZERO PUSH2 0x4EF4 JUMPI PUSH2 0x4EF3 PUSH2 0x402C JUMP JUMPDEST JUMPDEST PUSH2 0x4F00 DUP6 DUP3 DUP7 ADD PUSH2 0x4DCE JUMP JUMPDEST SWAP3 POP POP PUSH1 0x20 DUP4 ADD MLOAD PUSH8 0xFFFFFFFFFFFFFFFF DUP2 GT ISZERO PUSH2 0x4F21 JUMPI PUSH2 0x4F20 PUSH2 0x402C JUMP JUMPDEST JUMPDEST PUSH2 0x4F2D DUP6 DUP3 DUP7 ADD PUSH2 0x4E91 JUMP JUMPDEST SWAP2 POP POP SWAP3 POP SWAP3 SWAP1 POP JUMP JUMPDEST PUSH1 0x0 PUSH2 0x4F42 DUP3 PUSH2 0x4D2C JUMP JUMPDEST SWAP2 POP PUSH2 0x4F4D DUP4 PUSH2 0x4D2C JUMP JUMPDEST SWAP3 POP DUP3 PUSH32 0xFFFFFFFFFFFFFFFFFFFFFFFFFFFFFFFFFFFFFFFFFFFFFFFFFF80000000000000 ADD DUP3 SLT PUSH1 0x0 DUP5 SLT ISZERO AND ISZERO PUSH2 0x4F88 JUMPI PUSH2 0x4F87 PUSH2 0x4A5F JUMP JUMPDEST JUMPDEST DUP3 PUSH7 0x7FFFFFFFFFFFFF ADD DUP3 SGT PUSH1 0x0 DUP5 SLT AND ISZERO PUSH2 0x4FA7 JUMPI PUSH2 0x4FA6 PUSH2 0x4A5F JUMP JUMPDEST JUMPDEST DUP3 DUP3 SUB SWAP1 POP SWAP3 SWAP2 POP POP JUMP JUMPDEST PUSH32 0x4E487B7100000000000000000000000000000000000000000000000000000000 PUSH1 0x0 MSTORE PUSH1 0x12 PUSH1 0x4 MSTORE PUSH1 0x24 PUSH1 0x0 REVERT JUMPDEST PUSH1 0x0 PUSH2 0x4FEC DUP3 PUSH2 0x4D2C JUMP JUMPDEST SWAP2 POP PUSH2 0x4FF7 DUP4 PUSH2 0x4D2C JUMP JUMPDEST SWAP3 POP DUP3 PUSH2 0x5007 JUMPI PUSH2 0x5006 PUSH2 0x4FB2 JUMP JUMPDEST JUMPDEST PUSH1 0x1 PUSH1 0x0 SUB DUP4 EQ PUSH32 0xFFFFFFFFFFFFFFFFFFFFFFFFFFFFFFFFFFFFFFFFFFFFFFFFFF80000000000000 DUP4 EQ AND ISZERO PUSH2 0x5040 JUMPI PUSH2 0x503F PUSH2 0x4A5F JUMP JUMPDEST JUMPDEST DUP3 DUP3 SDIV SWAP1 POP SWAP3 SWAP2 POP POP JUMP JUMPDEST PUSH1 0x0 PUSH2 0x5056 DUP3 PUSH2 0x4D2C JUMP JUMPDEST SWAP2 POP PUSH2 0x5061 DUP4 PUSH2 0x4D2C JUMP JUMPDEST SWAP3 POP DUP3 PUSH2 0x5071 JUMPI PUSH2 0x5070 PUSH2 0x4FB2 JUMP JUMPDEST JUMPDEST DUP3 DUP3 SMOD SWAP1 POP SWAP3 SWAP2 POP POP JUMP JUMPDEST PUSH1 0x0 PUSH2 0x5087 DUP3 PUSH2 0x40DC JUMP JUMPDEST SWAP2 POP PUSH32 0xFFFFFFFFFFFFFFFFFFFFFFFFFFFFFFFFFFFFFFFFFFFFFFFFFFFFFFFFFF800000 DUP3 EQ ISZERO PUSH2 0x50BA JUMPI PUSH2 0x50B9 PUSH2 0x4A5F JUMP JUMPDEST JUMPDEST PUSH1 0x1 DUP3 SUB SWAP1 POP SWAP2 SWAP1 POP JUMP JUMPDEST PUSH1 0x0 PUSH2 0x50D0 DUP3 PUSH2 0x3DC5 JUMP JUMPDEST SWAP2 POP PUSH2 0x50DB DUP4 PUSH2 0x3DC5 JUMP JUMPDEST SWAP3 POP DUP3 PUSH2 0x50EB JUMPI PUSH2 0x50EA PUSH2 0x4FB2 JUMP JUMPDEST JUMPDEST DUP3 DUP3 DIV SWAP1 POP SWAP3 SWAP2 POP POP JUMP JUMPDEST PUSH32 0x61646D696E000000000000000000000000000000000000000000000000000000 PUSH1 0x0 DUP3 ADD MSTORE POP JUMP JUMPDEST PUSH1 0x0 PUSH2 0x512C PUSH1 0x5 DUP4 PUSH2 0x4AE8 JUMP JUMPDEST SWAP2 POP PUSH2 0x5137 DUP3 PUSH2 0x50F6 JUMP JUMPDEST PUSH1 0x20 DUP3 ADD SWAP1 POP SWAP2 SWAP1 POP JUMP JUMPDEST PUSH1 0x0 PUSH1 0x20 DUP3 ADD SWAP1 POP DUP2 DUP2 SUB PUSH1 0x0 DUP4 ADD MSTORE PUSH2 0x515B DUP2 PUSH2 0x511F JUMP JUMPDEST SWAP1 POP SWAP2 SWAP1 POP JUMP JUMPDEST PUSH1 0x0 PUSH1 0xA0 DUP3 ADD SWAP1 POP PUSH2 0x5177 PUSH1 0x0 DUP4 ADD DUP9 PUSH2 0x3EA7 JUMP JUMPDEST PUSH2 0x5184 PUSH1 0x20 DUP4 ADD DUP8 PUSH2 0x423C JUMP JUMPDEST PUSH2 0x5191 PUSH1 0x40 DUP4 ADD DUP7 PUSH2 0x423C JUMP JUMPDEST PUSH2 0x519E PUSH1 0x60 DUP4 ADD DUP6 PUSH2 0x3E4B JUMP JUMPDEST PUSH2 0x51AB PUSH1 0x80 DUP4 ADD DUP5 PUSH2 0x3E4B JUMP JUMPDEST SWAP7 SWAP6 POP POP POP POP POP POP JUMP JUMPDEST PUSH1 0x0 DUP2 MLOAD SWAP1 POP PUSH2 0x51C4 DUP2 PUSH2 0x417C JUMP JUMPDEST SWAP3 SWAP2 POP POP JUMP JUMPDEST PUSH1 0x0 DUP1 PUSH1 0x40 DUP4 DUP6 SUB SLT ISZERO PUSH2 0x51E1 JUMPI PUSH2 0x51E0 PUSH2 0x4027 JUMP JUMPDEST JUMPDEST PUSH1 0x0 PUSH2 0x51EF DUP6 DUP3 DUP7 ADD PUSH2 0x51B5 JUMP JUMPDEST SWAP3 POP POP PUSH1 0x20 PUSH2 0x5200 DUP6 DUP3 DUP7 ADD PUSH2 0x51B5 JUMP JUMPDEST SWAP2 POP POP SWAP3 POP SWAP3 SWAP1 POP JUMP JUMPDEST PUSH32 0x5000000000000000000000000000000000000000000000000000000000000000 PUSH1 0x0 DUP3 ADD MSTORE POP JUMP JUMPDEST PUSH1 0x0 PUSH2 0x5240 PUSH1 0x1 DUP4 PUSH2 0x4AE8 JUMP JUMPDEST SWAP2 POP PUSH2 0x524B DUP3 PUSH2 0x520A JUMP JUMPDEST PUSH1 0x20 DUP3 ADD SWAP1 POP SWAP2 SWAP1 POP JUMP JUMPDEST PUSH1 0x0 PUSH1 0x20 DUP3 ADD SWAP1 POP DUP2 DUP2 SUB PUSH1 0x0 DUP4 ADD MSTORE PUSH2 0x526F DUP2 PUSH2 0x5233 JUMP JUMPDEST SWAP1 POP SWAP2 SWAP1 POP JUMP JUMPDEST PUSH1 0x0 PUSH2 0x5281 DUP3 PUSH2 0x3DC5 JUMP JUMPDEST SWAP2 POP PUSH2 0x528C DUP4 PUSH2 0x3DC5 JUMP JUMPDEST SWAP3 POP DUP3 PUSH32 0xFFFFFFFFFFFFFFFFFFFFFFFFFFFFFFFFFFFFFFFFFFFFFFFFFFFFFFFFFFFFFFFF SUB DUP3 GT ISZERO PUSH2 0x52C1 JUMPI PUSH2 0x52C0 PUSH2 0x4A5F JUMP JUMPDEST JUMPDEST DUP3 DUP3 ADD SWAP1 POP SWAP3 SWAP2 POP POP JUMP JUMPDEST PUSH32 0x5053000000000000000000000000000000000000000000000000000000000000 PUSH1 0x0 DUP3 ADD MSTORE POP JUMP JUMPDEST PUSH1 0x0 PUSH2 0x5302 PUSH1 0x2 DUP4 PUSH2 0x4AE8 JUMP JUMPDEST SWAP2 POP PUSH2 0x530D DUP3 PUSH2 0x52CC JUMP JUMPDEST PUSH1 0x20 DUP3 ADD SWAP1 POP SWAP2 SWAP1 POP JUMP JUMPDEST PUSH1 0x0 PUSH1 0x20 DUP3 ADD SWAP1 POP DUP2 DUP2 SUB PUSH1 0x0 DUP4 ADD MSTORE PUSH2 0x5331 DUP2 PUSH2 0x52F5 JUMP JUMPDEST SWAP1 POP SWAP2 SWAP1 POP JUMP JUMPDEST PUSH32 0x5053320000000000000000000000000000000000000000000000000000000000 PUSH1 0x0 DUP3 ADD MSTORE POP JUMP JUMPDEST PUSH1 0x0 PUSH2 0x536E PUSH1 0x3 DUP4 PUSH2 0x4AE8 JUMP JUMPDEST SWAP2 POP PUSH2 0x5379 DUP3 PUSH2 0x5338 JUMP JUMPDEST PUSH1 0x20 DUP3 ADD SWAP1 POP SWAP2 SWAP1 POP JUMP JUMPDEST PUSH1 0x0 PUSH1 0x20 DUP3 ADD SWAP1 POP DUP2 DUP2 SUB PUSH1 0x0 DUP4 ADD MSTORE PUSH2 0x539D DUP2 PUSH2 0x5361 JUMP JUMPDEST SWAP1 POP SWAP2 SWAP1 POP JUMP JUMPDEST PUSH1 0x0 PUSH2 0x53AF DUP3 PUSH2 0x466B JUMP JUMPDEST SWAP2 POP PUSH32 0x8000000000000000000000000000000000000000000000000000000000000000 DUP3 EQ ISZERO PUSH2 0x53E2 JUMPI PUSH2 0x53E1 PUSH2 0x4A5F JUMP JUMPDEST JUMPDEST DUP2 PUSH1 0x0 SUB SWAP1 POP SWAP2 SWAP1 POP JUMP JUMPDEST PUSH1 0x0 PUSH2 0x53F8 DUP3 PUSH2 0x40DC JUMP JUMPDEST SWAP2 POP PUSH32 0xFFFFFFFFFFFFFFFFFFFFFFFFFFFFFFFFFFFFFFFFFFFFFFFFFFFFFFFFFF800000 DUP3 EQ ISZERO PUSH2 0x542B JUMPI PUSH2 0x542A PUSH2 0x4A5F JUMP JUMPDEST JUMPDEST DUP2 PUSH1 0x0 SUB SWAP1 POP SWAP2 SWAP1 POP JUMP JUMPDEST PUSH32 0x5400000000000000000000000000000000000000000000000000000000000000 PUSH1 0x0 DUP3 ADD MSTORE POP JUMP JUMPDEST PUSH1 0x0 PUSH2 0x546C PUSH1 0x1 DUP4 PUSH2 0x4AE8 JUMP JUMPDEST SWAP2 POP PUSH2 0x5477 DUP3 PUSH2 0x5436 JUMP JUMPDEST PUSH1 0x20 DUP3 ADD SWAP1 POP SWAP2 SWAP1 POP JUMP JUMPDEST PUSH1 0x0 PUSH1 0x20 DUP3 ADD SWAP1 POP DUP2 DUP2 SUB PUSH1 0x0 DUP4 ADD MSTORE PUSH2 0x549B DUP2 PUSH2 0x545F JUMP JUMPDEST SWAP1 POP SWAP2 SWAP1 POP JUMP JUMPDEST PUSH1 0x0 PUSH2 0x54AD DUP3 PUSH2 0x3DC5 JUMP JUMPDEST SWAP2 POP PUSH2 0x54B8 DUP4 PUSH2 0x3DC5 JUMP JUMPDEST SWAP3 POP DUP3 PUSH2 0x54C8 JUMPI PUSH2 0x54C7 PUSH2 0x4FB2 JUMP JUMPDEST JUMPDEST DUP3 DUP3 MOD SWAP1 POP SWAP3 SWAP2 POP POP JUMP JUMPDEST PUSH1 0x0 PUSH2 0x54DE DUP3 PUSH2 0x3DC5 JUMP JUMPDEST SWAP2 POP PUSH2 0x54E9 DUP4 PUSH2 0x3DC5 JUMP JUMPDEST SWAP3 POP DUP3 DUP3 LT ISZERO PUSH2 0x54FC JUMPI PUSH2 0x54FB PUSH2 0x4A5F JUMP JUMPDEST JUMPDEST DUP3 DUP3 SUB SWAP1 POP SWAP3 SWAP2 POP POP JUMP JUMPDEST PUSH32 0x4374000000000000000000000000000000000000000000000000000000000000 PUSH1 0x0 DUP3 ADD MSTORE POP JUMP JUMPDEST PUSH1 0x0 PUSH2 0x553D PUSH1 0x2 DUP4 PUSH2 0x4AE8 JUMP JUMPDEST SWAP2 POP PUSH2 0x5548 DUP3 PUSH2 0x5507 JUMP JUMPDEST PUSH1 0x20 DUP3 ADD SWAP1 POP SWAP2 SWAP1 POP JUMP JUMPDEST PUSH1 0x0 PUSH1 0x20 DUP3 ADD SWAP1 POP DUP2 DUP2 SUB PUSH1 0x0 DUP4 ADD MSTORE PUSH2 0x556C DUP2 PUSH2 0x5530 JUMP JUMPDEST SWAP1 POP SWAP2 SWAP1 POP JUMP JUMPDEST PUSH1 0x0 DUP2 SWAP1 POP SWAP2 SWAP1 POP JUMP JUMPDEST PUSH2 0x5586 DUP2 PUSH2 0x5573 JUMP JUMPDEST DUP3 MSTORE POP POP JUMP JUMPDEST PUSH1 0x0 PUSH1 0x20 DUP3 ADD SWAP1 POP PUSH2 0x55A1 PUSH1 0x0 DUP4 ADD DUP5 PUSH2 0x557D JUMP JUMPDEST SWAP3 SWAP2 POP POP JUMP JUMPDEST PUSH1 0x0 DUP1 PUSH1 0x0 DUP1 PUSH1 0x0 PUSH1 0xA0 DUP7 DUP9 SUB SLT ISZERO PUSH2 0x55C3 JUMPI PUSH2 0x55C2 PUSH2 0x4027 JUMP JUMPDEST JUMPDEST PUSH1 0x0 PUSH2 0x55D1 DUP9 DUP3 DUP10 ADD PUSH2 0x51B5 JUMP JUMPDEST SWAP6 POP POP PUSH1 0x20 PUSH2 0x55E2 DUP9 DUP3 DUP10 ADD PUSH2 0x47CE JUMP JUMPDEST SWAP5 POP POP PUSH1 0x40 PUSH2 0x55F3 DUP9 DUP3 DUP10 ADD PUSH2 0x47CE JUMP JUMPDEST SWAP4 POP POP PUSH1 0x60 PUSH2 0x5604 DUP9 DUP3 DUP10 ADD PUSH2 0x51B5 JUMP JUMPDEST SWAP3 POP POP PUSH1 0x80 PUSH2 0x5615 DUP9 DUP3 DUP10 ADD PUSH2 0x51B5 JUMP JUMPDEST SWAP2 POP POP SWAP3 SWAP6 POP SWAP3 SWAP6 SWAP1 SWAP4 POP JUMP JUMPDEST PUSH1 0x0 PUSH2 0x562D DUP3 PUSH2 0x3E75 JUMP JUMPDEST SWAP2 POP PUSH2 0x5638 DUP4 PUSH2 0x3E75 JUMP JUMPDEST SWAP3 POP DUP3 DUP3 LT ISZERO PUSH2 0x564B JUMPI PUSH2 0x564A PUSH2 0x4A5F JUMP JUMPDEST JUMPDEST DUP3 DUP3 SUB SWAP1 POP SWAP3 SWAP2 POP POP JUMP JUMPDEST PUSH32 0x5361666545524332303A204552433230206F7065726174696F6E20646964206E PUSH1 0x0 DUP3 ADD MSTORE PUSH32 0x6F74207375636365656400000000000000000000000000000000000000000000 PUSH1 0x20 DUP3 ADD MSTORE POP JUMP JUMPDEST PUSH1 0x0 PUSH2 0x56B2 PUSH1 0x2A DUP4 PUSH2 0x4AE8 JUMP JUMPDEST SWAP2 POP PUSH2 0x56BD DUP3 PUSH2 0x5656 JUMP JUMPDEST PUSH1 0x40 DUP3 ADD SWAP1 POP SWAP2 SWAP1 POP JUMP JUMPDEST PUSH1 0x0 PUSH1 0x20 DUP3 ADD SWAP1 POP DUP2 DUP2 SUB PUSH1 0x0 DUP4 ADD MSTORE PUSH2 0x56E1 DUP2 PUSH2 0x56A5 JUMP JUMPDEST SWAP1 POP SWAP2 SWAP1 POP JUMP JUMPDEST PUSH32 0x43657468206E6F74203000000000000000000000000000000000000000000000 PUSH1 0x0 DUP3 ADD MSTORE POP JUMP JUMPDEST PUSH1 0x0 PUSH2 0x571E PUSH1 0xA DUP4 PUSH2 0x4AE8 JUMP JUMPDEST SWAP2 POP PUSH2 0x5729 DUP3 PUSH2 0x56E8 JUMP JUMPDEST PUSH1 0x20 DUP3 ADD SWAP1 POP SWAP2 SWAP1 POP JUMP JUMPDEST PUSH1 0x0 PUSH1 0x20 DUP3 ADD SWAP1 POP DUP2 DUP2 SUB PUSH1 0x0 DUP4 ADD MSTORE PUSH2 0x574D DUP2 PUSH2 0x5711 JUMP JUMPDEST SWAP1 POP SWAP2 SWAP1 POP JUMP JUMPDEST PUSH1 0x0 DUP2 PUSH1 0x60 SHL SWAP1 POP SWAP2 SWAP1 POP JUMP JUMPDEST PUSH1 0x0 PUSH2 0x576C DUP3 PUSH2 0x5754 JUMP JUMPDEST SWAP1 POP SWAP2 SWAP1 POP JUMP JUMPDEST PUSH1 0x0 PUSH2 0x577E DUP3 PUSH2 0x5761 JUMP JUMPDEST SWAP1 POP SWAP2 SWAP1 POP JUMP JUMPDEST PUSH2 0x5796 PUSH2 0x5791 DUP3 PUSH2 0x3E95 JUMP JUMPDEST PUSH2 0x5773 JUMP JUMPDEST DUP3 MSTORE POP POP JUMP JUMPDEST PUSH1 0x0 DUP2 PUSH1 0xE8 SHL SWAP1 POP SWAP2 SWAP1 POP JUMP JUMPDEST PUSH1 0x0 PUSH2 0x57B4 DUP3 PUSH2 0x579C JUMP JUMPDEST SWAP1 POP SWAP2 SWAP1 POP JUMP JUMPDEST PUSH2 0x57CC PUSH2 0x57C7 DUP3 PUSH2 0x40DC JUMP JUMPDEST PUSH2 0x57A9 JUMP JUMPDEST DUP3 MSTORE POP POP JUMP JUMPDEST PUSH1 0x0 PUSH2 0x57DE DUP3 DUP7 PUSH2 0x5785 JUMP JUMPDEST PUSH1 0x14 DUP3 ADD SWAP2 POP PUSH2 0x57EE DUP3 DUP6 PUSH2 0x57BB JUMP JUMPDEST PUSH1 0x3 DUP3 ADD SWAP2 POP PUSH2 0x57FE DUP3 DUP5 PUSH2 0x57BB JUMP JUMPDEST PUSH1 0x3 DUP3 ADD SWAP2 POP DUP2 SWAP1 POP SWAP5 SWAP4 POP POP POP POP JUMP JUMPDEST PUSH32 0x416464726573733A20696E73756666696369656E742062616C616E636520666F PUSH1 0x0 DUP3 ADD MSTORE PUSH32 0x722063616C6C0000000000000000000000000000000000000000000000000000 PUSH1 0x20 DUP3 ADD MSTORE POP JUMP JUMPDEST PUSH1 0x0 PUSH2 0x586B PUSH1 0x26 DUP4 PUSH2 0x4AE8 JUMP JUMPDEST SWAP2 POP PUSH2 0x5876 DUP3 PUSH2 0x580F JUMP JUMPDEST PUSH1 0x40 DUP3 ADD SWAP1 POP SWAP2 SWAP1 POP JUMP JUMPDEST PUSH1 0x0 PUSH1 0x20 DUP3 ADD SWAP1 POP DUP2 DUP2 SUB PUSH1 0x0 DUP4 ADD MSTORE PUSH2 0x589A DUP2 PUSH2 0x585E JUMP JUMPDEST SWAP1 POP SWAP2 SWAP1 POP JUMP JUMPDEST PUSH32 0x416464726573733A2063616C6C20746F206E6F6E2D636F6E7472616374000000 PUSH1 0x0 DUP3 ADD MSTORE POP JUMP JUMPDEST PUSH1 0x0 PUSH2 0x58D7 PUSH1 0x1D DUP4 PUSH2 0x4AE8 JUMP JUMPDEST SWAP2 POP PUSH2 0x58E2 DUP3 PUSH2 0x58A1 JUMP JUMPDEST PUSH1 0x20 DUP3 ADD SWAP1 POP SWAP2 SWAP1 POP JUMP JUMPDEST PUSH1 0x0 PUSH1 0x20 DUP3 ADD SWAP1 POP DUP2 DUP2 SUB PUSH1 0x0 DUP4 ADD MSTORE PUSH2 0x5906 DUP2 PUSH2 0x58CA JUMP JUMPDEST SWAP1 POP SWAP2 SWAP1 POP JUMP JUMPDEST PUSH1 0x0 DUP2 MLOAD SWAP1 POP SWAP2 SWAP1 POP JUMP JUMPDEST PUSH1 0x0 DUP2 SWAP1 POP SWAP3 SWAP2 POP POP JUMP JUMPDEST PUSH1 0x0 JUMPDEST DUP4 DUP2 LT ISZERO PUSH2 0x5941 JUMPI DUP1 DUP3 ADD MLOAD DUP2 DUP5 ADD MSTORE PUSH1 0x20 DUP2 ADD SWAP1 POP PUSH2 0x5926 JUMP JUMPDEST DUP4 DUP2 GT ISZERO PUSH2 0x5950 JUMPI PUSH1 0x0 DUP5 DUP5 ADD MSTORE JUMPDEST POP POP POP POP JUMP JUMPDEST PUSH1 0x0 PUSH2 0x5961 DUP3 PUSH2 0x590D JUMP JUMPDEST PUSH2 0x596B DUP2 DUP6 PUSH2 0x5918 JUMP JUMPDEST SWAP4 POP PUSH2 0x597B DUP2 DUP6 PUSH1 0x20 DUP7 ADD PUSH2 0x5923 JUMP JUMPDEST DUP1 DUP5 ADD SWAP2 POP POP SWAP3 SWAP2 POP POP JUMP JUMPDEST PUSH1 0x0 PUSH2 0x5993 DUP3 DUP5 PUSH2 0x5956 JUMP JUMPDEST SWAP2 POP DUP2 SWAP1 POP SWAP3 SWAP2 POP POP JUMP JUMPDEST PUSH1 0x0 DUP2 MLOAD SWAP1 POP SWAP2 SWAP1 POP JUMP JUMPDEST PUSH1 0x0 PUSH2 0x59B4 DUP3 PUSH2 0x599E JUMP JUMPDEST PUSH2 0x59BE DUP2 DUP6 PUSH2 0x4AE8 JUMP JUMPDEST SWAP4 POP PUSH2 0x59CE DUP2 DUP6 PUSH1 0x20 DUP7 ADD PUSH2 0x5923 JUMP JUMPDEST PUSH2 0x59D7 DUP2 PUSH2 0x4CA3 JUMP JUMPDEST DUP5 ADD SWAP2 POP POP SWAP3 SWAP2 POP POP JUMP JUMPDEST PUSH1 0x0 PUSH1 0x20 DUP3 ADD SWAP1 POP DUP2 DUP2 SUB PUSH1 0x0 DUP4 ADD MSTORE PUSH2 0x59FC DUP2 DUP5 PUSH2 0x59A9 JUMP JUMPDEST SWAP1 POP SWAP3 SWAP2 POP POP JUMP INVALID LOG2 PUSH5 0x6970667358 0x22 SLT KECCAK256 0xC9 0xE9 0xBE 0xB4 0xDA SWAP13 0xCD MSIZE 0xC0 0xD3 PUSH9 0xAD804097D3142A0FCF PUSH32 0xF710379B526171042C5F9764736F6C634300080A003300000000000000000000 "
		},
		"gasEstimates": {
			"creation": {
				"codeDepositCost": "4619600",
				"executionCost": "infinite",
				"totalCost": "infinite"
			},
			"external": {
				"CEth()": "infinite",
				"Fees()": "infinite",
				"WETH()": "infinite",
				"WETHAddr()": "infinite",
				"adminFee()": "2633",
				"alloc()": "infinite",
				"cHigh()": "2680",
				"cLow()": "2614",
				"calcShares(uint256,uint256,uint256)": "infinite",
				"compPortion()": "2566",
				"creatorAddr()": "infinite",
				"creatorFee()": "2587",
				"curComp0()": "2562",
				"curComp1()": "2584",
				"decimal0()": "2633",
				"decimal1()": "2588",
				"emergency(int24,int24,uint128,uint256,uint256,bool)": "infinite",
				"feetier()": "infinite",
				"getPrice()": "infinite",
				"getQuoteAtTick(int24,uint128,address,address)": "infinite",
				"getTwap()": "infinite",
				"getUniAmounts(int24,int24)": "infinite",
				"individualCap()": "2476",
				"maxTwapDeviation()": "2636",
				"mintCompound(address,uint256)": "infinite",
				"mintUniV3(int24,int24,uint256,uint256)": "infinite",
				"pool()": "infinite",
				"protocolFee()": "2566",
				"quoteAmount()": "infinite",
				"stat()": "2540",
				"supplyErc20ToCompound(address,address,uint256)": "infinite",
				"team()": "2625",
				"threshold()": "2539",
				"tickSpacing()": "2614",
				"token0()": "infinite",
				"token1()": "infinite",
				"triggerFee()": "2609",
				"twapDuration()": "2567",
				"underlyingCToken(address)": "infinite",
				"uniFactoryAddr()": "infinite",
				"uniPortion()": "2589",
				"uniswapV3MintCallback(uint256,uint256,bytes)": "infinite",
				"uniswapV3SwapCallback(int256,int256,bytes)": "infinite",
				"vault()": "infinite",
				"vaultAddr()": "infinite",
				"vaultCap()": "2585",
				"vaultWithdraw(address,uint256,uint256)": "infinite",
				"viaAdminAddr()": "infinite",
				"viaFactoryAddr()": "infinite"
			},
			"internal": {
				"_amountsForLiquidity(int24,int24,uint128)": "infinite",
				"_burnAndCollectUnis(int24,int24,uint128)": "infinite",
				"_position(int24,int24)": "infinite",
				"_unwrap(uint256)": "infinite",
				"_validRange(int24,int24,int24)": "infinite",
				"_wrap(uint256)": "infinite",
				"calcUniPortionAmounts()": "infinite",
				"getCAmounts()": "infinite",
				"getCtokenUnderlyingAmounts()": "infinite",
				"getTotalAmounts()": "infinite",
				"redeemCErc20(address,uint256,bool)": "infinite",
				"redeemCEth(uint256,bool)": "infinite",
				"removeLending()": "infinite",
				"removePositions()": "infinite",
				"removeUniswap()": "infinite",
				"supplyEthToCompound(uint256)": "infinite"
			}
		},
		"methodIdentifiers": {
			"CEth()": "bef95a64",
			"Fees()": "3aaa36e6",
			"WETH()": "ad5c4648",
			"WETHAddr()": "abdc3808",
			"adminFee()": "a0be06f9",
			"alloc()": "bbc001c3",
			"cHigh()": "8e843c6c",
			"cLow()": "d368867f",
			"calcShares(uint256,uint256,uint256)": "b6c06d3f",
			"compPortion()": "cf8d7e25",
			"creatorAddr()": "16552393",
			"creatorFee()": "e88958dc",
			"curComp0()": "c8a746a6",
			"curComp1()": "ccac7d8b",
			"decimal0()": "4bff5e23",
			"decimal1()": "cffb51cd",
			"emergency(int24,int24,uint128,uint256,uint256,bool)": "7a0ddeef",
			"feetier()": "8a1c4ce7",
			"getPrice()": "98d5fdca",
			"getQuoteAtTick(int24,uint128,address,address)": "43c57a27",
			"getTwap()": "5d752a9a",
			"getUniAmounts(int24,int24)": "9d371c30",
			"individualCap()": "0276650b",
			"maxTwapDeviation()": "e7c7cb91",
			"mintCompound(address,uint256)": "d1890677",
			"mintUniV3(int24,int24,uint256,uint256)": "400de37d",
			"pool()": "16f0115b",
			"protocolFee()": "b0e21e8a",
			"quoteAmount()": "0d40886d",
			"stat()": "0435a745",
			"supplyErc20ToCompound(address,address,uint256)": "3b7ba25f",
			"team()": "85f2aef2",
			"threshold()": "42cde4e8",
			"tickSpacing()": "d0c93a7c",
			"token0()": "0dfe1681",
			"token1()": "d21220a7",
			"triggerFee()": "f6837157",
			"twapDuration()": "26d89545",
			"underlyingCToken(address)": "559681ef",
			"uniFactoryAddr()": "7535536a",
			"uniPortion()": "31dc5b95",
			"uniswapV3MintCallback(uint256,uint256,bytes)": "d3487997",
			"uniswapV3SwapCallback(int256,int256,bytes)": "fa461e33",
			"vault()": "fbfa77cf",
			"vaultAddr()": "d27567f2",
			"vaultCap()": "3c1bda09",
			"vaultWithdraw(address,uint256,uint256)": "71c851dd",
			"viaAdminAddr()": "3b05bc37",
			"viaFactoryAddr()": "8ed0d6a6"
		}
	},
	"abi": [
		{
			"inputs": [
				{
					"internalType": "address",
					"name": "_viaFactory",
					"type": "address"
				},
				{
					"internalType": "address",
					"name": "_uniFactory",
					"type": "address"
				},
				{
					"internalType": "address payable",
					"name": "_weth",
					"type": "address"
				},
				{
					"internalType": "address",
					"name": "_token0",
					"type": "address"
				},
				{
					"internalType": "address",
					"name": "_token1",
					"type": "address"
				},
				{
					"internalType": "address",
					"name": "_cToken0",
					"type": "address"
				},
				{
					"internalType": "address",
					"name": "_cToken1",
					"type": "address"
				},
				{
					"internalType": "address",
					"name": "_cEth",
					"type": "address"
				},
				{
					"internalType": "address",
					"name": "_team",
					"type": "address"
				},
				{
					"components": [
						{
							"internalType": "uint256",
							"name": "_vaultCap",
							"type": "uint256"
						},
						{
							"internalType": "uint256",
							"name": "_individualCap",
							"type": "uint256"
						},
						{
							"internalType": "uint128",
							"name": "_quoteAmount",
							"type": "uint128"
						},
						{
							"internalType": "uint8",
							"name": "_decimal0",
							"type": "uint8"
						},
						{
							"internalType": "uint8",
							"name": "_decimal1",
							"type": "uint8"
						},
						{
							"internalType": "uint8",
							"name": "_uniPortion",
							"type": "uint8"
						},
						{
							"internalType": "uint8",
							"name": "_compPortion",
							"type": "uint8"
						},
						{
							"internalType": "uint8",
							"name": "_creatorFee",
							"type": "uint8"
						},
						{
							"internalType": "uint8",
							"name": "_adminFee",
							"type": "uint8"
						},
						{
							"internalType": "uint24",
							"name": "_feetier",
							"type": "uint24"
						},
						{
							"internalType": "int24",
							"name": "_maxTwapDeviation",
							"type": "int24"
						},
						{
							"internalType": "uint32",
							"name": "_twapDuration",
							"type": "uint32"
						},
						{
							"internalType": "uint32",
							"name": "_threshold",
							"type": "uint32"
						}
					],
					"internalType": "struct UniCompHelper.StratInfo",
					"name": "info",
					"type": "tuple"
				}
			],
			"stateMutability": "nonpayable",
			"type": "constructor"
		},
		{
			"anonymous": false,
			"inputs": [
				{
					"indexed": true,
					"internalType": "address",
					"name": "strategyAddr",
					"type": "address"
				},
				{
					"indexed": false,
					"internalType": "int24",
					"name": "cLow",
					"type": "int24"
				},
				{
					"indexed": false,
					"internalType": "int24",
					"name": "cHigh",
					"type": "int24"
				},
				{
					"indexed": false,
					"internalType": "uint128",
					"name": "liquidity",
					"type": "uint128"
				}
			],
			"name": "BurnUniV3Liquidity",
			"type": "event"
		},
		{
			"anonymous": false,
			"inputs": [
				{
					"indexed": true,
					"internalType": "address",
					"name": "strategyAddr",
					"type": "address"
				},
				{
					"indexed": false,
					"internalType": "int24",
					"name": "newLow",
					"type": "int24"
				},
				{
					"indexed": false,
					"internalType": "int24",
					"name": "newHigh",
					"type": "int24"
				},
				{
					"indexed": false,
					"internalType": "uint128",
					"name": "liquidity",
					"type": "uint128"
				}
			],
			"name": "MintUniV3Liquidity",
			"type": "event"
		},
		{
			"inputs": [],
			"name": "CEth",
			"outputs": [
				{
					"internalType": "contract ICEth",
					"name": "",
					"type": "address"
				}
			],
			"stateMutability": "view",
			"type": "function"
		},
		{
			"inputs": [],
			"name": "Fees",
			"outputs": [
				{
					"internalType": "uint256",
					"name": "U3Fees0",
					"type": "uint256"
				},
				{
					"internalType": "uint256",
					"name": "U3Fees1",
					"type": "uint256"
				},
				{
					"internalType": "uint256",
					"name": "LcFees0",
					"type": "uint256"
				},
				{
					"internalType": "uint256",
					"name": "LcFees1",
					"type": "uint256"
				},
				{
					"internalType": "uint256",
					"name": "AccruedProtocolFees0",
					"type": "uint256"
				},
				{
					"internalType": "uint256",
					"name": "AccruedProtocolFees1",
					"type": "uint256"
				}
			],
			"stateMutability": "view",
			"type": "function"
		},
		{
			"inputs": [],
			"name": "WETH",
			"outputs": [
				{
					"internalType": "contract IWETH9",
					"name": "",
					"type": "address"
				}
			],
			"stateMutability": "view",
			"type": "function"
		},
		{
			"inputs": [],
			"name": "WETHAddr",
			"outputs": [
				{
					"internalType": "address payable",
					"name": "",
					"type": "address"
				}
			],
			"stateMutability": "view",
			"type": "function"
		},
		{
			"inputs": [],
			"name": "adminFee",
			"outputs": [
				{
					"internalType": "uint8",
					"name": "",
					"type": "uint8"
				}
			],
			"stateMutability": "view",
			"type": "function"
		},
		{
			"inputs": [],
			"name": "alloc",
			"outputs": [
				{
					"internalType": "bool",
					"name": "",
					"type": "bool"
				}
			],
			"stateMutability": "nonpayable",
			"type": "function"
		},
		{
			"inputs": [],
			"name": "cHigh",
			"outputs": [
				{
					"internalType": "int24",
					"name": "",
					"type": "int24"
				}
			],
			"stateMutability": "view",
			"type": "function"
		},
		{
			"inputs": [],
			"name": "cLow",
			"outputs": [
				{
					"internalType": "int24",
					"name": "",
					"type": "int24"
				}
			],
			"stateMutability": "view",
			"type": "function"
		},
		{
			"inputs": [
				{
					"internalType": "uint256",
					"name": "totalSupply",
					"type": "uint256"
				},
				{
					"internalType": "uint256",
					"name": "amountIn0",
					"type": "uint256"
				},
				{
					"internalType": "uint256",
					"name": "amountIn1",
					"type": "uint256"
				}
			],
			"name": "calcShares",
			"outputs": [
				{
					"internalType": "uint256",
					"name": "shares",
					"type": "uint256"
				},
				{
					"internalType": "uint256",
					"name": "amount0",
					"type": "uint256"
				},
				{
					"internalType": "uint256",
					"name": "amount1",
					"type": "uint256"
				}
			],
			"stateMutability": "nonpayable",
			"type": "function"
		},
		{
			"inputs": [],
			"name": "compPortion",
			"outputs": [
				{
					"internalType": "uint8",
					"name": "",
					"type": "uint8"
				}
			],
			"stateMutability": "view",
			"type": "function"
		},
		{
			"inputs": [],
			"name": "creatorAddr",
			"outputs": [
				{
					"internalType": "address",
					"name": "",
					"type": "address"
				}
			],
			"stateMutability": "view",
			"type": "function"
		},
		{
			"inputs": [],
			"name": "creatorFee",
			"outputs": [
				{
					"internalType": "uint8",
					"name": "",
					"type": "uint8"
				}
			],
			"stateMutability": "view",
			"type": "function"
		},
		{
			"inputs": [],
			"name": "curComp0",
			"outputs": [
				{
					"internalType": "uint256",
					"name": "",
					"type": "uint256"
				}
			],
			"stateMutability": "view",
			"type": "function"
		},
		{
			"inputs": [],
			"name": "curComp1",
			"outputs": [
				{
					"internalType": "uint256",
					"name": "",
					"type": "uint256"
				}
			],
			"stateMutability": "view",
			"type": "function"
		},
		{
			"inputs": [],
			"name": "decimal0",
			"outputs": [
				{
					"internalType": "uint8",
					"name": "",
					"type": "uint8"
				}
			],
			"stateMutability": "view",
			"type": "function"
		},
		{
			"inputs": [],
			"name": "decimal1",
			"outputs": [
				{
					"internalType": "uint8",
					"name": "",
					"type": "uint8"
				}
			],
			"stateMutability": "view",
			"type": "function"
		},
		{
			"inputs": [
				{
					"internalType": "int24",
					"name": "tickLower",
					"type": "int24"
				},
				{
					"internalType": "int24",
					"name": "tickUpper",
					"type": "int24"
				},
				{
					"internalType": "uint128",
					"name": "liquidity",
					"type": "uint128"
				},
				{
					"internalType": "uint256",
					"name": "amount0",
					"type": "uint256"
				},
				{
					"internalType": "uint256",
					"name": "amount1",
					"type": "uint256"
				},
				{
					"internalType": "bool",
					"name": "redeemType",
					"type": "bool"
				}
			],
			"name": "emergency",
			"outputs": [],
			"stateMutability": "nonpayable",
			"type": "function"
		},
		{
			"inputs": [],
			"name": "feetier",
			"outputs": [
				{
					"internalType": "uint24",
					"name": "",
					"type": "uint24"
				}
			],
			"stateMutability": "view",
			"type": "function"
		},
		{
			"inputs": [],
			"name": "getPrice",
			"outputs": [
				{
					"internalType": "uint256",
					"name": "",
					"type": "uint256"
				}
			],
			"stateMutability": "view",
			"type": "function"
		},
		{
			"inputs": [
				{
					"internalType": "int24",
					"name": "tick",
					"type": "int24"
				},
				{
					"internalType": "uint128",
					"name": "baseAmount",
					"type": "uint128"
				},
				{
					"internalType": "address",
					"name": "baseToken",
					"type": "address"
				},
				{
					"internalType": "address",
					"name": "quoteToken",
					"type": "address"
				}
			],
			"name": "getQuoteAtTick",
			"outputs": [
				{
					"internalType": "uint256",
					"name": "quote",
					"type": "uint256"
				}
			],
			"stateMutability": "pure",
			"type": "function"
		},
		{
			"inputs": [],
			"name": "getTwap",
			"outputs": [
				{
					"internalType": "int24",
					"name": "tick",
					"type": "int24"
				}
			],
			"stateMutability": "view",
			"type": "function"
		},
		{
			"inputs": [
				{
					"internalType": "int24",
					"name": "tickLower",
					"type": "int24"
				},
				{
					"internalType": "int24",
					"name": "tickUpper",
					"type": "int24"
				}
			],
			"name": "getUniAmounts",
			"outputs": [
				{
					"internalType": "uint256",
					"name": "amount0",
					"type": "uint256"
				},
				{
					"internalType": "uint256",
					"name": "amount1",
					"type": "uint256"
				}
			],
			"stateMutability": "view",
			"type": "function"
		},
		{
			"inputs": [],
			"name": "individualCap",
			"outputs": [
				{
					"internalType": "uint256",
					"name": "",
					"type": "uint256"
				}
			],
			"stateMutability": "view",
			"type": "function"
		},
		{
			"inputs": [],
			"name": "maxTwapDeviation",
			"outputs": [
				{
					"internalType": "int24",
					"name": "",
					"type": "int24"
				}
			],
			"stateMutability": "view",
			"type": "function"
		},
		{
			"inputs": [
				{
					"internalType": "address",
					"name": "_underlying",
					"type": "address"
				},
				{
					"internalType": "uint256",
					"name": "amount",
					"type": "uint256"
				}
			],
			"name": "mintCompound",
			"outputs": [],
			"stateMutability": "nonpayable",
			"type": "function"
		},
		{
			"inputs": [
				{
					"internalType": "int24",
					"name": "newLow",
					"type": "int24"
				},
				{
					"internalType": "int24",
					"name": "newHigh",
					"type": "int24"
				},
				{
					"internalType": "uint256",
					"name": "amount0",
					"type": "uint256"
				},
				{
					"internalType": "uint256",
					"name": "amount1",
					"type": "uint256"
				}
			],
			"name": "mintUniV3",
			"outputs": [],
			"stateMutability": "nonpayable",
			"type": "function"
		},
		{
			"inputs": [],
			"name": "pool",
			"outputs": [
				{
					"internalType": "contract IUniswapV3Pool",
					"name": "",
					"type": "address"
				}
			],
			"stateMutability": "view",
			"type": "function"
		},
		{
			"inputs": [],
			"name": "protocolFee",
			"outputs": [
				{
					"internalType": "uint8",
					"name": "",
					"type": "uint8"
				}
			],
			"stateMutability": "view",
			"type": "function"
		},
		{
			"inputs": [],
			"name": "quoteAmount",
			"outputs": [
				{
					"internalType": "uint128",
					"name": "",
					"type": "uint128"
				}
			],
			"stateMutability": "view",
			"type": "function"
		},
		{
			"inputs": [],
			"name": "stat",
			"outputs": [
				{
					"internalType": "bool",
					"name": "",
					"type": "bool"
				}
			],
			"stateMutability": "view",
			"type": "function"
		},
		{
			"inputs": [
				{
					"internalType": "address",
					"name": "erc20Contract",
					"type": "address"
				},
				{
					"internalType": "address",
					"name": "cErc20Contract",
					"type": "address"
				},
				{
					"internalType": "uint256",
					"name": "amount",
					"type": "uint256"
				}
			],
			"name": "supplyErc20ToCompound",
			"outputs": [],
			"stateMutability": "nonpayable",
			"type": "function"
		},
		{
			"inputs": [],
			"name": "team",
			"outputs": [
				{
					"internalType": "address",
					"name": "",
					"type": "address"
				}
			],
			"stateMutability": "view",
			"type": "function"
		},
		{
			"inputs": [],
			"name": "threshold",
			"outputs": [
				{
					"internalType": "uint32",
					"name": "",
					"type": "uint32"
				}
			],
			"stateMutability": "view",
			"type": "function"
		},
		{
			"inputs": [],
			"name": "tickSpacing",
			"outputs": [
				{
					"internalType": "int24",
					"name": "",
					"type": "int24"
				}
			],
			"stateMutability": "view",
			"type": "function"
		},
		{
			"inputs": [],
			"name": "token0",
			"outputs": [
				{
					"internalType": "address",
					"name": "",
					"type": "address"
				}
			],
			"stateMutability": "view",
			"type": "function"
		},
		{
			"inputs": [],
			"name": "token1",
			"outputs": [
				{
					"internalType": "address",
					"name": "",
					"type": "address"
				}
			],
			"stateMutability": "view",
			"type": "function"
		},
		{
			"inputs": [],
			"name": "triggerFee",
			"outputs": [
				{
					"internalType": "uint8",
					"name": "",
					"type": "uint8"
				}
			],
			"stateMutability": "view",
			"type": "function"
		},
		{
			"inputs": [],
			"name": "twapDuration",
			"outputs": [
				{
					"internalType": "uint32",
					"name": "",
					"type": "uint32"
				}
			],
			"stateMutability": "view",
			"type": "function"
		},
		{
			"inputs": [
				{
					"internalType": "address",
					"name": "",
					"type": "address"
				}
			],
			"name": "underlyingCToken",
			"outputs": [
				{
					"internalType": "address",
					"name": "",
					"type": "address"
				}
			],
			"stateMutability": "view",
			"type": "function"
		},
		{
			"inputs": [],
			"name": "uniFactoryAddr",
			"outputs": [
				{
					"internalType": "address",
					"name": "",
					"type": "address"
				}
			],
			"stateMutability": "view",
			"type": "function"
		},
		{
			"inputs": [],
			"name": "uniPortion",
			"outputs": [
				{
					"internalType": "uint8",
					"name": "",
					"type": "uint8"
				}
			],
			"stateMutability": "view",
			"type": "function"
		},
		{
			"inputs": [
				{
					"internalType": "uint256",
					"name": "amount0",
					"type": "uint256"
				},
				{
					"internalType": "uint256",
					"name": "amount1",
					"type": "uint256"
				},
				{
					"internalType": "bytes",
					"name": "data",
					"type": "bytes"
				}
			],
			"name": "uniswapV3MintCallback",
			"outputs": [],
			"stateMutability": "nonpayable",
			"type": "function"
		},
		{
			"inputs": [
				{
					"internalType": "int256",
					"name": "amount0Delta",
					"type": "int256"
				},
				{
					"internalType": "int256",
					"name": "amount1Delta",
					"type": "int256"
				},
				{
					"internalType": "bytes",
					"name": "data",
					"type": "bytes"
				}
			],
			"name": "uniswapV3SwapCallback",
			"outputs": [],
			"stateMutability": "nonpayable",
			"type": "function"
		},
		{
			"inputs": [],
			"name": "vault",
			"outputs": [
				{
					"internalType": "contract ViaVault",
					"name": "",
					"type": "address"
				}
			],
			"stateMutability": "view",
			"type": "function"
		},
		{
			"inputs": [],
			"name": "vaultAddr",
			"outputs": [
				{
					"internalType": "address payable",
					"name": "",
					"type": "address"
				}
			],
			"stateMutability": "view",
			"type": "function"
		},
		{
			"inputs": [],
			"name": "vaultCap",
			"outputs": [
				{
					"internalType": "uint256",
					"name": "",
					"type": "uint256"
				}
			],
			"stateMutability": "view",
			"type": "function"
		},
		{
			"inputs": [
				{
					"internalType": "address",
					"name": "to",
					"type": "address"
				},
				{
					"internalType": "uint256",
					"name": "shares",
					"type": "uint256"
				},
				{
					"internalType": "uint256",
					"name": "totalSupply",
					"type": "uint256"
				}
			],
			"name": "vaultWithdraw",
			"outputs": [
				{
					"internalType": "uint256",
					"name": "amount0",
					"type": "uint256"
				},
				{
					"internalType": "uint256",
					"name": "amount1",
					"type": "uint256"
				}
			],
			"stateMutability": "nonpayable",
			"type": "function"
		},
		{
			"inputs": [],
			"name": "viaAdminAddr",
			"outputs": [
				{
					"internalType": "address",
					"name": "",
					"type": "address"
				}
			],
			"stateMutability": "view",
			"type": "function"
		},
		{
			"inputs": [],
			"name": "viaFactoryAddr",
			"outputs": [
				{
					"internalType": "address",
					"name": "",
					"type": "address"
				}
			],
			"stateMutability": "view",
			"type": "function"
		}
	]
}